{
  "_format": "hh-sol-artifact-1",
  "contractName": "StrataForgeAirdropFactory",
  "sourceName": "contracts/StrataForgeAirdropFactory.sol",
  "abi": [
    {
      "inputs": [
        {
          "internalType": "address",
          "name": "_adminContract",
          "type": "address"
        }
      ],
      "stateMutability": "nonpayable",
      "type": "constructor"
    },
    {
      "anonymous": false,
      "inputs": [
        {
          "indexed": true,
          "internalType": "address",
          "name": "newAdminContract",
          "type": "address"
        }
      ],
      "name": "AdminContractUpdated",
      "type": "event"
    },
    {
      "anonymous": false,
      "inputs": [
        {
          "indexed": true,
          "internalType": "address",
          "name": "creator",
          "type": "address"
        },
        {
          "indexed": true,
          "internalType": "address",
          "name": "distributor",
          "type": "address"
        },
        {
          "indexed": true,
          "internalType": "address",
          "name": "token",
          "type": "address"
        },
        {
          "indexed": false,
          "internalType": "uint8",
          "name": "tokenType",
          "type": "uint8"
        },
        {
          "indexed": false,
          "internalType": "uint32",
          "name": "totalRecipients",
          "type": "uint32"
        },
        {
          "indexed": false,
          "internalType": "uint32",
          "name": "airdropIndex",
          "type": "uint32"
        }
      ],
      "name": "AirdropCreated",
      "type": "event"
    },
    {
      "inputs": [],
      "name": "adminContract",
      "outputs": [
        {
          "internalType": "contract StrataForgeAdmin",
          "name": "",
          "type": "address"
        }
      ],
      "stateMutability": "view",
      "type": "function"
    },
    {
      "inputs": [
        {
          "internalType": "uint256",
          "name": "",
          "type": "uint256"
        }
      ],
      "name": "airdrops",
      "outputs": [
        {
          "internalType": "address",
          "name": "distributor",
          "type": "address"
        },
        {
          "internalType": "address",
          "name": "token",
          "type": "address"
        },
        {
          "internalType": "address",
          "name": "creator",
          "type": "address"
        },
        {
          "internalType": "uint32",
          "name": "startTime",
          "type": "uint32"
        },
        {
          "internalType": "uint32",
          "name": "totalRecipients",
          "type": "uint32"
        },
        {
          "internalType": "uint256",
          "name": "dropAmount",
          "type": "uint256"
        },
        {
          "internalType": "uint8",
          "name": "tokenType",
          "type": "uint8"
        },
        {
          "internalType": "uint8",
          "name": "reserved",
          "type": "uint8"
        }
      ],
      "stateMutability": "view",
      "type": "function"
    },
    {
      "inputs": [
        {
          "internalType": "address[]",
          "name": "tokens",
          "type": "address[]"
        },
        {
          "internalType": "bytes32[]",
          "name": "merkleRoots",
          "type": "bytes32[]"
        },
        {
          "internalType": "uint256[]",
          "name": "dropAmounts",
          "type": "uint256[]"
        },
        {
          "internalType": "uint32[]",
          "name": "totalRecipients",
          "type": "uint32[]"
        },
        {
          "internalType": "uint32[]",
          "name": "startTimes",
          "type": "uint32[]"
        }
      ],
      "name": "batchCreateERC20Airdrops",
      "outputs": [
        {
          "internalType": "address[]",
          "name": "distributors",
          "type": "address[]"
        }
      ],
      "stateMutability": "payable",
      "type": "function"
    },
    {
      "inputs": [
        {
          "internalType": "address",
          "name": "token",
          "type": "address"
        },
        {
          "internalType": "bytes32",
          "name": "merkleRoot",
          "type": "bytes32"
        },
        {
          "internalType": "uint256",
          "name": "tokenId",
          "type": "uint256"
        },
        {
          "internalType": "uint256",
          "name": "dropAmount",
          "type": "uint256"
        },
        {
          "internalType": "uint32",
          "name": "totalRecipients",
          "type": "uint32"
        },
        {
          "internalType": "uint32",
          "name": "startTime",
          "type": "uint32"
        }
      ],
      "name": "createERC1155Airdrop",
      "outputs": [
        {
          "internalType": "address",
          "name": "",
          "type": "address"
        }
      ],
      "stateMutability": "payable",
      "type": "function"
    },
    {
      "inputs": [
        {
          "internalType": "address",
          "name": "token",
          "type": "address"
        },
        {
          "internalType": "bytes32",
          "name": "merkleRoot",
          "type": "bytes32"
        },
        {
          "internalType": "uint256",
          "name": "dropAmount",
          "type": "uint256"
        },
        {
          "internalType": "uint32",
          "name": "totalRecipients",
          "type": "uint32"
        },
        {
          "internalType": "uint32",
          "name": "startTime",
          "type": "uint32"
        }
      ],
      "name": "createERC20Airdrop",
      "outputs": [
        {
          "internalType": "address",
          "name": "",
          "type": "address"
        }
      ],
      "stateMutability": "payable",
      "type": "function"
    },
    {
      "inputs": [
        {
          "internalType": "address",
          "name": "token",
          "type": "address"
        },
        {
          "internalType": "bytes32",
          "name": "merkleRoot",
          "type": "bytes32"
        },
        {
          "internalType": "uint256[]",
          "name": "tokenIds",
          "type": "uint256[]"
        },
        {
          "internalType": "uint32",
          "name": "startTime",
          "type": "uint32"
        }
      ],
      "name": "createERC721Airdrop",
      "outputs": [
        {
          "internalType": "address",
          "name": "",
          "type": "address"
        }
      ],
      "stateMutability": "payable",
      "type": "function"
    },
    {
      "inputs": [
        {
          "internalType": "address",
          "name": "",
          "type": "address"
        },
        {
          "internalType": "uint256",
          "name": "",
          "type": "uint256"
        }
      ],
      "name": "creatorAirdrops",
      "outputs": [
        {
          "internalType": "uint32",
          "name": "",
          "type": "uint32"
        }
      ],
      "stateMutability": "view",
      "type": "function"
    },
    {
      "inputs": [
        {
          "internalType": "uint256",
          "name": "limit",
          "type": "uint256"
        }
      ],
      "name": "getActiveAirdrops",
      "outputs": [
        {
          "components": [
            {
              "internalType": "address",
              "name": "distributor",
              "type": "address"
            },
            {
              "internalType": "address",
              "name": "token",
              "type": "address"
            },
            {
              "internalType": "address",
              "name": "creator",
              "type": "address"
            },
            {
              "internalType": "uint32",
              "name": "startTime",
              "type": "uint32"
            },
            {
              "internalType": "uint32",
              "name": "totalRecipients",
              "type": "uint32"
            },
            {
              "internalType": "uint256",
              "name": "dropAmount",
              "type": "uint256"
            },
            {
              "internalType": "uint8",
              "name": "tokenType",
              "type": "uint8"
            },
            {
              "internalType": "uint8",
              "name": "reserved",
              "type": "uint8"
            }
          ],
          "internalType": "struct StrataForgeAirdropFactory.AirdropInfo[]",
          "name": "",
          "type": "tuple[]"
        }
      ],
      "stateMutability": "view",
      "type": "function"
    },
    {
      "inputs": [],
      "name": "getAirdropCount",
      "outputs": [
        {
          "internalType": "uint256",
          "name": "",
          "type": "uint256"
        }
      ],
      "stateMutability": "view",
      "type": "function"
    },
    {
      "inputs": [
        {
          "internalType": "address",
          "name": "creator",
          "type": "address"
        }
      ],
      "name": "getCreatorAirdrops",
      "outputs": [
        {
          "components": [
            {
              "internalType": "address",
              "name": "distributor",
              "type": "address"
            },
            {
              "internalType": "address",
              "name": "token",
              "type": "address"
            },
            {
              "internalType": "address",
              "name": "creator",
              "type": "address"
            },
            {
              "internalType": "uint32",
              "name": "startTime",
              "type": "uint32"
            },
            {
              "internalType": "uint32",
              "name": "totalRecipients",
              "type": "uint32"
            },
            {
              "internalType": "uint256",
              "name": "dropAmount",
              "type": "uint256"
            },
            {
              "internalType": "uint8",
              "name": "tokenType",
              "type": "uint8"
            },
            {
              "internalType": "uint8",
              "name": "reserved",
              "type": "uint8"
            }
          ],
          "internalType": "struct StrataForgeAirdropFactory.AirdropInfo[]",
          "name": "",
          "type": "tuple[]"
        }
      ],
      "stateMutability": "view",
      "type": "function"
    },
    {
      "inputs": [
        {
          "internalType": "address",
          "name": "_adminContract",
          "type": "address"
        }
      ],
      "name": "updateAdminContract",
      "outputs": [],
      "stateMutability": "nonpayable",
      "type": "function"
    }
  ],
  "bytecode": "0x608060405234801561001057600080fd5b50604051614bce380380614bce8339818101604052810190610032919061014b565b600073ffffffffffffffffffffffffffffffffffffffff168173ffffffffffffffffffffffffffffffffffffffff16036100a1576040517f08c379a0000000000000000000000000000000000000000000000000000000008152600401610098906101d5565b60405180910390fd5b80600260006101000a81548173ffffffffffffffffffffffffffffffffffffffff021916908373ffffffffffffffffffffffffffffffffffffffff160217905550506101f5565b600080fd5b600073ffffffffffffffffffffffffffffffffffffffff82169050919050565b6000610118826100ed565b9050919050565b6101288161010d565b811461013357600080fd5b50565b6000815190506101458161011f565b92915050565b600060208284031215610161576101606100e8565b5b600061016f84828501610136565b91505092915050565b600082825260208201905092915050565b7f496e76616c69642061646d696e20616464726573730000000000000000000000600082015250565b60006101bf601583610178565b91506101ca82610189565b602082019050919050565b600060208201905081810360008301526101ee816101b2565b9050919050565b6149ca806102046000396000f3fe60806040526004361061009c5760003560e01c806368d5403a1161006457806368d5403a146101a65780638169c3b9146101d657806385f6fa9414610213578063c05c5e9414610250578063d8f6c9ee1461027b578063e3fa511e146102ab5761009c565b80630ebbd1ab146100a1578063130c38d3146100d1578063388d2c24146100fc57806359acfd6e1461012557806360db508214610162575b600080fd5b6100bb60048036038101906100b691906119fb565b6102db565b6040516100c89190611c08565b60405180910390f35b3480156100dd57600080fd5b506100e6610612565b6040516100f39190611c43565b60405180910390f35b34801561010857600080fd5b50610123600480360381019061011e9190611c8a565b61061e565b005b34801561013157600080fd5b5061014c60048036038101906101479190611ce3565b6108e2565b6040516101599190611eac565b60405180910390f35b34801561016e57600080fd5b5061018960048036038101906101849190611ce3565b610c46565b60405161019d989796959493929190611efb565b60405180910390f35b6101c060048036038101906101bb9190611fdb565b610d38565b6040516101cd9190612056565b60405180910390f35b3480156101e257600080fd5b506101fd60048036038101906101f89190611c8a565b610e42565b60405161020a9190611eac565b60405180910390f35b34801561021f57600080fd5b5061023a60048036038101906102359190612071565b61117d565b60405161024791906120b1565b60405180910390f35b34801561025c57600080fd5b506102656111c6565b604051610272919061212b565b60405180910390f35b61029560048036038101906102909190612146565b6111ec565b6040516102a29190612056565b60405180910390f35b6102c560048036038101906102c091906121ce565b6112f6565b6040516102d29190612056565b60405180910390f35b606060008b8b9050905089899050811480156102f957508787905081145b801561030757508585905081145b801561031557508383905081145b610354576040517f08c379a000000000000000000000000000000000000000000000000000000000815260040161034b906122b8565b60405180910390fd5b600080600090505b828110156103ac57878782818110610377576103766122d8565b5b905060200201602081019061038c9190612307565b63ffffffff168261039d9190612363565b9150808060010191505061035c565b50600260009054906101000a900473ffffffffffffffffffffffffffffffffffffffff1673ffffffffffffffffffffffffffffffffffffffff16639190c3ba3433846040518463ffffffff1660e01b815260040161040b929190612397565b60206040518083038185885af1158015610429573d6000803e3d6000fd5b50505050506040513d601f19601f8201168201806040525081019061044e91906123d5565b508167ffffffffffffffff81111561046957610468612402565b5b6040519080825280602002602001820160405280156104975781602001602082028036833780820191505090505b50925060005b82811015610601576105a78e8e838181106104bb576104ba6122d8565b5b90506020020160208101906104d09190611c8a565b8d8d848181106104e3576104e26122d8565b5b9050602002013560008d8d868181106104ff576104fe6122d8565b5b90506020020135600067ffffffffffffffff81111561052157610520612402565b5b60405190808252806020026020018201604052801561054f5781602001602082028036833780820191505090505b5060008e8e89818110610565576105646122d8565b5b905060200201602081019061057a9190612307565b8d8d8a81811061058d5761058c6122d8565b5b90506020020160208101906105a29190612307565b611400565b8482815181106105ba576105b96122d8565b5b602002602001019073ffffffffffffffffffffffffffffffffffffffff16908173ffffffffffffffffffffffffffffffffffffffff1681525050808060010191505061049d565b5050509a9950505050505050505050565b60008080549050905090565b600080600260009054906101000a900473ffffffffffffffffffffffffffffffffffffffff1673ffffffffffffffffffffffffffffffffffffffff16632b7832b36040518163ffffffff1660e01b8152600401602060405180830381865afa15801561068e573d6000803e3d6000fd5b505050506040513d601f19601f820116820180604052508101906106b2919061245d565b905060005b8160ff168160ff1610156107a9573373ffffffffffffffffffffffffffffffffffffffff16600260009054906101000a900473ffffffffffffffffffffffffffffffffffffffff1673ffffffffffffffffffffffffffffffffffffffff16638a252240836040518263ffffffff1660e01b8152600401610737919061248a565b602060405180830381865afa158015610754573d6000803e3d6000fd5b505050506040513d601f19601f8201168201806040525081019061077891906124ba565b73ffffffffffffffffffffffffffffffffffffffff160361079c57600192506107a9565b80806001019150506106b7565b50816107ea576040517f08c379a00000000000000000000000000000000000000000000000000000000081526004016107e190612533565b60405180910390fd5b600073ffffffffffffffffffffffffffffffffffffffff168373ffffffffffffffffffffffffffffffffffffffff1603610859576040517f08c379a00000000000000000000000000000000000000000000000000000000081526004016108509061259f565b60405180910390fd5b82600260006101000a81548173ffffffffffffffffffffffffffffffffffffffff021916908373ffffffffffffffffffffffffffffffffffffffff1602179055508273ffffffffffffffffffffffffffffffffffffffff167fa36142288b0f426e10fa5751064474c8752affb9516d10b56c3ae2cd5693e92560405160405180910390a2505050565b60606000808054905090506000806000851180156108ff57508285105b610909578261090b565b845b905060008390505b818461091f91906125bf565b81111561098157806001900390504260008281548110610942576109416122d8565b5b906000526020600020906005020160020160149054906101000a900463ffffffff1663ffffffff161161097c5782610979906125f3565b92505b610913565b5060008267ffffffffffffffff81111561099e5761099d612402565b5b6040519080825280602002602001820160405280156109d757816020015b6109c46117e4565b8152602001906001900390816109bc5790505b5090506000808590505b83866109ed91906125bf565b811180156109fa57508482105b15610c3857806001900390504260008281548110610a1b57610a1a6122d8565b5b906000526020600020906005020160020160149054906101000a900463ffffffff1663ffffffff1611610c335760008181548110610a5c57610a5b6122d8565b5b9060005260206000209060050201604051806101000160405290816000820160009054906101000a900473ffffffffffffffffffffffffffffffffffffffff1673ffffffffffffffffffffffffffffffffffffffff1673ffffffffffffffffffffffffffffffffffffffff1681526020016001820160009054906101000a900473ffffffffffffffffffffffffffffffffffffffff1673ffffffffffffffffffffffffffffffffffffffff1673ffffffffffffffffffffffffffffffffffffffff1681526020016002820160009054906101000a900473ffffffffffffffffffffffffffffffffffffffff1673ffffffffffffffffffffffffffffffffffffffff1673ffffffffffffffffffffffffffffffffffffffff1681526020016002820160149054906101000a900463ffffffff1663ffffffff1663ffffffff1681526020016002820160189054906101000a900463ffffffff1663ffffffff1663ffffffff168152602001600382015481526020016004820160009054906101000a900460ff1660ff1660ff1681526020016004820160019054906101000a900460ff1660ff1660ff1681525050838380610c14906125f3565b945081518110610c2757610c266122d8565b5b60200260200101819052505b6109e1565b508195505050505050919050565b60008181548110610c5657600080fd5b90600052602060002090600502016000915090508060000160009054906101000a900473ffffffffffffffffffffffffffffffffffffffff16908060010160009054906101000a900473ffffffffffffffffffffffffffffffffffffffff16908060020160009054906101000a900473ffffffffffffffffffffffffffffffffffffffff16908060020160149054906101000a900463ffffffff16908060020160189054906101000a900463ffffffff16908060030154908060040160009054906101000a900460ff16908060040160019054906101000a900460ff16905088565b6000600260009054906101000a900473ffffffffffffffffffffffffffffffffffffffff1673ffffffffffffffffffffffffffffffffffffffff16639190c3ba3433866040518463ffffffff1660e01b8152600401610d9892919061266c565b60206040518083038185885af1158015610db6573d6000803e3d6000fd5b50505050506040513d601f19601f82011682018060405250810190610ddb91906123d5565b50610e378686600087600067ffffffffffffffff811115610dff57610dfe612402565b5b604051908082528060200260200182016040528015610e2d5781602001602082028036833780820191505090505b5060008989611400565b905095945050505050565b60606000600160008473ffffffffffffffffffffffffffffffffffffffff1673ffffffffffffffffffffffffffffffffffffffff168152602001908152602001600020805480602002602001604051908101604052809291908181526020018280548015610efb57602002820191906000526020600020906000905b82829054906101000a900463ffffffff1663ffffffff1681526020019060040190602082600301049283019260010382029150808411610ebe5790505b505050505090506000815167ffffffffffffffff811115610f1f57610f1e612402565b5b604051908082528060200260200182016040528015610f5857816020015b610f456117e4565b815260200190600190039081610f3d5790505b50905060005b8251811015611172576000838281518110610f7c57610f7b6122d8565b5b602002602001015163ffffffff1681548110610f9b57610f9a6122d8565b5b9060005260206000209060050201604051806101000160405290816000820160009054906101000a900473ffffffffffffffffffffffffffffffffffffffff1673ffffffffffffffffffffffffffffffffffffffff1673ffffffffffffffffffffffffffffffffffffffff1681526020016001820160009054906101000a900473ffffffffffffffffffffffffffffffffffffffff1673ffffffffffffffffffffffffffffffffffffffff1673ffffffffffffffffffffffffffffffffffffffff1681526020016002820160009054906101000a900473ffffffffffffffffffffffffffffffffffffffff1673ffffffffffffffffffffffffffffffffffffffff1673ffffffffffffffffffffffffffffffffffffffff1681526020016002820160149054906101000a900463ffffffff1663ffffffff1663ffffffff1681526020016002820160189054906101000a900463ffffffff1663ffffffff1663ffffffff168152602001600382015481526020016004820160009054906101000a900460ff1660ff1660ff1681526020016004820160019054906101000a900460ff1660ff1660ff168152505082828151811061115a576111596122d8565b5b60200260200101819052508080600101915050610f5e565b508092505050919050565b6001602052816000526040600020818154811061119957600080fd5b9060005260206000209060089182820401919006600402915091509054906101000a900463ffffffff1681565b600260009054906101000a900473ffffffffffffffffffffffffffffffffffffffff1681565b600080848490509050600260009054906101000a900473ffffffffffffffffffffffffffffffffffffffff1673ffffffffffffffffffffffffffffffffffffffff16639190c3ba3433846040518463ffffffff1660e01b815260040161125392919061266c565b60206040518083038185885af1158015611271573d6000803e3d6000fd5b50505050506040513d601f19601f8201168201806040525081019061129691906123d5565b506112ea8787600180898980806020026020016040519081016040528093929190818152602001838360200280828437600081840152601f19601f820116905080830192505050505050506000878a611400565b91505095945050505050565b6000600260009054906101000a900473ffffffffffffffffffffffffffffffffffffffff1673ffffffffffffffffffffffffffffffffffffffff16639190c3ba3433866040518463ffffffff1660e01b815260040161135692919061266c565b60206040518083038185885af1158015611374573d6000803e3d6000fd5b50505050506040513d601f19601f8201168201806040525081019061139991906123d5565b506113f48787600287600067ffffffffffffffff8111156113bd576113bc612402565b5b6040519080825280602002602001820160405280156113eb5781602001602082028036833780820191505090505b508a8989611400565b90509695505050505050565b60008089898989898989896040516114179061187d565b611428989796959493929190612753565b604051809103906000f080158015611444573d6000803e3d6000fd5b50905080915063ffffffff801660008054905010611497576040517f08c379a000000000000000000000000000000000000000000000000000000000815260040161148e90612824565b60405180910390fd5b60008080549050905060006040518061010001604052808573ffffffffffffffffffffffffffffffffffffffff1681526020018d73ffffffffffffffffffffffffffffffffffffffff1681526020013373ffffffffffffffffffffffffffffffffffffffff1681526020018663ffffffff1681526020018763ffffffff1681526020018a81526020018b60ff168152602001600060ff16815250908060018154018082558091505060019003906000526020600020906005020160009091909190915060008201518160000160006101000a81548173ffffffffffffffffffffffffffffffffffffffff021916908373ffffffffffffffffffffffffffffffffffffffff16021790555060208201518160010160006101000a81548173ffffffffffffffffffffffffffffffffffffffff021916908373ffffffffffffffffffffffffffffffffffffffff16021790555060408201518160020160006101000a81548173ffffffffffffffffffffffffffffffffffffffff021916908373ffffffffffffffffffffffffffffffffffffffff16021790555060608201518160020160146101000a81548163ffffffff021916908363ffffffff16021790555060808201518160020160186101000a81548163ffffffff021916908363ffffffff16021790555060a0820151816003015560c08201518160040160006101000a81548160ff021916908360ff16021790555060e08201518160040160016101000a81548160ff021916908360ff1602179055505050600160003373ffffffffffffffffffffffffffffffffffffffff1673ffffffffffffffffffffffffffffffffffffffff1681526020019081526020016000208190806001815401808255809150506001900390600052602060002090600891828204019190066004029091909190916101000a81548163ffffffff021916908363ffffffff1602179055508a73ffffffffffffffffffffffffffffffffffffffff168373ffffffffffffffffffffffffffffffffffffffff163373ffffffffffffffffffffffffffffffffffffffff167fb120f1e2155b0f9a48c76330784ce18acb45526c0dece0c1d978b5ccd99cfa6f8c89866040516117ce93929190612844565b60405180910390a4505098975050505050505050565b604051806101000160405280600073ffffffffffffffffffffffffffffffffffffffff168152602001600073ffffffffffffffffffffffffffffffffffffffff168152602001600073ffffffffffffffffffffffffffffffffffffffff168152602001600063ffffffff168152602001600063ffffffff16815260200160008152602001600060ff168152602001600060ff1681525090565b6121198061287c83390190565b600080fd5b600080fd5b600080fd5b600080fd5b600080fd5b60008083601f8401126118b9576118b8611894565b5b8235905067ffffffffffffffff8111156118d6576118d5611899565b5b6020830191508360208202830111156118f2576118f161189e565b5b9250929050565b60008083601f84011261190f5761190e611894565b5b8235905067ffffffffffffffff81111561192c5761192b611899565b5b6020830191508360208202830111156119485761194761189e565b5b9250929050565b60008083601f84011261196557611964611894565b5b8235905067ffffffffffffffff81111561198257611981611899565b5b60208301915083602082028301111561199e5761199d61189e565b5b9250929050565b60008083601f8401126119bb576119ba611894565b5b8235905067ffffffffffffffff8111156119d8576119d7611899565b5b6020830191508360208202830111156119f4576119f361189e565b5b9250929050565b60008060008060008060008060008060a08b8d031215611a1e57611a1d61188a565b5b60008b013567ffffffffffffffff811115611a3c57611a3b61188f565b5b611a488d828e016118a3565b9a509a505060208b013567ffffffffffffffff811115611a6b57611a6a61188f565b5b611a778d828e016118f9565b985098505060408b013567ffffffffffffffff811115611a9a57611a9961188f565b5b611aa68d828e0161194f565b965096505060608b013567ffffffffffffffff811115611ac957611ac861188f565b5b611ad58d828e016119a5565b945094505060808b013567ffffffffffffffff811115611af857611af761188f565b5b611b048d828e016119a5565b92509250509295989b9194979a5092959850565b600081519050919050565b600082825260208201905092915050565b6000819050602082019050919050565b600073ffffffffffffffffffffffffffffffffffffffff82169050919050565b6000611b6f82611b44565b9050919050565b611b7f81611b64565b82525050565b6000611b918383611b76565b60208301905092915050565b6000602082019050919050565b6000611bb582611b18565b611bbf8185611b23565b9350611bca83611b34565b8060005b83811015611bfb578151611be28882611b85565b9750611bed83611b9d565b925050600181019050611bce565b5085935050505092915050565b60006020820190508181036000830152611c228184611baa565b905092915050565b6000819050919050565b611c3d81611c2a565b82525050565b6000602082019050611c586000830184611c34565b92915050565b611c6781611b64565b8114611c7257600080fd5b50565b600081359050611c8481611c5e565b92915050565b600060208284031215611ca057611c9f61188a565b5b6000611cae84828501611c75565b91505092915050565b611cc081611c2a565b8114611ccb57600080fd5b50565b600081359050611cdd81611cb7565b92915050565b600060208284031215611cf957611cf861188a565b5b6000611d0784828501611cce565b91505092915050565b600081519050919050565b600082825260208201905092915050565b6000819050602082019050919050565b600063ffffffff82169050919050565b611d5581611d3c565b82525050565b611d6481611c2a565b82525050565b600060ff82169050919050565b611d8081611d6a565b82525050565b61010082016000820151611d9d6000850182611b76565b506020820151611db06020850182611b76565b506040820151611dc36040850182611b76565b506060820151611dd66060850182611d4c565b506080820151611de96080850182611d4c565b5060a0820151611dfc60a0850182611d5b565b5060c0820151611e0f60c0850182611d77565b5060e0820151611e2260e0850182611d77565b50505050565b6000611e348383611d86565b6101008301905092915050565b6000602082019050919050565b6000611e5982611d10565b611e638185611d1b565b9350611e6e83611d2c565b8060005b83811015611e9f578151611e868882611e28565b9750611e9183611e41565b925050600181019050611e72565b5085935050505092915050565b60006020820190508181036000830152611ec68184611e4e565b905092915050565b611ed781611b64565b82525050565b611ee681611d3c565b82525050565b611ef581611d6a565b82525050565b600061010082019050611f11600083018b611ece565b611f1e602083018a611ece565b611f2b6040830189611ece565b611f386060830188611edd565b611f456080830187611edd565b611f5260a0830186611c34565b611f5f60c0830185611eec565b611f6c60e0830184611eec565b9998505050505050505050565b6000819050919050565b611f8c81611f79565b8114611f9757600080fd5b50565b600081359050611fa981611f83565b92915050565b611fb881611d3c565b8114611fc357600080fd5b50565b600081359050611fd581611faf565b92915050565b600080600080600060a08688031215611ff757611ff661188a565b5b600061200588828901611c75565b955050602061201688828901611f9a565b945050604061202788828901611cce565b935050606061203888828901611fc6565b925050608061204988828901611fc6565b9150509295509295909350565b600060208201905061206b6000830184611ece565b92915050565b600080604083850312156120885761208761188a565b5b600061209685828601611c75565b92505060206120a785828601611cce565b9150509250929050565b60006020820190506120c66000830184611edd565b92915050565b6000819050919050565b60006120f16120ec6120e784611b44565b6120cc565b611b44565b9050919050565b6000612103826120d6565b9050919050565b6000612115826120f8565b9050919050565b6121258161210a565b82525050565b6000602082019050612140600083018461211c565b92915050565b6000806000806000608086880312156121625761216161188a565b5b600061217088828901611c75565b955050602061218188828901611f9a565b945050604086013567ffffffffffffffff8111156121a2576121a161188f565b5b6121ae8882890161194f565b935093505060606121c188828901611fc6565b9150509295509295909350565b60008060008060008060c087890312156121eb576121ea61188a565b5b60006121f989828a01611c75565b965050602061220a89828a01611f9a565b955050604061221b89828a01611cce565b945050606061222c89828a01611cce565b935050608061223d89828a01611fc6565b92505060a061224e89828a01611fc6565b9150509295509295509295565b600082825260208201905092915050565b7f496e707574206172726179206c656e677468206d69736d617463680000000000600082015250565b60006122a2601b8361225b565b91506122ad8261226c565b602082019050919050565b600060208201905081810360008301526122d181612295565b9050919050565b7f4e487b7100000000000000000000000000000000000000000000000000000000600052603260045260246000fd5b60006020828403121561231d5761231c61188a565b5b600061232b84828501611fc6565b91505092915050565b7f4e487b7100000000000000000000000000000000000000000000000000000000600052601160045260246000fd5b600061236e82611c2a565b915061237983611c2a565b925082820190508082111561239157612390612334565b5b92915050565b60006040820190506123ac6000830185611ece565b6123b96020830184611c34565b9392505050565b6000815190506123cf81611cb7565b92915050565b6000602082840312156123eb576123ea61188a565b5b60006123f9848285016123c0565b91505092915050565b7f4e487b7100000000000000000000000000000000000000000000000000000000600052604160045260246000fd5b61243a81611d6a565b811461244557600080fd5b50565b60008151905061245781612431565b92915050565b6000602082840312156124735761247261188a565b5b600061248184828501612448565b91505092915050565b600060208201905061249f6000830184611eec565b92915050565b6000815190506124b481611c5e565b92915050565b6000602082840312156124d0576124cf61188a565b5b60006124de848285016124a5565b91505092915050565b7f4e6f742061646d696e0000000000000000000000000000000000000000000000600082015250565b600061251d60098361225b565b9150612528826124e7565b602082019050919050565b6000602082019050818103600083015261254c81612510565b9050919050565b7f496e76616c69642061646d696e20616464726573730000000000000000000000600082015250565b600061258960158361225b565b915061259482612553565b602082019050919050565b600060208201905081810360008301526125b88161257c565b9050919050565b60006125ca82611c2a565b91506125d583611c2a565b92508282039050818111156125ed576125ec612334565b5b92915050565b60006125fe82611c2a565b91507fffffffffffffffffffffffffffffffffffffffffffffffffffffffffffffffff82036126305761262f612334565b5b600182019050919050565b600061265661265161264c84611d3c565b6120cc565b611c2a565b9050919050565b6126668161263b565b82525050565b60006040820190506126816000830185611ece565b61268e602083018461265d565b9392505050565b61269e81611f79565b82525050565b600081519050919050565b600082825260208201905092915050565b6000819050602082019050919050565b60006126dc8383611d5b565b60208301905092915050565b6000602082019050919050565b6000612700826126a4565b61270a81856126af565b9350612715836126c0565b8060005b8381101561274657815161272d88826126d0565b9750612738836126e8565b925050600181019050612719565b5085935050505092915050565b600061010082019050612769600083018b611ece565b612776602083018a612695565b6127836040830189611eec565b6127906060830188611c34565b81810360808301526127a281876126f5565b90506127b160a0830186611c34565b6127be60c0830185611edd565b6127cb60e0830184611edd565b9998505050505050505050565b7f41697264726f7020696e646578206f766572666c6f7700000000000000000000600082015250565b600061280e60168361225b565b9150612819826127d8565b602082019050919050565b6000602082019050818103600083015261283d81612801565b9050919050565b60006060820190506128596000830186611eec565b6128666020830185611edd565b6128736040830184611edd565b94935050505056fe61016060405234801561001157600080fd5b50604051612119380380612119833981810160405281019061003391906104c9565b600073ffffffffffffffffffffffffffffffffffffffff168873ffffffffffffffffffffffffffffffffffffffff16036100a2576040517f08c379a0000000000000000000000000000000000000000000000000000000008152600401610099906105f8565b60405180910390fd5b60008163ffffffff16116100eb576040517f08c379a00000000000000000000000000000000000000000000000000000000081526004016100e290610664565b60405180910390fd5b8773ffffffffffffffffffffffffffffffffffffffff1660a08173ffffffffffffffffffffffffffffffffffffffff168152505086608081815250508560ff1660c08160ff16815250508461010081815250508163ffffffff166101208163ffffffff16815250508063ffffffff1660e08163ffffffff168152505060018660ff160361018a5783600290805190602001906101889291906101b3565b505b60028660ff161461019c57600061019e565b825b61014081815250505050505050505050610684565b8280548282559060005260206000209081019282156101ef579160200282015b828111156101ee5782518255916020019190600101906101d3565b5b5090506101fc9190610200565b5090565b5b80821115610219576000816000905550600101610201565b5090565b6000604051905090565b600080fd5b600080fd5b600073ffffffffffffffffffffffffffffffffffffffff82169050919050565b600061025c82610231565b9050919050565b61026c81610251565b811461027757600080fd5b50565b60008151905061028981610263565b92915050565b6000819050919050565b6102a28161028f565b81146102ad57600080fd5b50565b6000815190506102bf81610299565b92915050565b600060ff82169050919050565b6102db816102c5565b81146102e657600080fd5b50565b6000815190506102f8816102d2565b92915050565b6000819050919050565b610311816102fe565b811461031c57600080fd5b50565b60008151905061032e81610308565b92915050565b600080fd5b6000601f19601f8301169050919050565b7f4e487b7100000000000000000000000000000000000000000000000000000000600052604160045260246000fd5b61038282610339565b810181811067ffffffffffffffff821117156103a1576103a061034a565b5b80604052505050565b60006103b461021d565b90506103c08282610379565b919050565b600067ffffffffffffffff8211156103e0576103df61034a565b5b602082029050602081019050919050565b600080fd5b6000610409610404846103c5565b6103aa565b9050808382526020820190506020840283018581111561042c5761042b6103f1565b5b835b818110156104555780610441888261031f565b84526020840193505060208101905061042e565b5050509392505050565b600082601f83011261047457610473610334565b5b81516104848482602086016103f6565b91505092915050565b600063ffffffff82169050919050565b6104a68161048d565b81146104b157600080fd5b50565b6000815190506104c38161049d565b92915050565b600080600080600080600080610100898b0312156104ea576104e9610227565b5b60006104f88b828c0161027a565b98505060206105098b828c016102b0565b975050604061051a8b828c016102e9565b965050606061052b8b828c0161031f565b955050608089015167ffffffffffffffff81111561054c5761054b61022c565b5b6105588b828c0161045f565b94505060a06105698b828c0161031f565b93505060c061057a8b828c016104b4565b92505060e061058b8b828c016104b4565b9150509295985092959890939650565b600082825260208201905092915050565b7f496e76616c696420746f6b656e20616464726573730000000000000000000000600082015250565b60006105e260158361059b565b91506105ed826105ac565b602082019050919050565b60006020820190508181036000830152610611816105d5565b9050919050565b7f496e76616c69642073746172742074696d650000000000000000000000000000600082015250565b600061064e60128361059b565b915061065982610618565b602082019050919050565b6000602082019050818103600083015261067d81610641565b9050919050565b60805160a05160c05160e0516101005161012051610140516119b6610763600039600081816103920152818161061701528181610b460152610c320152600081816105a30152610cb201526000818161036e015281816109320152818161099001528181610b670152610c11015260008181610476015261069c0152600081816103da0152818161049d01528181610569015281816108e401526109d00152600081816104c6015281816105db0152818161091001528181610a2201528181610b080152610cd60152600081816103b601526107c501526119b66000f3fe608060405234801561001057600080fd5b50600436106100f55760003560e01c806378e9792511610097578063c08fa1a411610066578063c08fa1a414610278578063f23a6e6114610296578063f4f8495b146102c6578063fc0c546a146102e4576100f5565b806378e97925146101f0578063af35ae271461020e578063b391c5081461022c578063bc197c8114610248576100f5565b80632eb4a7ab116100d35780632eb4a7ab1461016657806330fa738c1461018457806367f718a9146101a257806373b2e80e146101c0576100f5565b806301ffc9a7146100fa57806305748be21461012a57806317d70f7c14610148575b600080fd5b610114600480360381019061010f9190610f53565b610302565b6040516101219190610f9b565b60405180910390f35b61013261036c565b60405161013f9190610fcf565b60405180910390f35b610150610390565b60405161015d9190610fcf565b60405180910390f35b61016e6103b4565b60405161017b9190611003565b60405180910390f35b61018c6103d8565b604051610199919061103a565b60405180910390f35b6101aa6103fc565b6040516101b79190611113565b60405180910390f35b6101da60048036038101906101d59190611193565b610454565b6040516101e79190610f9b565b60405180910390f35b6101f8610474565b60405161020591906111df565b60405180910390f35b610216610498565b6040516102239190610fcf565b60405180910390f35b6102466004803603810190610241919061125f565b61069a565b005b610262600480360381019061025d9190611358565b610c6e565b60405161026f9190611443565b60405180910390f35b610280610c86565b60405161028d91906111df565b60405180910390f35b6102b060048036038101906102ab919061148a565b610c9a565b6040516102bd9190611443565b60405180910390f35b6102ce610cb0565b6040516102db91906111df565b60405180910390f35b6102ec610cd4565b6040516102f99190611533565b60405180910390f35b60007f4e2312e0000000000000000000000000000000000000000000000000000000007bffffffffffffffffffffffffffffffffffffffffffffffffffffffff1916827bffffffffffffffffffffffffffffffffffffffffffffffffffffffff1916149050919050565b7f000000000000000000000000000000000000000000000000000000000000000081565b7f000000000000000000000000000000000000000000000000000000000000000081565b7f000000000000000000000000000000000000000000000000000000000000000081565b7f000000000000000000000000000000000000000000000000000000000000000081565b6060600280548060200260200160405190810160405280929190818152602001828054801561044a57602002820191906000526020600020905b815481526020019060010190808311610436575b5050505050905090565b60016020528060005260406000206000915054906101000a900460ff1681565b7f000000000000000000000000000000000000000000000000000000000000000081565b6000807f000000000000000000000000000000000000000000000000000000000000000060ff1603610565577f000000000000000000000000000000000000000000000000000000000000000073ffffffffffffffffffffffffffffffffffffffff166370a08231306040518263ffffffff1660e01b815260040161051d9190611533565b602060405180830381865afa15801561053a573d6000803e3d6000fd5b505050506040513d601f19601f8201168201806040525081019061055e9190611563565b9050610697565b60017f000000000000000000000000000000000000000000000000000000000000000060ff16036105d95760008054906101000a900463ffffffff167f00000000000000000000000000000000000000000000000000000000000000006105cc91906115bf565b63ffffffff169050610697565b7f000000000000000000000000000000000000000000000000000000000000000073ffffffffffffffffffffffffffffffffffffffff1662fdd58e307f00000000000000000000000000000000000000000000000000000000000000006040518363ffffffff1660e01b81526004016106539291906115f7565b602060405180830381865afa158015610670573d6000803e3d6000fd5b505050506040513d601f19601f820116820180604052508101906106949190611563565b90505b90565b7f000000000000000000000000000000000000000000000000000000000000000063ffffffff164210156106fa576040517fb820fc9700000000000000000000000000000000000000000000000000000000815260040160405180910390fd5b600160003373ffffffffffffffffffffffffffffffffffffffff1673ffffffffffffffffffffffffffffffffffffffff16815260200190815260200160002060009054906101000a900460ff161561077e576040517f646cf55800000000000000000000000000000000000000000000000000000000815260040160405180910390fd5b610810828280806020026020016040519081016040528093929190818152602001838360200280828437600081840152601f19601f820116905080830192505050505050507f0000000000000000000000000000000000000000000000000000000000000000336040516020016107f59190611668565b60405160208183030381529060405280519060200120610cf8565b610846576040517f09bde33900000000000000000000000000000000000000000000000000000000815260040160405180910390fd5b60018060003373ffffffffffffffffffffffffffffffffffffffff1673ffffffffffffffffffffffffffffffffffffffff16815260200190815260200160002060006101000a81548160ff021916908315150217905550600080600081819054906101000a900463ffffffff16809291906108c090611683565b91906101000a81548163ffffffff021916908363ffffffff160217905550905060007f000000000000000000000000000000000000000000000000000000000000000060ff16036109cc576109567f0000000000000000000000000000000000000000000000000000000000000000337f0000000000000000000000000000000000000000000000000000000000000000610d0f565b3373ffffffffffffffffffffffffffffffffffffffff167f987d620f307ff6b94d58743cb7a7509f24071586a77759b77c2d4e29f75a2f9a7f000000000000000000000000000000000000000000000000000000000000000060006040516109bf9291906116f4565b60405180910390a2610c69565b60017f000000000000000000000000000000000000000000000000000000000000000060ff1603610b0657600060028263ffffffff1681548110610a1357610a1261171d565b5b906000526020600020015490507f000000000000000000000000000000000000000000000000000000000000000073ffffffffffffffffffffffffffffffffffffffff166323b872dd3033846040518463ffffffff1660e01b8152600401610a7d9392919061174c565b600060405180830381600087803b158015610a9757600080fd5b505af1158015610aab573d6000803e3d6000fd5b505050503373ffffffffffffffffffffffffffffffffffffffff167f987d620f307ff6b94d58743cb7a7509f24071586a77759b77c2d4e29f75a2f9a600183604051610af89291906117be565b60405180910390a250610c68565b7f000000000000000000000000000000000000000000000000000000000000000073ffffffffffffffffffffffffffffffffffffffff1663f242432a30337f00000000000000000000000000000000000000000000000000000000000000007f00000000000000000000000000000000000000000000000000000000000000006040518563ffffffff1660e01b8152600401610ba5949392919061181e565b600060405180830381600087803b158015610bbf57600080fd5b505af1158015610bd3573d6000803e3d6000fd5b505050503373ffffffffffffffffffffffffffffffffffffffff167f987d620f307ff6b94d58743cb7a7509f24071586a77759b77c2d4e29f75a2f9a7f00000000000000000000000000000000000000000000000000000000000000007f0000000000000000000000000000000000000000000000000000000000000000604051610c5f929190611876565b60405180910390a25b5b505050565b600063bc197c8160e01b905098975050505050505050565b60008054906101000a900463ffffffff1681565b600063f23a6e6160e01b90509695505050505050565b7f000000000000000000000000000000000000000000000000000000000000000081565b7f000000000000000000000000000000000000000000000000000000000000000081565b600082610d058584610e5f565b1490509392505050565b6000808473ffffffffffffffffffffffffffffffffffffffff1663a9059cbb60e01b8585604051602401610d449291906115f7565b604051602081830303815290604052907bffffffffffffffffffffffffffffffffffffffffffffffffffffffff19166020820180517bffffffffffffffffffffffffffffffffffffffffffffffffffffffff8381831617835250505050604051610dae9190611910565b6000604051808303816000865af19150503d8060008114610deb576040519150601f19603f3d011682016040523d82523d6000602084013e610df0565b606091505b5091509150811580610e2157506000815114158015610e20575080806020019051810190610e1e9190611953565b155b5b15610e58576040517f90b8ec1800000000000000000000000000000000000000000000000000000000815260040160405180910390fd5b5050505050565b60008082905060005b8451811015610ea457610e9582868381518110610e8857610e8761171d565b5b6020026020010151610eaf565b91508080600101915050610e68565b508091505092915050565b6000818310610ec757610ec28284610eda565b610ed2565b610ed18383610eda565b5b905092915050565b600082600052816020526040600020905092915050565b600080fd5b600080fd5b60007fffffffff0000000000000000000000000000000000000000000000000000000082169050919050565b610f3081610efb565b8114610f3b57600080fd5b50565b600081359050610f4d81610f27565b92915050565b600060208284031215610f6957610f68610ef1565b5b6000610f7784828501610f3e565b91505092915050565b60008115159050919050565b610f9581610f80565b82525050565b6000602082019050610fb06000830184610f8c565b92915050565b6000819050919050565b610fc981610fb6565b82525050565b6000602082019050610fe46000830184610fc0565b92915050565b6000819050919050565b610ffd81610fea565b82525050565b60006020820190506110186000830184610ff4565b92915050565b600060ff82169050919050565b6110348161101e565b82525050565b600060208201905061104f600083018461102b565b92915050565b600081519050919050565b600082825260208201905092915050565b6000819050602082019050919050565b61108a81610fb6565b82525050565b600061109c8383611081565b60208301905092915050565b6000602082019050919050565b60006110c082611055565b6110ca8185611060565b93506110d583611071565b8060005b838110156111065781516110ed8882611090565b97506110f8836110a8565b9250506001810190506110d9565b5085935050505092915050565b6000602082019050818103600083015261112d81846110b5565b905092915050565b600073ffffffffffffffffffffffffffffffffffffffff82169050919050565b600061116082611135565b9050919050565b61117081611155565b811461117b57600080fd5b50565b60008135905061118d81611167565b92915050565b6000602082840312156111a9576111a8610ef1565b5b60006111b78482850161117e565b91505092915050565b600063ffffffff82169050919050565b6111d9816111c0565b82525050565b60006020820190506111f460008301846111d0565b92915050565b600080fd5b600080fd5b600080fd5b60008083601f84011261121f5761121e6111fa565b5b8235905067ffffffffffffffff81111561123c5761123b6111ff565b5b60208301915083602082028301111561125857611257611204565b5b9250929050565b6000806020838503121561127657611275610ef1565b5b600083013567ffffffffffffffff81111561129457611293610ef6565b5b6112a085828601611209565b92509250509250929050565b60008083601f8401126112c2576112c16111fa565b5b8235905067ffffffffffffffff8111156112df576112de6111ff565b5b6020830191508360208202830111156112fb576112fa611204565b5b9250929050565b60008083601f840112611318576113176111fa565b5b8235905067ffffffffffffffff811115611335576113346111ff565b5b60208301915083600182028301111561135157611350611204565b5b9250929050565b60008060008060008060008060a0898b03121561137857611377610ef1565b5b60006113868b828c0161117e565b98505060206113978b828c0161117e565b975050604089013567ffffffffffffffff8111156113b8576113b7610ef6565b5b6113c48b828c016112ac565b9650965050606089013567ffffffffffffffff8111156113e7576113e6610ef6565b5b6113f38b828c016112ac565b9450945050608089013567ffffffffffffffff81111561141657611415610ef6565b5b6114228b828c01611302565b92509250509295985092959890939650565b61143d81610efb565b82525050565b60006020820190506114586000830184611434565b92915050565b61146781610fb6565b811461147257600080fd5b50565b6000813590506114848161145e565b92915050565b60008060008060008060a087890312156114a7576114a6610ef1565b5b60006114b589828a0161117e565b96505060206114c689828a0161117e565b95505060406114d789828a01611475565b94505060606114e889828a01611475565b935050608087013567ffffffffffffffff81111561150957611508610ef6565b5b61151589828a01611302565b92509250509295509295509295565b61152d81611155565b82525050565b60006020820190506115486000830184611524565b92915050565b60008151905061155d8161145e565b92915050565b60006020828403121561157957611578610ef1565b5b60006115878482850161154e565b91505092915050565b7f4e487b7100000000000000000000000000000000000000000000000000000000600052601160045260246000fd5b60006115ca826111c0565b91506115d5836111c0565b9250828203905063ffffffff8111156115f1576115f0611590565b5b92915050565b600060408201905061160c6000830185611524565b6116196020830184610fc0565b9392505050565b60008160601b9050919050565b600061163882611620565b9050919050565b600061164a8261162d565b9050919050565b61166261165d82611155565b61163f565b82525050565b60006116748284611651565b60148201915081905092915050565b600061168e826111c0565b915063ffffffff82036116a4576116a3611590565b5b600182019050919050565b6000819050919050565b6000819050919050565b60006116de6116d96116d4846116af565b6116b9565b610fb6565b9050919050565b6116ee816116c3565b82525050565b60006040820190506117096000830185610fc0565b61171660208301846116e5565b9392505050565b7f4e487b7100000000000000000000000000000000000000000000000000000000600052603260045260246000fd5b60006060820190506117616000830186611524565b61176e6020830185611524565b61177b6040830184610fc0565b949350505050565b6000819050919050565b60006117a86117a361179e84611783565b6116b9565b610fb6565b9050919050565b6117b88161178d565b82525050565b60006040820190506117d360008301856117af565b6117e06020830184610fc0565b9392505050565b600082825260208201905092915050565b50565b60006118086000836117e7565b9150611813826117f8565b600082019050919050565b600060a0820190506118336000830187611524565b6118406020830186611524565b61184d6040830185610fc0565b61185a6060830184610fc0565b818103608083015261186b816117fb565b905095945050505050565b600060408201905061188b6000830185610fc0565b6118986020830184610fc0565b9392505050565b600081519050919050565b600081905092915050565b60005b838110156118d35780820151818401526020810190506118b8565b60008484015250505050565b60006118ea8261189f565b6118f481856118aa565b93506119048185602086016118b5565b80840191505092915050565b600061191c82846118df565b915081905092915050565b61193081610f80565b811461193b57600080fd5b50565b60008151905061194d81611927565b92915050565b60006020828403121561196957611968610ef1565b5b60006119778482850161193e565b9150509291505056fea26469706673582212200040b0f0210a900a4162fc08da9d3fe90338c0b20e227e408f85a99f77b1804f64736f6c634300081e0033a2646970667358221220369fbc03526d3f6572a83e94cf91f75747a7896f55a71b30e3bb22f53660f25164736f6c634300081e0033",
  "linkReferences": {},
  "deployedLinkReferences": {}
}