{
  "_format": "hh-sol-artifact-1",
  "contractName": "StrataForgeERC721Implementation",
  "sourceName": "contracts/StrataForgeTokenImplementation.sol",
  "abi": [
    {
      "inputs": [],
      "stateMutability": "nonpayable",
      "type": "constructor"
    },
    {
      "inputs": [],
      "name": "AccessControlBadConfirmation",
      "type": "error"
    },
    {
      "inputs": [
        {
          "internalType": "address",
          "name": "account",
          "type": "address"
        },
        {
          "internalType": "bytes32",
          "name": "neededRole",
          "type": "bytes32"
        }
      ],
      "name": "AccessControlUnauthorizedAccount",
      "type": "error"
    },
    {
      "inputs": [],
      "name": "AlreadyInitialized",
      "type": "error"
    },
    {
      "inputs": [],
      "name": "ERC721EnumerableForbiddenBatchMint",
      "type": "error"
    },
    {
      "inputs": [
        {
          "internalType": "address",
          "name": "sender",
          "type": "address"
        },
        {
          "internalType": "uint256",
          "name": "tokenId",
          "type": "uint256"
        },
        {
          "internalType": "address",
          "name": "owner",
          "type": "address"
        }
      ],
      "name": "ERC721IncorrectOwner",
      "type": "error"
    },
    {
      "inputs": [
        {
          "internalType": "address",
          "name": "operator",
          "type": "address"
        },
        {
          "internalType": "uint256",
          "name": "tokenId",
          "type": "uint256"
        }
      ],
      "name": "ERC721InsufficientApproval",
      "type": "error"
    },
    {
      "inputs": [
        {
          "internalType": "address",
          "name": "approver",
          "type": "address"
        }
      ],
      "name": "ERC721InvalidApprover",
      "type": "error"
    },
    {
      "inputs": [
        {
          "internalType": "address",
          "name": "operator",
          "type": "address"
        }
      ],
      "name": "ERC721InvalidOperator",
      "type": "error"
    },
    {
      "inputs": [
        {
          "internalType": "address",
          "name": "owner",
          "type": "address"
        }
      ],
      "name": "ERC721InvalidOwner",
      "type": "error"
    },
    {
      "inputs": [
        {
          "internalType": "address",
          "name": "receiver",
          "type": "address"
        }
      ],
      "name": "ERC721InvalidReceiver",
      "type": "error"
    },
    {
      "inputs": [
        {
          "internalType": "address",
          "name": "sender",
          "type": "address"
        }
      ],
      "name": "ERC721InvalidSender",
      "type": "error"
    },
    {
      "inputs": [
        {
          "internalType": "uint256",
          "name": "tokenId",
          "type": "uint256"
        }
      ],
      "name": "ERC721NonexistentToken",
      "type": "error"
    },
    {
      "inputs": [
        {
          "internalType": "address",
          "name": "owner",
          "type": "address"
        },
        {
          "internalType": "uint256",
          "name": "index",
          "type": "uint256"
        }
      ],
      "name": "ERC721OutOfBoundsIndex",
      "type": "error"
    },
    {
      "inputs": [],
      "name": "EnforcedPause",
      "type": "error"
    },
    {
      "inputs": [],
      "name": "ExpectedPause",
      "type": "error"
    },
    {
      "inputs": [],
      "name": "FeatureNotEnabled",
      "type": "error"
    },
    {
      "inputs": [
        {
          "internalType": "address",
          "name": "owner",
          "type": "address"
        }
      ],
      "name": "OwnableInvalidOwner",
      "type": "error"
    },
    {
      "inputs": [
        {
          "internalType": "address",
          "name": "account",
          "type": "address"
        }
      ],
      "name": "OwnableUnauthorizedAccount",
      "type": "error"
    },
    {
      "anonymous": false,
      "inputs": [
        {
          "indexed": true,
          "internalType": "address",
          "name": "owner",
          "type": "address"
        },
        {
          "indexed": true,
          "internalType": "address",
          "name": "approved",
          "type": "address"
        },
        {
          "indexed": true,
          "internalType": "uint256",
          "name": "tokenId",
          "type": "uint256"
        }
      ],
      "name": "Approval",
      "type": "event"
    },
    {
      "anonymous": false,
      "inputs": [
        {
          "indexed": true,
          "internalType": "address",
          "name": "owner",
          "type": "address"
        },
        {
          "indexed": true,
          "internalType": "address",
          "name": "operator",
          "type": "address"
        },
        {
          "indexed": false,
          "internalType": "bool",
          "name": "approved",
          "type": "bool"
        }
      ],
      "name": "ApprovalForAll",
      "type": "event"
    },
    {
      "anonymous": false,
      "inputs": [
        {
          "indexed": false,
          "internalType": "uint256",
          "name": "_fromTokenId",
          "type": "uint256"
        },
        {
          "indexed": false,
          "internalType": "uint256",
          "name": "_toTokenId",
          "type": "uint256"
        }
      ],
      "name": "BatchMetadataUpdate",
      "type": "event"
    },
    {
      "anonymous": false,
      "inputs": [
        {
          "indexed": false,
          "internalType": "uint256",
          "name": "_tokenId",
          "type": "uint256"
        }
      ],
      "name": "MetadataUpdate",
      "type": "event"
    },
    {
      "anonymous": false,
      "inputs": [
        {
          "indexed": true,
          "internalType": "address",
          "name": "previousOwner",
          "type": "address"
        },
        {
          "indexed": true,
          "internalType": "address",
          "name": "newOwner",
          "type": "address"
        }
      ],
      "name": "OwnershipTransferred",
      "type": "event"
    },
    {
      "anonymous": false,
      "inputs": [
        {
          "indexed": false,
          "internalType": "address",
          "name": "account",
          "type": "address"
        }
      ],
      "name": "Paused",
      "type": "event"
    },
    {
      "anonymous": false,
      "inputs": [
        {
          "indexed": true,
          "internalType": "bytes32",
          "name": "role",
          "type": "bytes32"
        },
        {
          "indexed": true,
          "internalType": "bytes32",
          "name": "previousAdminRole",
          "type": "bytes32"
        },
        {
          "indexed": true,
          "internalType": "bytes32",
          "name": "newAdminRole",
          "type": "bytes32"
        }
      ],
      "name": "RoleAdminChanged",
      "type": "event"
    },
    {
      "anonymous": false,
      "inputs": [
        {
          "indexed": true,
          "internalType": "bytes32",
          "name": "role",
          "type": "bytes32"
        },
        {
          "indexed": true,
          "internalType": "address",
          "name": "account",
          "type": "address"
        },
        {
          "indexed": true,
          "internalType": "address",
          "name": "sender",
          "type": "address"
        }
      ],
      "name": "RoleGranted",
      "type": "event"
    },
    {
      "anonymous": false,
      "inputs": [
        {
          "indexed": true,
          "internalType": "bytes32",
          "name": "role",
          "type": "bytes32"
        },
        {
          "indexed": true,
          "internalType": "address",
          "name": "account",
          "type": "address"
        },
        {
          "indexed": true,
          "internalType": "address",
          "name": "sender",
          "type": "address"
        }
      ],
      "name": "RoleRevoked",
      "type": "event"
    },
    {
      "anonymous": false,
      "inputs": [
        {
          "indexed": true,
          "internalType": "address",
          "name": "from",
          "type": "address"
        },
        {
          "indexed": true,
          "internalType": "address",
          "name": "to",
          "type": "address"
        },
        {
          "indexed": true,
          "internalType": "uint256",
          "name": "tokenId",
          "type": "uint256"
        }
      ],
      "name": "Transfer",
      "type": "event"
    },
    {
      "anonymous": false,
      "inputs": [
        {
          "indexed": false,
          "internalType": "address",
          "name": "account",
          "type": "address"
        }
      ],
      "name": "Unpaused",
      "type": "event"
    },
    {
      "inputs": [],
      "name": "DEFAULT_ADMIN_ROLE",
      "outputs": [
        {
          "internalType": "bytes32",
          "name": "",
          "type": "bytes32"
        }
      ],
      "stateMutability": "view",
      "type": "function"
    },
    {
      "inputs": [],
      "name": "MINTER_ROLE",
      "outputs": [
        {
          "internalType": "bytes32",
          "name": "",
          "type": "bytes32"
        }
      ],
      "stateMutability": "view",
      "type": "function"
    },
    {
      "inputs": [],
      "name": "PAUSER_ROLE",
      "outputs": [
        {
          "internalType": "bytes32",
          "name": "",
          "type": "bytes32"
        }
      ],
      "stateMutability": "view",
      "type": "function"
    },
    {
      "inputs": [],
      "name": "URI_SETTER_ROLE",
      "outputs": [
        {
          "internalType": "bytes32",
          "name": "",
          "type": "bytes32"
        }
      ],
      "stateMutability": "view",
      "type": "function"
    },
    {
      "inputs": [
        {
          "internalType": "address",
          "name": "to",
          "type": "address"
        },
        {
          "internalType": "uint256",
          "name": "tokenId",
          "type": "uint256"
        }
      ],
      "name": "approve",
      "outputs": [],
      "stateMutability": "nonpayable",
      "type": "function"
    },
    {
      "inputs": [
        {
          "internalType": "address",
          "name": "owner",
          "type": "address"
        }
      ],
      "name": "balanceOf",
      "outputs": [
        {
          "internalType": "uint256",
          "name": "",
          "type": "uint256"
        }
      ],
      "stateMutability": "view",
      "type": "function"
    },
    {
      "inputs": [
        {
          "internalType": "uint256",
          "name": "tokenId",
          "type": "uint256"
        }
      ],
      "name": "burn",
      "outputs": [],
      "stateMutability": "nonpayable",
      "type": "function"
    },
    {
      "inputs": [
        {
          "internalType": "bytes4",
          "name": "",
          "type": "bytes4"
        }
      ],
      "name": "enabledFeatures",
      "outputs": [
        {
          "internalType": "bool",
          "name": "",
          "type": "bool"
        }
      ],
      "stateMutability": "view",
      "type": "function"
    },
    {
      "inputs": [
        {
          "internalType": "uint256",
          "name": "tokenId",
          "type": "uint256"
        }
      ],
      "name": "getApproved",
      "outputs": [
        {
          "internalType": "address",
          "name": "",
          "type": "address"
        }
      ],
      "stateMutability": "view",
      "type": "function"
    },
    {
      "inputs": [],
      "name": "getEnabledFeatures",
      "outputs": [
        {
          "internalType": "bool[]",
          "name": "",
          "type": "bool[]"
        }
      ],
      "stateMutability": "view",
      "type": "function"
    },
    {
      "inputs": [
        {
          "internalType": "bytes32",
          "name": "role",
          "type": "bytes32"
        }
      ],
      "name": "getRoleAdmin",
      "outputs": [
        {
          "internalType": "bytes32",
          "name": "",
          "type": "bytes32"
        }
      ],
      "stateMutability": "view",
      "type": "function"
    },
    {
      "inputs": [
        {
          "internalType": "bytes32",
          "name": "role",
          "type": "bytes32"
        },
        {
          "internalType": "address",
          "name": "account",
          "type": "address"
        }
      ],
      "name": "grantRole",
      "outputs": [],
      "stateMutability": "nonpayable",
      "type": "function"
    },
    {
      "inputs": [
        {
          "internalType": "bytes32",
          "name": "role",
          "type": "bytes32"
        },
        {
          "internalType": "address",
          "name": "account",
          "type": "address"
        }
      ],
      "name": "hasRole",
      "outputs": [
        {
          "internalType": "bool",
          "name": "",
          "type": "bool"
        }
      ],
      "stateMutability": "view",
      "type": "function"
    },
    {
      "inputs": [
        {
          "internalType": "string",
          "name": "name_",
          "type": "string"
        },
        {
          "internalType": "string",
          "name": "symbol_",
          "type": "string"
        },
        {
          "internalType": "address",
          "name": "tokenOwner",
          "type": "address"
        },
        {
          "internalType": "bool[]",
          "name": "features",
          "type": "bool[]"
        }
      ],
      "name": "initialize",
      "outputs": [],
      "stateMutability": "nonpayable",
      "type": "function"
    },
    {
      "inputs": [
        {
          "internalType": "address",
          "name": "owner",
          "type": "address"
        },
        {
          "internalType": "address",
          "name": "operator",
          "type": "address"
        }
      ],
      "name": "isApprovedForAll",
      "outputs": [
        {
          "internalType": "bool",
          "name": "",
          "type": "bool"
        }
      ],
      "stateMutability": "view",
      "type": "function"
    },
    {
      "inputs": [
        {
          "internalType": "address",
          "name": "to",
          "type": "address"
        }
      ],
      "name": "mint",
      "outputs": [
        {
          "internalType": "uint256",
          "name": "",
          "type": "uint256"
        }
      ],
      "stateMutability": "nonpayable",
      "type": "function"
    },
    {
      "inputs": [
        {
          "internalType": "address",
          "name": "to",
          "type": "address"
        },
        {
          "internalType": "string",
          "name": "uri",
          "type": "string"
        }
      ],
      "name": "mintWithURI",
      "outputs": [
        {
          "internalType": "uint256",
          "name": "",
          "type": "uint256"
        }
      ],
      "stateMutability": "nonpayable",
      "type": "function"
    },
    {
      "inputs": [],
      "name": "name",
      "outputs": [
        {
          "internalType": "string",
          "name": "",
          "type": "string"
        }
      ],
      "stateMutability": "view",
      "type": "function"
    },
    {
      "inputs": [],
      "name": "owner",
      "outputs": [
        {
          "internalType": "address",
          "name": "",
          "type": "address"
        }
      ],
      "stateMutability": "view",
      "type": "function"
    },
    {
      "inputs": [
        {
          "internalType": "uint256",
          "name": "tokenId",
          "type": "uint256"
        }
      ],
      "name": "ownerOf",
      "outputs": [
        {
          "internalType": "address",
          "name": "",
          "type": "address"
        }
      ],
      "stateMutability": "view",
      "type": "function"
    },
    {
      "inputs": [],
      "name": "pause",
      "outputs": [],
      "stateMutability": "nonpayable",
      "type": "function"
    },
    {
      "inputs": [],
      "name": "paused",
      "outputs": [
        {
          "internalType": "bool",
          "name": "",
          "type": "bool"
        }
      ],
      "stateMutability": "view",
      "type": "function"
    },
    {
      "inputs": [],
      "name": "renounceOwnership",
      "outputs": [],
      "stateMutability": "nonpayable",
      "type": "function"
    },
    {
      "inputs": [
        {
          "internalType": "bytes32",
          "name": "role",
          "type": "bytes32"
        },
        {
          "internalType": "address",
          "name": "account",
          "type": "address"
        }
      ],
      "name": "renounceRole",
      "outputs": [],
      "stateMutability": "nonpayable",
      "type": "function"
    },
    {
      "inputs": [
        {
          "internalType": "bytes32",
          "name": "role",
          "type": "bytes32"
        },
        {
          "internalType": "address",
          "name": "account",
          "type": "address"
        }
      ],
      "name": "revokeRole",
      "outputs": [],
      "stateMutability": "nonpayable",
      "type": "function"
    },
    {
      "inputs": [
        {
          "internalType": "address",
          "name": "to",
          "type": "address"
        }
      ],
      "name": "safeMint",
      "outputs": [
        {
          "internalType": "uint256",
          "name": "",
          "type": "uint256"
        }
      ],
      "stateMutability": "nonpayable",
      "type": "function"
    },
    {
      "inputs": [
        {
          "internalType": "address",
          "name": "to",
          "type": "address"
        },
        {
          "internalType": "string",
          "name": "uri",
          "type": "string"
        }
      ],
      "name": "safeMintWithURI",
      "outputs": [
        {
          "internalType": "uint256",
          "name": "",
          "type": "uint256"
        }
      ],
      "stateMutability": "nonpayable",
      "type": "function"
    },
    {
      "inputs": [
        {
          "internalType": "address",
          "name": "from",
          "type": "address"
        },
        {
          "internalType": "address",
          "name": "to",
          "type": "address"
        },
        {
          "internalType": "uint256",
          "name": "tokenId",
          "type": "uint256"
        }
      ],
      "name": "safeTransferFrom",
      "outputs": [],
      "stateMutability": "nonpayable",
      "type": "function"
    },
    {
      "inputs": [
        {
          "internalType": "address",
          "name": "from",
          "type": "address"
        },
        {
          "internalType": "address",
          "name": "to",
          "type": "address"
        },
        {
          "internalType": "uint256",
          "name": "tokenId",
          "type": "uint256"
        },
        {
          "internalType": "bytes",
          "name": "data",
          "type": "bytes"
        }
      ],
      "name": "safeTransferFrom",
      "outputs": [],
      "stateMutability": "nonpayable",
      "type": "function"
    },
    {
      "inputs": [
        {
          "internalType": "address",
          "name": "from",
          "type": "address"
        },
        {
          "internalType": "address",
          "name": "to",
          "type": "address"
        },
        {
          "internalType": "uint256",
          "name": "tokenId",
          "type": "uint256"
        }
      ],
      "name": "safeTransfersFrom",
      "outputs": [],
      "stateMutability": "nonpayable",
      "type": "function"
    },
    {
      "inputs": [
        {
          "internalType": "address",
          "name": "operator",
          "type": "address"
        },
        {
          "internalType": "bool",
          "name": "approved",
          "type": "bool"
        }
      ],
      "name": "setApprovalForAll",
      "outputs": [],
      "stateMutability": "nonpayable",
      "type": "function"
    },
    {
      "inputs": [
        {
          "internalType": "string",
          "name": "baseURI",
          "type": "string"
        }
      ],
      "name": "setBaseURI",
      "outputs": [],
      "stateMutability": "nonpayable",
      "type": "function"
    },
    {
      "inputs": [
        {
          "internalType": "uint256",
          "name": "tokenId",
          "type": "uint256"
        },
        {
          "internalType": "string",
          "name": "uri",
          "type": "string"
        }
      ],
      "name": "setTokenURI",
      "outputs": [],
      "stateMutability": "nonpayable",
      "type": "function"
    },
    {
      "inputs": [
        {
          "internalType": "bytes4",
          "name": "interfaceId",
          "type": "bytes4"
        }
      ],
      "name": "supportsInterface",
      "outputs": [
        {
          "internalType": "bool",
          "name": "",
          "type": "bool"
        }
      ],
      "stateMutability": "view",
      "type": "function"
    },
    {
      "inputs": [],
      "name": "symbol",
      "outputs": [
        {
          "internalType": "string",
          "name": "",
          "type": "string"
        }
      ],
      "stateMutability": "view",
      "type": "function"
    },
    {
      "inputs": [
        {
          "internalType": "uint256",
          "name": "index",
          "type": "uint256"
        }
      ],
      "name": "tokenByIndex",
      "outputs": [
        {
          "internalType": "uint256",
          "name": "",
          "type": "uint256"
        }
      ],
      "stateMutability": "view",
      "type": "function"
    },
    {
      "inputs": [
        {
          "internalType": "address",
          "name": "owner",
          "type": "address"
        },
        {
          "internalType": "uint256",
          "name": "index",
          "type": "uint256"
        }
      ],
      "name": "tokenOfOwnerByIndex",
      "outputs": [
        {
          "internalType": "uint256",
          "name": "",
          "type": "uint256"
        }
      ],
      "stateMutability": "view",
      "type": "function"
    },
    {
      "inputs": [
        {
          "internalType": "uint256",
          "name": "tokenId",
          "type": "uint256"
        }
      ],
      "name": "tokenURI",
      "outputs": [
        {
          "internalType": "string",
          "name": "",
          "type": "string"
        }
      ],
      "stateMutability": "view",
      "type": "function"
    },
    {
      "inputs": [],
      "name": "totalSupply",
      "outputs": [
        {
          "internalType": "uint256",
          "name": "",
          "type": "uint256"
        }
      ],
      "stateMutability": "view",
      "type": "function"
    },
    {
      "inputs": [
        {
          "internalType": "address",
          "name": "from",
          "type": "address"
        },
        {
          "internalType": "address",
          "name": "to",
          "type": "address"
        },
        {
          "internalType": "uint256",
          "name": "tokenId",
          "type": "uint256"
        }
      ],
      "name": "transferFrom",
      "outputs": [],
      "stateMutability": "nonpayable",
      "type": "function"
    },
    {
      "inputs": [
        {
          "internalType": "address",
          "name": "newOwner",
          "type": "address"
        }
      ],
      "name": "transferOwnership",
      "outputs": [],
      "stateMutability": "nonpayable",
      "type": "function"
    },
    {
      "inputs": [],
      "name": "unpause",
      "outputs": [],
      "stateMutability": "nonpayable",
      "type": "function"
    }
  ],
  "bytecode": "0x608060405234801561001057600080fd5b50336040518060400160405280601281526020017f537472617461466f7267652045524337323100000000000000000000000000008152506040518060400160405280600581526020017f5346373231000000000000000000000000000000000000000000000000000000815250816000908161008d919061043d565b50806001908161009d919061043d565b505050600073ffffffffffffffffffffffffffffffffffffffff168173ffffffffffffffffffffffffffffffffffffffff16036101125760006040517f1e4fbdf70000000000000000000000000000000000000000000000000000000081526004016101099190610550565b60405180910390fd5b6101218161012760201b60201c565b5061056b565b6000600c60009054906101000a900473ffffffffffffffffffffffffffffffffffffffff16905081600c60006101000a81548173ffffffffffffffffffffffffffffffffffffffff021916908373ffffffffffffffffffffffffffffffffffffffff1602179055508173ffffffffffffffffffffffffffffffffffffffff168173ffffffffffffffffffffffffffffffffffffffff167f8be0079c531659141344cd1fd0a4f28419497f9722a3daafe3b4186f6b6457e060405160405180910390a35050565b600081519050919050565b7f4e487b7100000000000000000000000000000000000000000000000000000000600052604160045260246000fd5b7f4e487b7100000000000000000000000000000000000000000000000000000000600052602260045260246000fd5b6000600282049050600182168061026e57607f821691505b60208210810361028157610280610227565b5b50919050565b60008190508160005260206000209050919050565b60006020601f8301049050919050565b600082821b905092915050565b6000600883026102e97fffffffffffffffffffffffffffffffffffffffffffffffffffffffffffffffff826102ac565b6102f386836102ac565b95508019841693508086168417925050509392505050565b6000819050919050565b6000819050919050565b600061033a6103356103308461030b565b610315565b61030b565b9050919050565b6000819050919050565b6103548361031f565b61036861036082610341565b8484546102b9565b825550505050565b600090565b61037d610370565b61038881848461034b565b505050565b5b818110156103ac576103a1600082610375565b60018101905061038e565b5050565b601f8211156103f1576103c281610287565b6103cb8461029c565b810160208510156103da578190505b6103ee6103e68561029c565b83018261038d565b50505b505050565b600082821c905092915050565b6000610414600019846008026103f6565b1980831691505092915050565b600061042d8383610403565b9150826002028217905092915050565b610446826101ed565b67ffffffffffffffff81111561045f5761045e6101f8565b5b6104698254610256565b6104748282856103b0565b600060209050601f8311600181146104a75760008415610495578287015190505b61049f8582610421565b865550610507565b601f1984166104b586610287565b60005b828110156104dd578489015182556001820191506020850194506020810190506104b8565b868310156104fa57848901516104f6601f891682610403565b8355505b6001600288020188555050505b505050505050565b600073ffffffffffffffffffffffffffffffffffffffff82169050919050565b600061053a8261050f565b9050919050565b61054a8161052f565b82525050565b60006020820190506105656000830184610541565b92915050565b6159708061057a6000396000f3fe608060405234801561001057600080fd5b506004361061025e5760003560e01c80636352211e1161014657806395d89b41116100c3578063cac6b1b711610087578063cac6b1b714610731578063d539139314610761578063d547741f1461077f578063e63ab1e91461079b578063e985e9c5146107b9578063f2fde38b146107e95761025e565b806395d89b411461068d578063a217fddf146106ab578063a22cb465146106c9578063b88d4fde146106e5578063c87b56dd146107015761025e565b80637f3457101161010a5780637f345710146105fb5780638456cb5914610619578063851f0b16146106235780638da5cb5b1461063f57806391d148541461065d5761025e565b80636352211e146105435780636a627842146105735780636d8f4b55146105a357806370a08231146105c1578063715018a6146105f15761025e565b80632f2ff15d116101df57806342842e0e116101a357806342842e0e1461048557806342966c68146104a15780634f6ccce7146104bd57806354e10b48146104ed57806355f804b3146105095780635c975abb146105255761025e565b80632f2ff15d146103e35780632f745c59146103ff57806336568abe1461042f5780633f4ba83a1461044b57806340d097c3146104555761025e565b80630e980602116102265780630e9806021461032d578063162094c41461035d57806318160ddd1461037957806323b872dd14610397578063248a9ca3146103b35761025e565b806301ffc9a71461026357806306fdde0314610293578063081812fc146102b157806308842480146102e1578063095ea7b314610311575b600080fd5b61027d60048036038101906102789190614938565b610805565b60405161028a9190614980565b60405180910390f35b61029b610817565b6040516102a89190614a2b565b60405180910390f35b6102cb60048036038101906102c69190614a83565b6108a9565b6040516102d89190614af1565b60405180910390f35b6102fb60048036038101906102f69190614938565b6108c5565b6040516103089190614980565b60405180910390f35b61032b60048036038101906103269190614b38565b6108e5565b005b61034760048036038101906103429190614cad565b6109a8565b6040516103549190614d18565b60405180910390f35b61037760048036038101906103729190614d33565b610aab565b005b610381610b99565b60405161038e9190614d18565b60405180910390f35b6103b160048036038101906103ac9190614d8f565b610ba6565b005b6103cd60048036038101906103c89190614e18565b610c6b565b6040516103da9190614e54565b60405180910390f35b6103fd60048036038101906103f89190614e6f565b610c8b565b005b61041960048036038101906104149190614b38565b610d4e565b6040516104269190614d18565b60405180910390f35b61044960048036038101906104449190614e6f565b610df7565b005b610453610eba565b005b61046f600480360381019061046a9190614eaf565b610fa4565b60405161047c9190614d18565b60405180910390f35b61049f600480360381019061049a9190614d8f565b6110b8565b005b6104bb60048036038101906104b69190614a83565b6110d8565b005b6104d760048036038101906104d29190614a83565b611199565b6040516104e49190614d18565b60405180910390f35b61050760048036038101906105029190614fd0565b61120f565b005b610523600480360381019061051e919061508b565b611515565b005b61052d611608565b60405161053a9190614980565b60405180910390f35b61055d60048036038101906105589190614a83565b61161f565b60405161056a9190614af1565b60405180910390f35b61058d60048036038101906105889190614eaf565b611631565b60405161059a9190614d18565b60405180910390f35b6105ab611745565b6040516105b89190615192565b60405180910390f35b6105db60048036038101906105d69190614eaf565b611861565b6040516105e89190614d18565b60405180910390f35b6105f961191b565b005b6106036119da565b6040516106109190614e54565b60405180910390f35b6106216119fe565b005b61063d60048036038101906106389190614d8f565b611ae8565b005b610647611bad565b6040516106549190614af1565b60405180910390f35b61067760048036038101906106729190614e6f565b611bd7565b6040516106849190614980565b60405180910390f35b610695611c42565b6040516106a29190614a2b565b60405180910390f35b6106b3611cd4565b6040516106c09190614e54565b60405180910390f35b6106e360048036038101906106de91906151b4565b611cdb565b005b6106ff60048036038101906106fa9190615295565b611d9e565b005b61071b60048036038101906107169190614a83565b611e65565b6040516107289190614a2b565b60405180910390f35b61074b60048036038101906107469190614cad565b611e77565b6040516107589190614d18565b60405180910390f35b610769611f7a565b6040516107769190614e54565b60405180910390f35b61079960048036038101906107949190614e6f565b611f9e565b005b6107a3612061565b6040516107b09190614e54565b60405180910390f35b6107d360048036038101906107ce9190615318565b612085565b6040516107e09190614980565b60405180910390f35b61080360048036038101906107fe9190614eaf565b612119565b005b6000610810826121da565b9050919050565b60606012805461082690615387565b80601f016020809104026020016040519081016040528092919081815260200182805461085290615387565b801561089f5780601f106108745761010080835404028352916020019161089f565b820191906000526020600020905b81548152906001019060200180831161088257829003601f168201915b5050505050905090565b60006108b482612254565b506108be826122dc565b9050919050565b600f6020528060005260406000206000915054906101000a900460ff1681565b600f60007f095ea7b334ae44009aa867bfb386f5c3b4b443ac6f0ee573fa91c4608fbadfba7bffffffffffffffffffffffffffffffffffffffffffffffffffffffff19167bffffffffffffffffffffffffffffffffffffffffffffffffffffffff1916815260200190815260200160002060009054906101000a900460ff1661099a576040517f47a0378200000000000000000000000000000000000000000000000000000000815260040160405180910390fd5b6109a48282612319565b5050565b60007f9f2df0fed2c77648de5860a4cc508cd0818c85b8b8a1ab4ceeef8d981c8956a66109d48161232f565b600f60007f0e980602e9446de990a5da7eb77209ff12e0d738554cdeb3605fba4b0bcf41ce7bffffffffffffffffffffffffffffffffffffffffffffffffffffffff19167bffffffffffffffffffffffffffffffffffffffffffffffffffffffff1916815260200190815260200160002060009054906101000a900460ff16610a89576040517f47a0378200000000000000000000000000000000000000000000000000000000815260040160405180910390fd5b6000610a9485611631565b9050610aa08185612343565b809250505092915050565b7f7804d923f43a17d325d77e781528e0793b2edd9890ab45fc64efd7b4b427744c610ad58161232f565b600f60007f162094c41f9e614fbfeee6783490985e82953e56e0c70ba6d6e2c64564e7749b7bffffffffffffffffffffffffffffffffffffffffffffffffffffffff19167bffffffffffffffffffffffffffffffffffffffffffffffffffffffff1916815260200190815260200160002060009054906101000a900460ff16610b8a576040517f47a0378200000000000000000000000000000000000000000000000000000000815260040160405180910390fd5b610b948383612343565b505050565b6000600a80549050905090565b600f60007f23b872dd7302113369cda2901243429419bec145408fa8b352b3dd92b66c680b7bffffffffffffffffffffffffffffffffffffffffffffffffffffffff19167bffffffffffffffffffffffffffffffffffffffffffffffffffffffff1916815260200190815260200160002060009054906101000a900460ff16610c5b576040517f47a0378200000000000000000000000000000000000000000000000000000000815260040160405180910390fd5b610c6683838361239f565b505050565b6000600d6000838152602001908152602001600020600101549050919050565b600f60007f2f2ff15deca029b64bbc0874ae59c8f39be024a95aa718b4c13ca407db350be87bffffffffffffffffffffffffffffffffffffffffffffffffffffffff19167bffffffffffffffffffffffffffffffffffffffffffffffffffffffff1916815260200190815260200160002060009054906101000a900460ff16610d40576040517f47a0378200000000000000000000000000000000000000000000000000000000815260040160405180910390fd5b610d4a82826124a1565b5050565b6000610d5983611861565b8210610d9e5782826040517fa57d13dc000000000000000000000000000000000000000000000000000000008152600401610d959291906153b8565b60405180910390fd5b600860008473ffffffffffffffffffffffffffffffffffffffff1673ffffffffffffffffffffffffffffffffffffffff168152602001908152602001600020600083815260200190815260200160002054905092915050565b600f60007f36568abe2c7e6c1d662bad0fe1760ac72cf2f9478a86be824d68ec83895c49e97bffffffffffffffffffffffffffffffffffffffffffffffffffffffff19167bffffffffffffffffffffffffffffffffffffffffffffffffffffffff1916815260200190815260200160002060009054906101000a900460ff16610eac576040517f47a0378200000000000000000000000000000000000000000000000000000000815260040160405180910390fd5b610eb682826124c3565b5050565b7f65d7a28e3265b37a6474929f336521b332c1681b933f6cb9f3376673440d862a610ee48161232f565b600f60007f8456cb591a934d53f6ccc6332123a165a1f3562907bf11330d847a29ca49eb897bffffffffffffffffffffffffffffffffffffffffffffffffffffffff19167bffffffffffffffffffffffffffffffffffffffffffffffffffffffff1916815260200190815260200160002060009054906101000a900460ff16610f99576040517f47a0378200000000000000000000000000000000000000000000000000000000815260040160405180910390fd5b610fa161253e565b50565b60007f9f2df0fed2c77648de5860a4cc508cd0818c85b8b8a1ab4ceeef8d981c8956a6610fd08161232f565b600f60007f40d097c382b591673b467571d8f459d22c3de98978999db3e51120bb4bfc55f87bffffffffffffffffffffffffffffffffffffffffffffffffffffffff19167bffffffffffffffffffffffffffffffffffffffffffffffffffffffff1916815260200190815260200160002060009054906101000a900460ff16611085576040517f47a0378200000000000000000000000000000000000000000000000000000000815260040160405180910390fd5b6010600081548092919061109890615410565b9190505550600060105490506110ae84826125a1565b8092505050919050565b6110d383838360405180602001604052806000815250611d9e565b505050565b600f60007f42966c689b5afe9b9b3f8a7103b2a19980d59629bfd6a20a60972312ed41d8367bffffffffffffffffffffffffffffffffffffffffffffffffffffffff19167bffffffffffffffffffffffffffffffffffffffffffffffffffffffff1916815260200190815260200160002060009054906101000a900460ff1661118d576040517f47a0378200000000000000000000000000000000000000000000000000000000815260040160405180910390fd5b611196816125bf565b50565b60006111a3610b99565b82106111e9576000826040517fa57d13dc0000000000000000000000000000000000000000000000000000000081526004016111e09291906153b8565b60405180910390fd5b600a82815481106111fd576111fc615458565b5b90600052602060002001549050919050565b600e60009054906101000a900460ff1615611256576040517f0dc149f000000000000000000000000000000000000000000000000000000000815260040160405180910390fd5b6001600e60006101000a81548160ff02191690831515021790555083601290816112809190615633565b5082601390816112909190615633565b5061129a826125d6565b6112a76000801b8361269c565b506112d27f9f2df0fed2c77648de5860a4cc508cd0818c85b8b8a1ab4ceeef8d981c8956a68361269c565b506112fd7f65d7a28e3265b37a6474929f336521b332c1681b933f6cb9f3376673440d862a8361269c565b506113287f7804d923f43a17d325d77e781528e0793b2edd9890ab45fc64efd7b4b427744c8361269c565b50600061133361278e565b905060005b815181101561147e5782518110156113ec5782818151811061135d5761135c615458565b5b6020026020010151600f600084848151811061137c5761137b615458565b5b60200260200101517bffffffffffffffffffffffffffffffffffffffffffffffffffffffff19167bffffffffffffffffffffffffffffffffffffffffffffffffffffffff1916815260200190815260200160002060006101000a81548160ff021916908315150217905550611471565b6000600f600084848151811061140557611404615458565b5b60200260200101517bffffffffffffffffffffffffffffffffffffffffffffffffffffffff19167bffffffffffffffffffffffffffffffffffffffffffffffffffffffff1916815260200190815260200160002060006101000a81548160ff0219169083151502179055505b8080600101915050611338565b50600082510361150e576001600f6000836003815181106114a2576114a1615458565b5b60200260200101517bffffffffffffffffffffffffffffffffffffffffffffffffffffffff19167bffffffffffffffffffffffffffffffffffffffffffffffffffffffff1916815260200190815260200160002060006101000a81548160ff0219169083151502179055505b5050505050565b7f7804d923f43a17d325d77e781528e0793b2edd9890ab45fc64efd7b4b427744c61153f8161232f565b600f60007f55f804b373ab21b346f6f172ca5e118cfcad05163bcea59b35420499bf7e074b7bffffffffffffffffffffffffffffffffffffffffffffffffffffffff19167bffffffffffffffffffffffffffffffffffffffffffffffffffffffff1916815260200190815260200160002060009054906101000a900460ff166115f4576040517f47a0378200000000000000000000000000000000000000000000000000000000815260040160405180910390fd5b81601190816116039190615633565b505050565b6000600760009054906101000a900460ff16905090565b600061162a82612254565b9050919050565b60007f9f2df0fed2c77648de5860a4cc508cd0818c85b8b8a1ab4ceeef8d981c8956a661165d8161232f565b600f60007f6a627842f752de95745ef8f3ca67858982b5f585d752f8163e5855050041cb3c7bffffffffffffffffffffffffffffffffffffffffffffffffffffffff19167bffffffffffffffffffffffffffffffffffffffffffffffffffffffff1916815260200190815260200160002060009054906101000a900460ff16611712576040517f47a0378200000000000000000000000000000000000000000000000000000000815260040160405180910390fd5b6010600081548092919061172590615410565b91905055506000601054905061173b84826130f7565b8092505050919050565b6060600061175161278e565b90506000815167ffffffffffffffff8111156117705761176f614b82565b5b60405190808252806020026020018201604052801561179e5781602001602082028036833780820191505090505b50905060005b825181101561185857600f60008483815181106117c4576117c3615458565b5b60200260200101517bffffffffffffffffffffffffffffffffffffffffffffffffffffffff19167bffffffffffffffffffffffffffffffffffffffffffffffffffffffff1916815260200190815260200160002060009054906101000a900460ff1682828151811061183957611838615458565b5b60200260200101901515908115158152505080806001019150506117a4565b50809250505090565b60008073ffffffffffffffffffffffffffffffffffffffff168273ffffffffffffffffffffffffffffffffffffffff16036118d45760006040517f89c62b640000000000000000000000000000000000000000000000000000000081526004016118cb9190614af1565b60405180910390fd5b600360008373ffffffffffffffffffffffffffffffffffffffff1673ffffffffffffffffffffffffffffffffffffffff168152602001908152602001600020549050919050565b600f60007f715018a616b5f2044428f6fadb7deef4ce9ca76ef60ea57978964ad137bbe7ae7bffffffffffffffffffffffffffffffffffffffffffffffffffffffff19167bffffffffffffffffffffffffffffffffffffffffffffffffffffffff1916815260200190815260200160002060009054906101000a900460ff166119d0576040517f47a0378200000000000000000000000000000000000000000000000000000000815260040160405180910390fd5b6119d86131f0565b565b7f7804d923f43a17d325d77e781528e0793b2edd9890ab45fc64efd7b4b427744c81565b7f65d7a28e3265b37a6474929f336521b332c1681b933f6cb9f3376673440d862a611a288161232f565b600f60007f8456cb591a934d53f6ccc6332123a165a1f3562907bf11330d847a29ca49eb897bffffffffffffffffffffffffffffffffffffffffffffffffffffffff19167bffffffffffffffffffffffffffffffffffffffffffffffffffffffff1916815260200190815260200160002060009054906101000a900460ff16611add576040517f47a0378200000000000000000000000000000000000000000000000000000000815260040160405180910390fd5b611ae5613204565b50565b600f60007f851f0b1670c22ff413eec23cbfa17217fad03a17ded07369fdaccd755397ec8a7bffffffffffffffffffffffffffffffffffffffffffffffffffffffff19167bffffffffffffffffffffffffffffffffffffffffffffffffffffffff1916815260200190815260200160002060009054906101000a900460ff16611b9d576040517f47a0378200000000000000000000000000000000000000000000000000000000815260040160405180910390fd5b611ba88383836110b8565b505050565b6000600c60009054906101000a900473ffffffffffffffffffffffffffffffffffffffff16905090565b6000600d600084815260200190815260200160002060000160008373ffffffffffffffffffffffffffffffffffffffff1673ffffffffffffffffffffffffffffffffffffffff16815260200190815260200160002060009054906101000a900460ff16905092915050565b606060138054611c5190615387565b80601f0160208091040260200160405190810160405280929190818152602001828054611c7d90615387565b8015611cca5780601f10611c9f57610100808354040283529160200191611cca565b820191906000526020600020905b815481529060010190602001808311611cad57829003601f168201915b5050505050905090565b6000801b81565b600f60007fa22cb4651ab9570f89bb516380c40ce76762284fb1f21337ceaf6adab99e7d4a7bffffffffffffffffffffffffffffffffffffffffffffffffffffffff19167bffffffffffffffffffffffffffffffffffffffffffffffffffffffff1916815260200190815260200160002060009054906101000a900460ff16611d90576040517f47a0378200000000000000000000000000000000000000000000000000000000815260040160405180910390fd5b611d9a8282613267565b5050565b600f60007fb88d4fde60196325a28bb7f99a2582e0b46de55b18761e960c14ad7a320994657bffffffffffffffffffffffffffffffffffffffffffffffffffffffff19167bffffffffffffffffffffffffffffffffffffffffffffffffffffffff1916815260200190815260200160002060009054906101000a900460ff16611e53576040517f47a0378200000000000000000000000000000000000000000000000000000000815260040160405180910390fd5b611e5f8484848461327d565b50505050565b6060611e70826132a2565b9050919050565b60007f9f2df0fed2c77648de5860a4cc508cd0818c85b8b8a1ab4ceeef8d981c8956a6611ea38161232f565b600f60007fcac6b1b7cb0685f0368834016f44b1cf01a30220beaefbc22a9e37c284af94b67bffffffffffffffffffffffffffffffffffffffffffffffffffffffff19167bffffffffffffffffffffffffffffffffffffffffffffffffffffffff1916815260200190815260200160002060009054906101000a900460ff16611f58576040517f47a0378200000000000000000000000000000000000000000000000000000000815260040160405180910390fd5b6000611f6385610fa4565b9050611f6f8185612343565b809250505092915050565b7f9f2df0fed2c77648de5860a4cc508cd0818c85b8b8a1ab4ceeef8d981c8956a681565b600f60007fd547741fd8d55981251e167708119763c372f2b41e85a1468b0a759b055a009f7bffffffffffffffffffffffffffffffffffffffffffffffffffffffff19167bffffffffffffffffffffffffffffffffffffffffffffffffffffffff1916815260200190815260200160002060009054906101000a900460ff16612053576040517f47a0378200000000000000000000000000000000000000000000000000000000815260040160405180910390fd5b61205d82826133b5565b5050565b7f65d7a28e3265b37a6474929f336521b332c1681b933f6cb9f3376673440d862a81565b6000600560008473ffffffffffffffffffffffffffffffffffffffff1673ffffffffffffffffffffffffffffffffffffffff16815260200190815260200160002060008373ffffffffffffffffffffffffffffffffffffffff1673ffffffffffffffffffffffffffffffffffffffff16815260200190815260200160002060009054906101000a900460ff16905092915050565b600f60007ff2fde38b092330466c661fc723d5289b90272a3e580e3187d1d7ef788506c5577bffffffffffffffffffffffffffffffffffffffffffffffffffffffff19167bffffffffffffffffffffffffffffffffffffffffffffffffffffffff1916815260200190815260200160002060009054906101000a900460ff166121ce576040517f47a0378200000000000000000000000000000000000000000000000000000000815260040160405180910390fd5b6121d7816133d7565b50565b60007f7965db0b000000000000000000000000000000000000000000000000000000007bffffffffffffffffffffffffffffffffffffffffffffffffffffffff1916827bffffffffffffffffffffffffffffffffffffffffffffffffffffffff1916148061224d575061224c8261345d565b5b9050919050565b600080612260836134d7565b9050600073ffffffffffffffffffffffffffffffffffffffff168173ffffffffffffffffffffffffffffffffffffffff16036122d357826040517f7e2732890000000000000000000000000000000000000000000000000000000081526004016122ca9190614d18565b60405180910390fd5b80915050919050565b60006004600083815260200190815260200160002060009054906101000a900473ffffffffffffffffffffffffffffffffffffffff169050919050565b61232b8282612326613514565b61351c565b5050565b6123408161233b613514565b61352e565b50565b806006600084815260200190815260200160002090816123639190615633565b507ff8e1a15aba9398e019f0b49df1a4fde98ee17ae345cb5f6b5e2c27f5033e8ce7826040516123939190614d18565b60405180910390a15050565b600073ffffffffffffffffffffffffffffffffffffffff168273ffffffffffffffffffffffffffffffffffffffff16036124115760006040517f64a0ae920000000000000000000000000000000000000000000000000000000081526004016124089190614af1565b60405180910390fd5b60006124258383612420613514565b61357f565b90508373ffffffffffffffffffffffffffffffffffffffff168173ffffffffffffffffffffffffffffffffffffffff161461249b578382826040517f64283d7b00000000000000000000000000000000000000000000000000000000815260040161249293929190615705565b60405180910390fd5b50505050565b6124aa82610c6b565b6124b38161232f565b6124bd838361269c565b50505050565b6124cb613514565b73ffffffffffffffffffffffffffffffffffffffff168173ffffffffffffffffffffffffffffffffffffffff161461252f576040517f6697b23200000000000000000000000000000000000000000000000000000000815260040160405180910390fd5b6125398282613595565b505050565b612546613688565b6000600760006101000a81548160ff0219169083151502179055507f5db9ee0a495bf2e6ff9c91a7834c1ba4fdd244a5e8aa4e537bd38aeae4b073aa61258a613514565b6040516125979190614af1565b60405180910390a1565b6125bb8282604051806020016040528060008152506136c8565b5050565b6125d26000826125cd613514565b61357f565b5050565b6000600c60009054906101000a900473ffffffffffffffffffffffffffffffffffffffff16905081600c60006101000a81548173ffffffffffffffffffffffffffffffffffffffff021916908373ffffffffffffffffffffffffffffffffffffffff1602179055508173ffffffffffffffffffffffffffffffffffffffff168173ffffffffffffffffffffffffffffffffffffffff167f8be0079c531659141344cd1fd0a4f28419497f9722a3daafe3b4186f6b6457e060405160405180910390a35050565b60006126a88383611bd7565b612783576001600d600085815260200190815260200160002060000160008473ffffffffffffffffffffffffffffffffffffffff1673ffffffffffffffffffffffffffffffffffffffff16815260200190815260200160002060006101000a81548160ff021916908315150217905550612720613514565b73ffffffffffffffffffffffffffffffffffffffff168273ffffffffffffffffffffffffffffffffffffffff16847f2f8788117e7eff1d82e926ec794901d17c78024a50270940304540a733656f0d60405160405180910390a460019050612788565b600090505b92915050565b60606000601267ffffffffffffffff8111156127ad576127ac614b82565b5b6040519080825280602002602001820160405280156127db5781602001602082028036833780820191505090505b5090507f6a627842f752de95745ef8f3ca67858982b5f585d752f8163e5855050041cb3c8160008151811061281357612812615458565b5b60200260200101907bffffffffffffffffffffffffffffffffffffffffffffffffffffffff191690817bffffffffffffffffffffffffffffffffffffffffffffffffffffffff1916815250507f0e980602e9446de990a5da7eb77209ff12e0d738554cdeb3605fba4b0bcf41ce8160018151811061289457612893615458565b5b60200260200101907bffffffffffffffffffffffffffffffffffffffffffffffffffffffff191690817bffffffffffffffffffffffffffffffffffffffffffffffffffffffff1916815250507f42966c689b5afe9b9b3f8a7103b2a19980d59629bfd6a20a60972312ed41d8368160028151811061291557612914615458565b5b60200260200101907bffffffffffffffffffffffffffffffffffffffffffffffffffffffff191690817bffffffffffffffffffffffffffffffffffffffffffffffffffffffff1916815250507f8456cb591a934d53f6ccc6332123a165a1f3562907bf11330d847a29ca49eb898160038151811061299657612995615458565b5b60200260200101907bffffffffffffffffffffffffffffffffffffffffffffffffffffffff191690817bffffffffffffffffffffffffffffffffffffffffffffffffffffffff1916815250507f55f804b373ab21b346f6f172ca5e118cfcad05163bcea59b35420499bf7e074b81600481518110612a1757612a16615458565b5b60200260200101907bffffffffffffffffffffffffffffffffffffffffffffffffffffffff191690817bffffffffffffffffffffffffffffffffffffffffffffffffffffffff1916815250507f095ea7b334ae44009aa867bfb386f5c3b4b443ac6f0ee573fa91c4608fbadfba81600581518110612a9857612a97615458565b5b60200260200101907bffffffffffffffffffffffffffffffffffffffffffffffffffffffff191690817bffffffffffffffffffffffffffffffffffffffffffffffffffffffff1916815250507f40d097c382b591673b467571d8f459d22c3de98978999db3e51120bb4bfc55f881600681518110612b1957612b18615458565b5b60200260200101907bffffffffffffffffffffffffffffffffffffffffffffffffffffffff191690817bffffffffffffffffffffffffffffffffffffffffffffffffffffffff1916815250507fcac6b1b7cb0685f0368834016f44b1cf01a30220beaefbc22a9e37c284af94b681600781518110612b9a57612b99615458565b5b60200260200101907bffffffffffffffffffffffffffffffffffffffffffffffffffffffff191690817bffffffffffffffffffffffffffffffffffffffffffffffffffffffff1916815250507fa22cb4651ab9570f89bb516380c40ce76762284fb1f21337ceaf6adab99e7d4a81600881518110612c1b57612c1a615458565b5b60200260200101907bffffffffffffffffffffffffffffffffffffffffffffffffffffffff191690817bffffffffffffffffffffffffffffffffffffffffffffffffffffffff1916815250507f23b872dd7302113369cda2901243429419bec145408fa8b352b3dd92b66c680b81600981518110612c9c57612c9b615458565b5b60200260200101907bffffffffffffffffffffffffffffffffffffffffffffffffffffffff191690817bffffffffffffffffffffffffffffffffffffffffffffffffffffffff1916815250507f851f0b1670c22ff413eec23cbfa17217fad03a17ded07369fdaccd755397ec8a81600a81518110612d1d57612d1c615458565b5b60200260200101907bffffffffffffffffffffffffffffffffffffffffffffffffffffffff191690817bffffffffffffffffffffffffffffffffffffffffffffffffffffffff1916815250507fb88d4fde60196325a28bb7f99a2582e0b46de55b18761e960c14ad7a3209946581600b81518110612d9e57612d9d615458565b5b60200260200101907bffffffffffffffffffffffffffffffffffffffffffffffffffffffff191690817bffffffffffffffffffffffffffffffffffffffffffffffffffffffff1916815250507f162094c41f9e614fbfeee6783490985e82953e56e0c70ba6d6e2c64564e7749b81600c81518110612e1f57612e1e615458565b5b60200260200101907bffffffffffffffffffffffffffffffffffffffffffffffffffffffff191690817bffffffffffffffffffffffffffffffffffffffffffffffffffffffff1916815250507f2f2ff15deca029b64bbc0874ae59c8f39be024a95aa718b4c13ca407db350be881600d81518110612ea057612e9f615458565b5b60200260200101907bffffffffffffffffffffffffffffffffffffffffffffffffffffffff191690817bffffffffffffffffffffffffffffffffffffffffffffffffffffffff1916815250507fd547741fd8d55981251e167708119763c372f2b41e85a1468b0a759b055a009f81600e81518110612f2157612f20615458565b5b60200260200101907bffffffffffffffffffffffffffffffffffffffffffffffffffffffff191690817bffffffffffffffffffffffffffffffffffffffffffffffffffffffff1916815250507f36568abe2c7e6c1d662bad0fe1760ac72cf2f9478a86be824d68ec83895c49e981600f81518110612fa257612fa1615458565b5b60200260200101907bffffffffffffffffffffffffffffffffffffffffffffffffffffffff191690817bffffffffffffffffffffffffffffffffffffffffffffffffffffffff1916815250507ff2fde38b092330466c661fc723d5289b90272a3e580e3187d1d7ef788506c5578160108151811061302357613022615458565b5b60200260200101907bffffffffffffffffffffffffffffffffffffffffffffffffffffffff191690817bffffffffffffffffffffffffffffffffffffffffffffffffffffffff1916815250507f715018a616b5f2044428f6fadb7deef4ce9ca76ef60ea57978964ad137bbe7ae816011815181106130a4576130a3615458565b5b60200260200101907bffffffffffffffffffffffffffffffffffffffffffffffffffffffff191690817bffffffffffffffffffffffffffffffffffffffffffffffffffffffff1916815250508091505090565b600073ffffffffffffffffffffffffffffffffffffffff168273ffffffffffffffffffffffffffffffffffffffff16036131695760006040517f64a0ae920000000000000000000000000000000000000000000000000000000081526004016131609190614af1565b60405180910390fd5b60006131778383600061357f565b9050600073ffffffffffffffffffffffffffffffffffffffff168173ffffffffffffffffffffffffffffffffffffffff16146131eb5760006040517f73c6ac6e0000000000000000000000000000000000000000000000000000000081526004016131e29190614af1565b60405180910390fd5b505050565b6131f86136ec565b61320260006125d6565b565b61320c613773565b6001600760006101000a81548160ff0219169083151502179055507f62e78cea01bee320cd4e420270b5ea74000d11b0c9f74754ebdbfc544b05a258613250613514565b60405161325d9190614af1565b60405180910390a1565b613279613272613514565b83836137b4565b5050565b613288848484610ba6565b61329c613293613514565b85858585613923565b50505050565b60606132ad82612254565b5060006006600084815260200190815260200160002080546132ce90615387565b80601f01602080910402602001604051908101604052809291908181526020018280546132fa90615387565b80156133475780601f1061331c57610100808354040283529160200191613347565b820191906000526020600020905b81548152906001019060200180831161332a57829003601f168201915b505050505090506000613358613ad4565b9050600081510361336d5781925050506133b0565b6000825111156133a257808260405160200161338a929190615778565b604051602081830303815290604052925050506133b0565b6133ab84613b66565b925050505b919050565b6133be82610c6b565b6133c78161232f565b6133d18383613595565b50505050565b6133df6136ec565b600073ffffffffffffffffffffffffffffffffffffffff168173ffffffffffffffffffffffffffffffffffffffff16036134515760006040517f1e4fbdf70000000000000000000000000000000000000000000000000000000081526004016134489190614af1565b60405180910390fd5b61345a816125d6565b50565b60007f780e9d63000000000000000000000000000000000000000000000000000000007bffffffffffffffffffffffffffffffffffffffffffffffffffffffff1916827bffffffffffffffffffffffffffffffffffffffffffffffffffffffff191614806134d057506134cf82613bcf565b5b9050919050565b60006002600083815260200190815260200160002060009054906101000a900473ffffffffffffffffffffffffffffffffffffffff169050919050565b600033905090565b6135298383836001613c30565b505050565b6135388282611bd7565b61357b5780826040517fe2517d3f00000000000000000000000000000000000000000000000000000000815260040161357292919061579c565b60405180910390fd5b5050565b600061358c848484613df5565b90509392505050565b60006135a18383611bd7565b1561367d576000600d600085815260200190815260200160002060000160008473ffffffffffffffffffffffffffffffffffffffff1673ffffffffffffffffffffffffffffffffffffffff16815260200190815260200160002060006101000a81548160ff02191690831515021790555061361a613514565b73ffffffffffffffffffffffffffffffffffffffff168273ffffffffffffffffffffffffffffffffffffffff16847ff6391f5c32d9c69d2a47ea670b442974b53935d1edc7fd64eb21e047a839171b60405160405180910390a460019050613682565b600090505b92915050565b613690611608565b6136c6576040517f8dfc202b00000000000000000000000000000000000000000000000000000000815260040160405180910390fd5b565b6136d283836130f7565b6136e76136dd613514565b6000858585613923565b505050565b6136f4613514565b73ffffffffffffffffffffffffffffffffffffffff16613712611bad565b73ffffffffffffffffffffffffffffffffffffffff161461377157613735613514565b6040517f118cdaa70000000000000000000000000000000000000000000000000000000081526004016137689190614af1565b60405180910390fd5b565b61377b611608565b156137b2576040517fd93c066500000000000000000000000000000000000000000000000000000000815260040160405180910390fd5b565b600073ffffffffffffffffffffffffffffffffffffffff168273ffffffffffffffffffffffffffffffffffffffff160361382557816040517f5b08ba1800000000000000000000000000000000000000000000000000000000815260040161381c9190614af1565b60405180910390fd5b80600560008573ffffffffffffffffffffffffffffffffffffffff1673ffffffffffffffffffffffffffffffffffffffff16815260200190815260200160002060008473ffffffffffffffffffffffffffffffffffffffff1673ffffffffffffffffffffffffffffffffffffffff16815260200190815260200160002060006101000a81548160ff0219169083151502179055508173ffffffffffffffffffffffffffffffffffffffff168373ffffffffffffffffffffffffffffffffffffffff167f17307eab39ab6107e8899845ad3d59bd9653f200f220920489ca2b5937696c31836040516139169190614980565b60405180910390a3505050565b60008373ffffffffffffffffffffffffffffffffffffffff163b1115613acd578273ffffffffffffffffffffffffffffffffffffffff1663150b7a02868685856040518563ffffffff1660e01b8152600401613982949392919061581a565b6020604051808303816000875af19250505080156139be57506040513d601f19601f820116820180604052508101906139bb919061587b565b60015b613a42573d80600081146139ee576040519150601f19603f3d011682016040523d82523d6000602084013e6139f3565b606091505b506000815103613a3a57836040517f64a0ae92000000000000000000000000000000000000000000000000000000008152600401613a319190614af1565b60405180910390fd5b805160208201fd5b63150b7a0260e01b7bffffffffffffffffffffffffffffffffffffffffffffffffffffffff1916817bffffffffffffffffffffffffffffffffffffffffffffffffffffffff191614613acb57836040517f64a0ae92000000000000000000000000000000000000000000000000000000008152600401613ac29190614af1565b60405180910390fd5b505b5050505050565b606060118054613ae390615387565b80601f0160208091040260200160405190810160405280929190818152602001828054613b0f90615387565b8015613b5c5780601f10613b3157610100808354040283529160200191613b5c565b820191906000526020600020905b815481529060010190602001808311613b3f57829003601f168201915b5050505050905090565b6060613b7182612254565b506000613b7c613ad4565b90506000815111613b9c5760405180602001604052806000815250613bc7565b80613ba684613f12565b604051602001613bb7929190615778565b6040516020818303038152906040525b915050919050565b6000634906490660e01b7bffffffffffffffffffffffffffffffffffffffffffffffffffffffff1916827bffffffffffffffffffffffffffffffffffffffffffffffffffffffff19161480613c295750613c2882613fe0565b5b9050919050565b8080613c695750600073ffffffffffffffffffffffffffffffffffffffff168273ffffffffffffffffffffffffffffffffffffffff1614155b15613d9d576000613c7984612254565b9050600073ffffffffffffffffffffffffffffffffffffffff168373ffffffffffffffffffffffffffffffffffffffff1614158015613ce457508273ffffffffffffffffffffffffffffffffffffffff168173ffffffffffffffffffffffffffffffffffffffff1614155b8015613cf75750613cf58184612085565b155b15613d3957826040517fa9fbf51f000000000000000000000000000000000000000000000000000000008152600401613d309190614af1565b60405180910390fd5b8115613d9b57838573ffffffffffffffffffffffffffffffffffffffff168273ffffffffffffffffffffffffffffffffffffffff167f8c5be1e5ebec7d5bd14f71427d1e84f3dd0314c0f7b2291e5b200ac8c7c3b92560405160405180910390a45b505b836004600085815260200190815260200160002060006101000a81548173ffffffffffffffffffffffffffffffffffffffff021916908373ffffffffffffffffffffffffffffffffffffffff16021790555050505050565b600080613e038585856140c2565b9050600073ffffffffffffffffffffffffffffffffffffffff168173ffffffffffffffffffffffffffffffffffffffff1603613e4757613e42846140e0565b613e86565b8473ffffffffffffffffffffffffffffffffffffffff168173ffffffffffffffffffffffffffffffffffffffff1614613e8557613e848185614129565b5b5b600073ffffffffffffffffffffffffffffffffffffffff168573ffffffffffffffffffffffffffffffffffffffff1603613ec857613ec384614214565b613f07565b8473ffffffffffffffffffffffffffffffffffffffff168173ffffffffffffffffffffffffffffffffffffffff1614613f0657613f0585856142e5565b5b5b809150509392505050565b606060006001613f2184614370565b01905060008167ffffffffffffffff811115613f4057613f3f614b82565b5b6040519080825280601f01601f191660200182016040528015613f725781602001600182028036833780820191505090505b509050600082602083010190505b600115613fd5578080600190039150507f3031323334353637383961626364656600000000000000000000000000000000600a86061a8153600a8581613fc957613fc86158a8565b5b04945060008503613f80575b819350505050919050565b60007f80ac58cd000000000000000000000000000000000000000000000000000000007bffffffffffffffffffffffffffffffffffffffffffffffffffffffff1916827bffffffffffffffffffffffffffffffffffffffffffffffffffffffff191614806140ab57507f5b5e139f000000000000000000000000000000000000000000000000000000007bffffffffffffffffffffffffffffffffffffffffffffffffffffffff1916827bffffffffffffffffffffffffffffffffffffffffffffffffffffffff1916145b806140bb57506140ba826144c3565b5b9050919050565b60006140cc613773565b6140d784848461452d565b90509392505050565b600a80549050600b600083815260200190815260200160002081905550600a81908060018154018082558091505060019003906000526020600020016000909190919091505550565b600061413483611861565b90506000600960008481526020019081526020016000205490506000600860008673ffffffffffffffffffffffffffffffffffffffff1673ffffffffffffffffffffffffffffffffffffffff16815260200190815260200160002090508282146141e05760008160008581526020019081526020016000205490508082600085815260200190815260200160002081905550826009600083815260200190815260200160002081905550505b6009600085815260200190815260200160002060009055806000848152602001908152602001600020600090555050505050565b60006001600a8054905061422891906158d7565b90506000600b60008481526020019081526020016000205490506000600a838154811061425857614257615458565b5b9060005260206000200154905080600a838154811061427a57614279615458565b5b906000526020600020018190555081600b600083815260200190815260200160002081905550600b600085815260200190815260200160002060009055600a8054806142c9576142c861590b565b5b6001900381819060005260206000200160009055905550505050565b600060016142f284611861565b6142fc91906158d7565b905081600860008573ffffffffffffffffffffffffffffffffffffffff1673ffffffffffffffffffffffffffffffffffffffff168152602001908152602001600020600083815260200190815260200160002081905550806009600084815260200190815260200160002081905550505050565b600080600090507a184f03e93ff9f4daa797ed6e38ed64bf6a1f01000000000000000083106143ce577a184f03e93ff9f4daa797ed6e38ed64bf6a1f01000000000000000083816143c4576143c36158a8565b5b0492506040810190505b6d04ee2d6d415b85acef8100000000831061440b576d04ee2d6d415b85acef81000000008381614401576144006158a8565b5b0492506020810190505b662386f26fc10000831061443a57662386f26fc1000083816144305761442f6158a8565b5b0492506010810190505b6305f5e1008310614463576305f5e1008381614459576144586158a8565b5b0492506008810190505b612710831061448857612710838161447e5761447d6158a8565b5b0492506004810190505b606483106144ab57606483816144a1576144a06158a8565b5b0492506002810190505b600a83106144ba576001810190505b80915050919050565b60007f01ffc9a7000000000000000000000000000000000000000000000000000000007bffffffffffffffffffffffffffffffffffffffffffffffffffffffff1916827bffffffffffffffffffffffffffffffffffffffffffffffffffffffff1916149050919050565b600080614539846134d7565b9050600073ffffffffffffffffffffffffffffffffffffffff168373ffffffffffffffffffffffffffffffffffffffff161461457b5761457a818486614747565b5b600073ffffffffffffffffffffffffffffffffffffffff168173ffffffffffffffffffffffffffffffffffffffff161461460c576145bd600085600080613c30565b6001600360008373ffffffffffffffffffffffffffffffffffffffff1673ffffffffffffffffffffffffffffffffffffffff168152602001908152602001600020600082825403925050819055505b600073ffffffffffffffffffffffffffffffffffffffff168573ffffffffffffffffffffffffffffffffffffffff161461468f576001600360008773ffffffffffffffffffffffffffffffffffffffff1673ffffffffffffffffffffffffffffffffffffffff168152602001908152602001600020600082825401925050819055505b846002600086815260200190815260200160002060006101000a81548173ffffffffffffffffffffffffffffffffffffffff021916908373ffffffffffffffffffffffffffffffffffffffff160217905550838573ffffffffffffffffffffffffffffffffffffffff168273ffffffffffffffffffffffffffffffffffffffff167fddf252ad1be2c89b69c2b068fc378daa952ba7f163c4a11628f55a4df523b3ef60405160405180910390a4809150509392505050565b61475283838361480b565b61480657600073ffffffffffffffffffffffffffffffffffffffff168373ffffffffffffffffffffffffffffffffffffffff16036147c757806040517f7e2732890000000000000000000000000000000000000000000000000000000081526004016147be9190614d18565b60405180910390fd5b81816040517f177e802f0000000000000000000000000000000000000000000000000000000081526004016147fd9291906153b8565b60405180910390fd5b505050565b60008073ffffffffffffffffffffffffffffffffffffffff168373ffffffffffffffffffffffffffffffffffffffff16141580156148c357508273ffffffffffffffffffffffffffffffffffffffff168473ffffffffffffffffffffffffffffffffffffffff16148061488457506148838484612085565b5b806148c257508273ffffffffffffffffffffffffffffffffffffffff166148aa836122dc565b73ffffffffffffffffffffffffffffffffffffffff16145b5b90509392505050565b6000604051905090565b600080fd5b600080fd5b60007fffffffff0000000000000000000000000000000000000000000000000000000082169050919050565b614915816148e0565b811461492057600080fd5b50565b6000813590506149328161490c565b92915050565b60006020828403121561494e5761494d6148d6565b5b600061495c84828501614923565b91505092915050565b60008115159050919050565b61497a81614965565b82525050565b60006020820190506149956000830184614971565b92915050565b600081519050919050565b600082825260208201905092915050565b60005b838110156149d55780820151818401526020810190506149ba565b60008484015250505050565b6000601f19601f8301169050919050565b60006149fd8261499b565b614a0781856149a6565b9350614a178185602086016149b7565b614a20816149e1565b840191505092915050565b60006020820190508181036000830152614a4581846149f2565b905092915050565b6000819050919050565b614a6081614a4d565b8114614a6b57600080fd5b50565b600081359050614a7d81614a57565b92915050565b600060208284031215614a9957614a986148d6565b5b6000614aa784828501614a6e565b91505092915050565b600073ffffffffffffffffffffffffffffffffffffffff82169050919050565b6000614adb82614ab0565b9050919050565b614aeb81614ad0565b82525050565b6000602082019050614b066000830184614ae2565b92915050565b614b1581614ad0565b8114614b2057600080fd5b50565b600081359050614b3281614b0c565b92915050565b60008060408385031215614b4f57614b4e6148d6565b5b6000614b5d85828601614b23565b9250506020614b6e85828601614a6e565b9150509250929050565b600080fd5b600080fd5b7f4e487b7100000000000000000000000000000000000000000000000000000000600052604160045260246000fd5b614bba826149e1565b810181811067ffffffffffffffff82111715614bd957614bd8614b82565b5b80604052505050565b6000614bec6148cc565b9050614bf88282614bb1565b919050565b600067ffffffffffffffff821115614c1857614c17614b82565b5b614c21826149e1565b9050602081019050919050565b82818337600083830152505050565b6000614c50614c4b84614bfd565b614be2565b905082815260208101848484011115614c6c57614c6b614b7d565b5b614c77848285614c2e565b509392505050565b600082601f830112614c9457614c93614b78565b5b8135614ca4848260208601614c3d565b91505092915050565b60008060408385031215614cc457614cc36148d6565b5b6000614cd285828601614b23565b925050602083013567ffffffffffffffff811115614cf357614cf26148db565b5b614cff85828601614c7f565b9150509250929050565b614d1281614a4d565b82525050565b6000602082019050614d2d6000830184614d09565b92915050565b60008060408385031215614d4a57614d496148d6565b5b6000614d5885828601614a6e565b925050602083013567ffffffffffffffff811115614d7957614d786148db565b5b614d8585828601614c7f565b9150509250929050565b600080600060608486031215614da857614da76148d6565b5b6000614db686828701614b23565b9350506020614dc786828701614b23565b9250506040614dd886828701614a6e565b9150509250925092565b6000819050919050565b614df581614de2565b8114614e0057600080fd5b50565b600081359050614e1281614dec565b92915050565b600060208284031215614e2e57614e2d6148d6565b5b6000614e3c84828501614e03565b91505092915050565b614e4e81614de2565b82525050565b6000602082019050614e696000830184614e45565b92915050565b60008060408385031215614e8657614e856148d6565b5b6000614e9485828601614e03565b9250506020614ea585828601614b23565b9150509250929050565b600060208284031215614ec557614ec46148d6565b5b6000614ed384828501614b23565b91505092915050565b600067ffffffffffffffff821115614ef757614ef6614b82565b5b602082029050602081019050919050565b600080fd5b614f1681614965565b8114614f2157600080fd5b50565b600081359050614f3381614f0d565b92915050565b6000614f4c614f4784614edc565b614be2565b90508083825260208201905060208402830185811115614f6f57614f6e614f08565b5b835b81811015614f985780614f848882614f24565b845260208401935050602081019050614f71565b5050509392505050565b600082601f830112614fb757614fb6614b78565b5b8135614fc7848260208601614f39565b91505092915050565b60008060008060808587031215614fea57614fe96148d6565b5b600085013567ffffffffffffffff811115615008576150076148db565b5b61501487828801614c7f565b945050602085013567ffffffffffffffff811115615035576150346148db565b5b61504187828801614c7f565b935050604061505287828801614b23565b925050606085013567ffffffffffffffff811115615073576150726148db565b5b61507f87828801614fa2565b91505092959194509250565b6000602082840312156150a1576150a06148d6565b5b600082013567ffffffffffffffff8111156150bf576150be6148db565b5b6150cb84828501614c7f565b91505092915050565b600081519050919050565b600082825260208201905092915050565b6000819050602082019050919050565b61510981614965565b82525050565b600061511b8383615100565b60208301905092915050565b6000602082019050919050565b600061513f826150d4565b61514981856150df565b9350615154836150f0565b8060005b8381101561518557815161516c888261510f565b975061517783615127565b925050600181019050615158565b5085935050505092915050565b600060208201905081810360008301526151ac8184615134565b905092915050565b600080604083850312156151cb576151ca6148d6565b5b60006151d985828601614b23565b92505060206151ea85828601614f24565b9150509250929050565b600067ffffffffffffffff82111561520f5761520e614b82565b5b615218826149e1565b9050602081019050919050565b6000615238615233846151f4565b614be2565b90508281526020810184848401111561525457615253614b7d565b5b61525f848285614c2e565b509392505050565b600082601f83011261527c5761527b614b78565b5b813561528c848260208601615225565b91505092915050565b600080600080608085870312156152af576152ae6148d6565b5b60006152bd87828801614b23565b94505060206152ce87828801614b23565b93505060406152df87828801614a6e565b925050606085013567ffffffffffffffff811115615300576152ff6148db565b5b61530c87828801615267565b91505092959194509250565b6000806040838503121561532f5761532e6148d6565b5b600061533d85828601614b23565b925050602061534e85828601614b23565b9150509250929050565b7f4e487b7100000000000000000000000000000000000000000000000000000000600052602260045260246000fd5b6000600282049050600182168061539f57607f821691505b6020821081036153b2576153b1615358565b5b50919050565b60006040820190506153cd6000830185614ae2565b6153da6020830184614d09565b9392505050565b7f4e487b7100000000000000000000000000000000000000000000000000000000600052601160045260246000fd5b600061541b82614a4d565b91507fffffffffffffffffffffffffffffffffffffffffffffffffffffffffffffffff820361544d5761544c6153e1565b5b600182019050919050565b7f4e487b7100000000000000000000000000000000000000000000000000000000600052603260045260246000fd5b60008190508160005260206000209050919050565b60006020601f8301049050919050565b600082821b905092915050565b6000600883026154e97fffffffffffffffffffffffffffffffffffffffffffffffffffffffffffffffff826154ac565b6154f386836154ac565b95508019841693508086168417925050509392505050565b6000819050919050565b600061553061552b61552684614a4d565b61550b565b614a4d565b9050919050565b6000819050919050565b61554a83615515565b61555e61555682615537565b8484546154b9565b825550505050565b600090565b615573615566565b61557e818484615541565b505050565b5b818110156155a25761559760008261556b565b600181019050615584565b5050565b601f8211156155e7576155b881615487565b6155c18461549c565b810160208510156155d0578190505b6155e46155dc8561549c565b830182615583565b50505b505050565b600082821c905092915050565b600061560a600019846008026155ec565b1980831691505092915050565b600061562383836155f9565b9150826002028217905092915050565b61563c8261499b565b67ffffffffffffffff81111561565557615654614b82565b5b61565f8254615387565b61566a8282856155a6565b600060209050601f83116001811461569d576000841561568b578287015190505b6156958582615617565b8655506156fd565b601f1984166156ab86615487565b60005b828110156156d3578489015182556001820191506020850194506020810190506156ae565b868310156156f057848901516156ec601f8916826155f9565b8355505b6001600288020188555050505b505050505050565b600060608201905061571a6000830186614ae2565b6157276020830185614d09565b6157346040830184614ae2565b949350505050565b600081905092915050565b60006157528261499b565b61575c818561573c565b935061576c8185602086016149b7565b80840191505092915050565b60006157848285615747565b91506157908284615747565b91508190509392505050565b60006040820190506157b16000830185614ae2565b6157be6020830184614e45565b9392505050565b600081519050919050565b600082825260208201905092915050565b60006157ec826157c5565b6157f681856157d0565b93506158068185602086016149b7565b61580f816149e1565b840191505092915050565b600060808201905061582f6000830187614ae2565b61583c6020830186614ae2565b6158496040830185614d09565b818103606083015261585b81846157e1565b905095945050505050565b6000815190506158758161490c565b92915050565b600060208284031215615891576158906148d6565b5b600061589f84828501615866565b91505092915050565b7f4e487b7100000000000000000000000000000000000000000000000000000000600052601260045260246000fd5b60006158e282614a4d565b91506158ed83614a4d565b9250828203905081811115615905576159046153e1565b5b92915050565b7f4e487b7100000000000000000000000000000000000000000000000000000000600052603160045260246000fdfea2646970667358221220c6a70fd1801ab6f7934c404eb8aa34f2a42db591d67b51556aee3afe66fb620764736f6c634300081e0033",
  "linkReferences": {},
  "deployedLinkReferences": {}
}