{
  "_format": "hh-sol-artifact-1",
  "contractName": "StrataForgeERC1155Implementation",
  "sourceName": "contracts/StrataForgeTokenImplementation.sol",
  "abi": [
    {
      "inputs": [],
      "stateMutability": "nonpayable",
      "type": "constructor"
    },
    {
      "inputs": [],
      "name": "AccessControlBadConfirmation",
      "type": "error"
    },
    {
      "inputs": [
        {
          "internalType": "address",
          "name": "account",
          "type": "address"
        },
        {
          "internalType": "bytes32",
          "name": "neededRole",
          "type": "bytes32"
        }
      ],
      "name": "AccessControlUnauthorizedAccount",
      "type": "error"
    },
    {
      "inputs": [],
      "name": "AlreadyInitialized",
      "type": "error"
    },
    {
      "inputs": [
        {
          "internalType": "address",
          "name": "sender",
          "type": "address"
        },
        {
          "internalType": "uint256",
          "name": "balance",
          "type": "uint256"
        },
        {
          "internalType": "uint256",
          "name": "needed",
          "type": "uint256"
        },
        {
          "internalType": "uint256",
          "name": "tokenId",
          "type": "uint256"
        }
      ],
      "name": "ERC1155InsufficientBalance",
      "type": "error"
    },
    {
      "inputs": [
        {
          "internalType": "address",
          "name": "approver",
          "type": "address"
        }
      ],
      "name": "ERC1155InvalidApprover",
      "type": "error"
    },
    {
      "inputs": [
        {
          "internalType": "uint256",
          "name": "idsLength",
          "type": "uint256"
        },
        {
          "internalType": "uint256",
          "name": "valuesLength",
          "type": "uint256"
        }
      ],
      "name": "ERC1155InvalidArrayLength",
      "type": "error"
    },
    {
      "inputs": [
        {
          "internalType": "address",
          "name": "operator",
          "type": "address"
        }
      ],
      "name": "ERC1155InvalidOperator",
      "type": "error"
    },
    {
      "inputs": [
        {
          "internalType": "address",
          "name": "receiver",
          "type": "address"
        }
      ],
      "name": "ERC1155InvalidReceiver",
      "type": "error"
    },
    {
      "inputs": [
        {
          "internalType": "address",
          "name": "sender",
          "type": "address"
        }
      ],
      "name": "ERC1155InvalidSender",
      "type": "error"
    },
    {
      "inputs": [
        {
          "internalType": "address",
          "name": "operator",
          "type": "address"
        },
        {
          "internalType": "address",
          "name": "owner",
          "type": "address"
        }
      ],
      "name": "ERC1155MissingApprovalForAll",
      "type": "error"
    },
    {
      "inputs": [],
      "name": "EnforcedPause",
      "type": "error"
    },
    {
      "inputs": [],
      "name": "ExpectedPause",
      "type": "error"
    },
    {
      "inputs": [],
      "name": "FeatureNotEnabled",
      "type": "error"
    },
    {
      "inputs": [
        {
          "internalType": "address",
          "name": "owner",
          "type": "address"
        }
      ],
      "name": "OwnableInvalidOwner",
      "type": "error"
    },
    {
      "inputs": [
        {
          "internalType": "address",
          "name": "account",
          "type": "address"
        }
      ],
      "name": "OwnableUnauthorizedAccount",
      "type": "error"
    },
    {
      "anonymous": false,
      "inputs": [
        {
          "indexed": true,
          "internalType": "address",
          "name": "account",
          "type": "address"
        },
        {
          "indexed": true,
          "internalType": "address",
          "name": "operator",
          "type": "address"
        },
        {
          "indexed": false,
          "internalType": "bool",
          "name": "approved",
          "type": "bool"
        }
      ],
      "name": "ApprovalForAll",
      "type": "event"
    },
    {
      "anonymous": false,
      "inputs": [
        {
          "indexed": true,
          "internalType": "address",
          "name": "previousOwner",
          "type": "address"
        },
        {
          "indexed": true,
          "internalType": "address",
          "name": "newOwner",
          "type": "address"
        }
      ],
      "name": "OwnershipTransferred",
      "type": "event"
    },
    {
      "anonymous": false,
      "inputs": [
        {
          "indexed": false,
          "internalType": "address",
          "name": "account",
          "type": "address"
        }
      ],
      "name": "Paused",
      "type": "event"
    },
    {
      "anonymous": false,
      "inputs": [
        {
          "indexed": true,
          "internalType": "bytes32",
          "name": "role",
          "type": "bytes32"
        },
        {
          "indexed": true,
          "internalType": "bytes32",
          "name": "previousAdminRole",
          "type": "bytes32"
        },
        {
          "indexed": true,
          "internalType": "bytes32",
          "name": "newAdminRole",
          "type": "bytes32"
        }
      ],
      "name": "RoleAdminChanged",
      "type": "event"
    },
    {
      "anonymous": false,
      "inputs": [
        {
          "indexed": true,
          "internalType": "bytes32",
          "name": "role",
          "type": "bytes32"
        },
        {
          "indexed": true,
          "internalType": "address",
          "name": "account",
          "type": "address"
        },
        {
          "indexed": true,
          "internalType": "address",
          "name": "sender",
          "type": "address"
        }
      ],
      "name": "RoleGranted",
      "type": "event"
    },
    {
      "anonymous": false,
      "inputs": [
        {
          "indexed": true,
          "internalType": "bytes32",
          "name": "role",
          "type": "bytes32"
        },
        {
          "indexed": true,
          "internalType": "address",
          "name": "account",
          "type": "address"
        },
        {
          "indexed": true,
          "internalType": "address",
          "name": "sender",
          "type": "address"
        }
      ],
      "name": "RoleRevoked",
      "type": "event"
    },
    {
      "anonymous": false,
      "inputs": [
        {
          "indexed": true,
          "internalType": "address",
          "name": "operator",
          "type": "address"
        },
        {
          "indexed": true,
          "internalType": "address",
          "name": "from",
          "type": "address"
        },
        {
          "indexed": true,
          "internalType": "address",
          "name": "to",
          "type": "address"
        },
        {
          "indexed": false,
          "internalType": "uint256[]",
          "name": "ids",
          "type": "uint256[]"
        },
        {
          "indexed": false,
          "internalType": "uint256[]",
          "name": "values",
          "type": "uint256[]"
        }
      ],
      "name": "TransferBatch",
      "type": "event"
    },
    {
      "anonymous": false,
      "inputs": [
        {
          "indexed": true,
          "internalType": "address",
          "name": "operator",
          "type": "address"
        },
        {
          "indexed": true,
          "internalType": "address",
          "name": "from",
          "type": "address"
        },
        {
          "indexed": true,
          "internalType": "address",
          "name": "to",
          "type": "address"
        },
        {
          "indexed": false,
          "internalType": "uint256",
          "name": "id",
          "type": "uint256"
        },
        {
          "indexed": false,
          "internalType": "uint256",
          "name": "value",
          "type": "uint256"
        }
      ],
      "name": "TransferSingle",
      "type": "event"
    },
    {
      "anonymous": false,
      "inputs": [
        {
          "indexed": false,
          "internalType": "string",
          "name": "value",
          "type": "string"
        },
        {
          "indexed": true,
          "internalType": "uint256",
          "name": "id",
          "type": "uint256"
        }
      ],
      "name": "URI",
      "type": "event"
    },
    {
      "anonymous": false,
      "inputs": [
        {
          "indexed": false,
          "internalType": "address",
          "name": "account",
          "type": "address"
        }
      ],
      "name": "Unpaused",
      "type": "event"
    },
    {
      "inputs": [],
      "name": "DEFAULT_ADMIN_ROLE",
      "outputs": [
        {
          "internalType": "bytes32",
          "name": "",
          "type": "bytes32"
        }
      ],
      "stateMutability": "view",
      "type": "function"
    },
    {
      "inputs": [],
      "name": "MINTER_ROLE",
      "outputs": [
        {
          "internalType": "bytes32",
          "name": "",
          "type": "bytes32"
        }
      ],
      "stateMutability": "view",
      "type": "function"
    },
    {
      "inputs": [],
      "name": "PAUSER_ROLE",
      "outputs": [
        {
          "internalType": "bytes32",
          "name": "",
          "type": "bytes32"
        }
      ],
      "stateMutability": "view",
      "type": "function"
    },
    {
      "inputs": [],
      "name": "URI_SETTER_ROLE",
      "outputs": [
        {
          "internalType": "bytes32",
          "name": "",
          "type": "bytes32"
        }
      ],
      "stateMutability": "view",
      "type": "function"
    },
    {
      "inputs": [
        {
          "internalType": "address",
          "name": "account",
          "type": "address"
        },
        {
          "internalType": "uint256",
          "name": "id",
          "type": "uint256"
        }
      ],
      "name": "balanceOf",
      "outputs": [
        {
          "internalType": "uint256",
          "name": "",
          "type": "uint256"
        }
      ],
      "stateMutability": "view",
      "type": "function"
    },
    {
      "inputs": [
        {
          "internalType": "address[]",
          "name": "accounts",
          "type": "address[]"
        },
        {
          "internalType": "uint256[]",
          "name": "ids",
          "type": "uint256[]"
        }
      ],
      "name": "balanceOfBatch",
      "outputs": [
        {
          "internalType": "uint256[]",
          "name": "",
          "type": "uint256[]"
        }
      ],
      "stateMutability": "view",
      "type": "function"
    },
    {
      "inputs": [
        {
          "internalType": "address",
          "name": "account",
          "type": "address"
        },
        {
          "internalType": "uint256",
          "name": "id",
          "type": "uint256"
        },
        {
          "internalType": "uint256",
          "name": "amount",
          "type": "uint256"
        }
      ],
      "name": "burn",
      "outputs": [],
      "stateMutability": "nonpayable",
      "type": "function"
    },
    {
      "inputs": [
        {
          "internalType": "address",
          "name": "account",
          "type": "address"
        },
        {
          "internalType": "uint256[]",
          "name": "ids",
          "type": "uint256[]"
        },
        {
          "internalType": "uint256[]",
          "name": "amounts",
          "type": "uint256[]"
        }
      ],
      "name": "burnBatch",
      "outputs": [],
      "stateMutability": "nonpayable",
      "type": "function"
    },
    {
      "inputs": [
        {
          "internalType": "bytes4",
          "name": "",
          "type": "bytes4"
        }
      ],
      "name": "enabledFeatures",
      "outputs": [
        {
          "internalType": "bool",
          "name": "",
          "type": "bool"
        }
      ],
      "stateMutability": "view",
      "type": "function"
    },
    {
      "inputs": [],
      "name": "getEnabledFeatures",
      "outputs": [
        {
          "internalType": "bool[]",
          "name": "",
          "type": "bool[]"
        }
      ],
      "stateMutability": "view",
      "type": "function"
    },
    {
      "inputs": [
        {
          "internalType": "bytes32",
          "name": "role",
          "type": "bytes32"
        }
      ],
      "name": "getRoleAdmin",
      "outputs": [
        {
          "internalType": "bytes32",
          "name": "",
          "type": "bytes32"
        }
      ],
      "stateMutability": "view",
      "type": "function"
    },
    {
      "inputs": [
        {
          "internalType": "bytes32",
          "name": "role",
          "type": "bytes32"
        },
        {
          "internalType": "address",
          "name": "account",
          "type": "address"
        }
      ],
      "name": "grantRole",
      "outputs": [],
      "stateMutability": "nonpayable",
      "type": "function"
    },
    {
      "inputs": [
        {
          "internalType": "bytes32",
          "name": "role",
          "type": "bytes32"
        },
        {
          "internalType": "address",
          "name": "account",
          "type": "address"
        }
      ],
      "name": "hasRole",
      "outputs": [
        {
          "internalType": "bool",
          "name": "",
          "type": "bool"
        }
      ],
      "stateMutability": "view",
      "type": "function"
    },
    {
      "inputs": [
        {
          "internalType": "string",
          "name": "uri_",
          "type": "string"
        },
        {
          "internalType": "address",
          "name": "tokenOwner",
          "type": "address"
        },
        {
          "internalType": "bool[]",
          "name": "features",
          "type": "bool[]"
        }
      ],
      "name": "initialize",
      "outputs": [],
      "stateMutability": "nonpayable",
      "type": "function"
    },
    {
      "inputs": [
        {
          "internalType": "address",
          "name": "account",
          "type": "address"
        },
        {
          "internalType": "address",
          "name": "operator",
          "type": "address"
        }
      ],
      "name": "isApprovedForAll",
      "outputs": [
        {
          "internalType": "bool",
          "name": "",
          "type": "bool"
        }
      ],
      "stateMutability": "view",
      "type": "function"
    },
    {
      "inputs": [
        {
          "internalType": "address",
          "name": "to",
          "type": "address"
        },
        {
          "internalType": "uint256",
          "name": "id",
          "type": "uint256"
        },
        {
          "internalType": "uint256",
          "name": "amount",
          "type": "uint256"
        },
        {
          "internalType": "bytes",
          "name": "data",
          "type": "bytes"
        }
      ],
      "name": "mint",
      "outputs": [],
      "stateMutability": "nonpayable",
      "type": "function"
    },
    {
      "inputs": [
        {
          "internalType": "address",
          "name": "to",
          "type": "address"
        },
        {
          "internalType": "uint256[]",
          "name": "ids",
          "type": "uint256[]"
        },
        {
          "internalType": "uint256[]",
          "name": "amounts",
          "type": "uint256[]"
        },
        {
          "internalType": "bytes",
          "name": "data",
          "type": "bytes"
        }
      ],
      "name": "mintBatch",
      "outputs": [],
      "stateMutability": "nonpayable",
      "type": "function"
    },
    {
      "inputs": [],
      "name": "owner",
      "outputs": [
        {
          "internalType": "address",
          "name": "",
          "type": "address"
        }
      ],
      "stateMutability": "view",
      "type": "function"
    },
    {
      "inputs": [],
      "name": "pause",
      "outputs": [],
      "stateMutability": "nonpayable",
      "type": "function"
    },
    {
      "inputs": [],
      "name": "paused",
      "outputs": [
        {
          "internalType": "bool",
          "name": "",
          "type": "bool"
        }
      ],
      "stateMutability": "view",
      "type": "function"
    },
    {
      "inputs": [],
      "name": "renounceOwnership",
      "outputs": [],
      "stateMutability": "nonpayable",
      "type": "function"
    },
    {
      "inputs": [
        {
          "internalType": "bytes32",
          "name": "role",
          "type": "bytes32"
        },
        {
          "internalType": "address",
          "name": "account",
          "type": "address"
        }
      ],
      "name": "renounceRole",
      "outputs": [],
      "stateMutability": "nonpayable",
      "type": "function"
    },
    {
      "inputs": [
        {
          "internalType": "bytes32",
          "name": "role",
          "type": "bytes32"
        },
        {
          "internalType": "address",
          "name": "account",
          "type": "address"
        }
      ],
      "name": "revokeRole",
      "outputs": [],
      "stateMutability": "nonpayable",
      "type": "function"
    },
    {
      "inputs": [
        {
          "internalType": "address",
          "name": "from",
          "type": "address"
        },
        {
          "internalType": "address",
          "name": "to",
          "type": "address"
        },
        {
          "internalType": "uint256[]",
          "name": "ids",
          "type": "uint256[]"
        },
        {
          "internalType": "uint256[]",
          "name": "amounts",
          "type": "uint256[]"
        },
        {
          "internalType": "bytes",
          "name": "data",
          "type": "bytes"
        }
      ],
      "name": "safeBatchTransferFrom",
      "outputs": [],
      "stateMutability": "nonpayable",
      "type": "function"
    },
    {
      "inputs": [
        {
          "internalType": "address",
          "name": "from",
          "type": "address"
        },
        {
          "internalType": "address",
          "name": "to",
          "type": "address"
        },
        {
          "internalType": "uint256",
          "name": "id",
          "type": "uint256"
        },
        {
          "internalType": "uint256",
          "name": "amount",
          "type": "uint256"
        },
        {
          "internalType": "bytes",
          "name": "data",
          "type": "bytes"
        }
      ],
      "name": "safeTransferFrom",
      "outputs": [],
      "stateMutability": "nonpayable",
      "type": "function"
    },
    {
      "inputs": [
        {
          "internalType": "address",
          "name": "operator",
          "type": "address"
        },
        {
          "internalType": "bool",
          "name": "approved",
          "type": "bool"
        }
      ],
      "name": "setApprovalForAll",
      "outputs": [],
      "stateMutability": "nonpayable",
      "type": "function"
    },
    {
      "inputs": [
        {
          "internalType": "uint256",
          "name": "id",
          "type": "uint256"
        },
        {
          "internalType": "string",
          "name": "tokenURI",
          "type": "string"
        }
      ],
      "name": "setTokenURI",
      "outputs": [],
      "stateMutability": "nonpayable",
      "type": "function"
    },
    {
      "inputs": [
        {
          "internalType": "string",
          "name": "newuri",
          "type": "string"
        }
      ],
      "name": "setURI",
      "outputs": [],
      "stateMutability": "nonpayable",
      "type": "function"
    },
    {
      "inputs": [
        {
          "internalType": "bytes4",
          "name": "interfaceId",
          "type": "bytes4"
        }
      ],
      "name": "supportsInterface",
      "outputs": [
        {
          "internalType": "bool",
          "name": "",
          "type": "bool"
        }
      ],
      "stateMutability": "view",
      "type": "function"
    },
    {
      "inputs": [
        {
          "internalType": "address",
          "name": "newOwner",
          "type": "address"
        }
      ],
      "name": "transferOwnership",
      "outputs": [],
      "stateMutability": "nonpayable",
      "type": "function"
    },
    {
      "inputs": [],
      "name": "unpause",
      "outputs": [],
      "stateMutability": "nonpayable",
      "type": "function"
    },
    {
      "inputs": [
        {
          "internalType": "uint256",
          "name": "id",
          "type": "uint256"
        }
      ],
      "name": "uri",
      "outputs": [
        {
          "internalType": "string",
          "name": "",
          "type": "string"
        }
      ],
      "stateMutability": "view",
      "type": "function"
    }
  ],
  "bytecode": "0x608060405234801561001057600080fd5b503360405180602001604052806000815250610031816100b960201b60201c565b50600073ffffffffffffffffffffffffffffffffffffffff168173ffffffffffffffffffffffffffffffffffffffff16036100a45760006040517f1e4fbdf700000000000000000000000000000000000000000000000000000000815260040161009b91906101d3565b60405180910390fd5b6100b3816100cc60201b60201c565b50610510565b80600290816100c8919061043e565b5050565b6000600360019054906101000a900473ffffffffffffffffffffffffffffffffffffffff16905081600360016101000a81548173ffffffffffffffffffffffffffffffffffffffff021916908373ffffffffffffffffffffffffffffffffffffffff1602179055508173ffffffffffffffffffffffffffffffffffffffff168173ffffffffffffffffffffffffffffffffffffffff167f8be0079c531659141344cd1fd0a4f28419497f9722a3daafe3b4186f6b6457e060405160405180910390a35050565b600073ffffffffffffffffffffffffffffffffffffffff82169050919050565b60006101bd82610192565b9050919050565b6101cd816101b2565b82525050565b60006020820190506101e860008301846101c4565b92915050565b600081519050919050565b7f4e487b7100000000000000000000000000000000000000000000000000000000600052604160045260246000fd5b7f4e487b7100000000000000000000000000000000000000000000000000000000600052602260045260246000fd5b6000600282049050600182168061026f57607f821691505b60208210810361028257610281610228565b5b50919050565b60008190508160005260206000209050919050565b60006020601f8301049050919050565b600082821b905092915050565b6000600883026102ea7fffffffffffffffffffffffffffffffffffffffffffffffffffffffffffffffff826102ad565b6102f486836102ad565b95508019841693508086168417925050509392505050565b6000819050919050565b6000819050919050565b600061033b6103366103318461030c565b610316565b61030c565b9050919050565b6000819050919050565b61035583610320565b61036961036182610342565b8484546102ba565b825550505050565b600090565b61037e610371565b61038981848461034c565b505050565b5b818110156103ad576103a2600082610376565b60018101905061038f565b5050565b601f8211156103f2576103c381610288565b6103cc8461029d565b810160208510156103db578190505b6103ef6103e78561029d565b83018261038e565b50505b505050565b600082821c905092915050565b6000610415600019846008026103f7565b1980831691505092915050565b600061042e8383610404565b9150826002028217905092915050565b610447826101ee565b67ffffffffffffffff8111156104605761045f6101f9565b5b61046a8254610257565b6104758282856103b1565b600060209050601f8311600181146104a85760008415610496578287015190505b6104a08582610422565b865550610508565b601f1984166104b686610288565b60005b828110156104de578489015182556001820191506020850194506020810190506104b9565b868310156104fb57848901516104f7601f891682610404565b8355505b6001600288020188555050505b505050505050565b6152558061051f6000396000f3fe608060405234801561001057600080fd5b50600436106101ef5760003560e01c8063715018a61161010f578063d5391393116100a2578063f242432a11610071578063f242432a1461057c578063f2fde38b14610598578063f4aad1ce146105b4578063f5298aca146105d0576101ef565b8063d5391393146104f4578063d547741f14610512578063e63ab1e91461052e578063e985e9c51461054c576101ef565b80638da5cb5b116100de5780638da5cb5b1461046c57806391d148541461048a578063a217fddf146104ba578063a22cb465146104d8576101ef565b8063715018a61461041e578063731133e9146104285780637f345710146104445780638456cb5914610462576101ef565b80632eb2c2d6116101875780634e1273f4116101565780634e1273f4146103965780635c975abb146103c65780636b20c454146103e45780636d8f4b5514610400576101ef565b80632eb2c2d6146103385780632f2ff15d1461035457806336568abe146103705780633f4ba83a1461038c576101ef565b80630e89341c116101c35780630e89341c146102a0578063162094c4146102d05780631f7fdffa146102ec578063248a9ca314610308576101ef565b8062fdd58e146101f457806301ffc9a71461022457806302fe5305146102545780630884248014610270575b600080fd5b61020e60048036038101906102099190613d7d565b6105ec565b60405161021b9190613dcc565b60405180910390f35b61023e60048036038101906102399190613e3f565b610646565b60405161024b9190613e87565b60405180910390f35b61026e60048036038101906102699190613fe8565b610658565b005b61028a60048036038101906102859190613e3f565b610744565b6040516102979190613e87565b60405180910390f35b6102ba60048036038101906102b59190614031565b610764565b6040516102c791906140dd565b60405180910390f35b6102ea60048036038101906102e591906140ff565b610827565b005b610306600480360381019061030191906142c4565b61092c565b005b610322600480360381019061031d91906143b5565b610a1e565b60405161032f91906143f1565b60405180910390f35b610352600480360381019061034d919061440c565b610a3e565b005b61036e600480360381019061036991906144db565b610b07565b005b61038a600480360381019061038591906144db565b610bca565b005b610394610c8d565b005b6103b060048036038101906103ab91906145de565b610d77565b6040516103bd9190614714565b60405180910390f35b6103ce610e80565b6040516103db9190613e87565b60405180910390f35b6103fe60048036038101906103f99190614736565b610e97565b005b610408610f5c565b604051610415919061487f565b60405180910390f35b610426611078565b005b610442600480360381019061043d91906148a1565b611137565b005b61044c611229565b60405161045991906143f1565b60405180910390f35b61046a61124d565b005b610474611337565b6040516104819190614933565b60405180910390f35b6104a4600480360381019061049f91906144db565b611361565b6040516104b19190613e87565b60405180910390f35b6104c26113cc565b6040516104cf91906143f1565b60405180910390f35b6104f260048036038101906104ed919061497a565b6113d3565b005b6104fc611496565b60405161050991906143f1565b60405180910390f35b61052c600480360381019061052791906144db565b6114ba565b005b61053661157d565b60405161054391906143f1565b60405180910390f35b610566600480360381019061056191906149ba565b6115a1565b6040516105739190613e87565b60405180910390f35b610596600480360381019061059191906149fa565b611635565b005b6105b260048036038101906105ad9190614a91565b6116fe565b005b6105ce60048036038101906105c99190614b81565b6117bf565b005b6105ea60048036038101906105e59190614c0c565b611aad565b005b600080600083815260200190815260200160002060008473ffffffffffffffffffffffffffffffffffffffff1673ffffffffffffffffffffffffffffffffffffffff16815260200190815260200160002054905092915050565b600061065182611b72565b9050919050565b7f7804d923f43a17d325d77e781528e0793b2edd9890ab45fc64efd7b4b427744c61068281611bec565b600660007f02fe530522caf7ff19479c008a8a16d85ea00d3367563fdcbf0308ca860c16957bffffffffffffffffffffffffffffffffffffffffffffffffffffffff19167bffffffffffffffffffffffffffffffffffffffffffffffffffffffff1916815260200190815260200160002060009054906101000a900460ff16610737576040517f47a0378200000000000000000000000000000000000000000000000000000000815260040160405180910390fd5b61074082611c00565b5050565b60066020528060005260406000206000915054906101000a900460ff1681565b6060600060076000848152602001908152602001600020805461078690614c8e565b80601f01602080910402602001604051908101604052809291908181526020018280546107b290614c8e565b80156107ff5780601f106107d4576101008083540402835291602001916107ff565b820191906000526020600020905b8154815290600101906020018083116107e257829003601f168201915b50505050509050600081511161081d5761081883611c13565b61081f565b805b915050919050565b7f7804d923f43a17d325d77e781528e0793b2edd9890ab45fc64efd7b4b427744c61085181611bec565b600660007f162094c41f9e614fbfeee6783490985e82953e56e0c70ba6d6e2c64564e7749b7bffffffffffffffffffffffffffffffffffffffffffffffffffffffff19167bffffffffffffffffffffffffffffffffffffffffffffffffffffffff1916815260200190815260200160002060009054906101000a900460ff16610906576040517f47a0378200000000000000000000000000000000000000000000000000000000815260040160405180910390fd5b816007600085815260200190815260200160002090816109269190614e6b565b50505050565b7f9f2df0fed2c77648de5860a4cc508cd0818c85b8b8a1ab4ceeef8d981c8956a661095681611bec565b600660007f1f7fdffac90d0eeeaeba7dfcf8f4c11cdec35c0b7fa7397211242a7a354456497bffffffffffffffffffffffffffffffffffffffffffffffffffffffff19167bffffffffffffffffffffffffffffffffffffffffffffffffffffffff1916815260200190815260200160002060009054906101000a900460ff16610a0b576040517f47a0378200000000000000000000000000000000000000000000000000000000815260040160405180910390fd5b610a1785858585611ca7565b5050505050565b600060046000838152602001908152602001600020600101549050919050565b600660007f2eb2c2d667cf048e1ec82a4537b123e459951729e09ec737ac88a8e82fb2d1db7bffffffffffffffffffffffffffffffffffffffffffffffffffffffff19167bffffffffffffffffffffffffffffffffffffffffffffffffffffffff1916815260200190815260200160002060009054906101000a900460ff16610af3576040517f47a0378200000000000000000000000000000000000000000000000000000000815260040160405180910390fd5b610b008585858585611d2d565b5050505050565b600660007f2f2ff15deca029b64bbc0874ae59c8f39be024a95aa718b4c13ca407db350be87bffffffffffffffffffffffffffffffffffffffffffffffffffffffff19167bffffffffffffffffffffffffffffffffffffffffffffffffffffffff1916815260200190815260200160002060009054906101000a900460ff16610bbc576040517f47a0378200000000000000000000000000000000000000000000000000000000815260040160405180910390fd5b610bc68282611dd5565b5050565b600660007f36568abe2c7e6c1d662bad0fe1760ac72cf2f9478a86be824d68ec83895c49e97bffffffffffffffffffffffffffffffffffffffffffffffffffffffff19167bffffffffffffffffffffffffffffffffffffffffffffffffffffffff1916815260200190815260200160002060009054906101000a900460ff16610c7f576040517f47a0378200000000000000000000000000000000000000000000000000000000815260040160405180910390fd5b610c898282611df7565b5050565b7f65d7a28e3265b37a6474929f336521b332c1681b933f6cb9f3376673440d862a610cb781611bec565b600660007f8456cb591a934d53f6ccc6332123a165a1f3562907bf11330d847a29ca49eb897bffffffffffffffffffffffffffffffffffffffffffffffffffffffff19167bffffffffffffffffffffffffffffffffffffffffffffffffffffffff1916815260200190815260200160002060009054906101000a900460ff16610d6c576040517f47a0378200000000000000000000000000000000000000000000000000000000815260040160405180910390fd5b610d74611e72565b50565b60608151835114610dc357815183516040517f5b059991000000000000000000000000000000000000000000000000000000008152600401610dba929190614f3d565b60405180910390fd5b6000835167ffffffffffffffff811115610de057610ddf613ebd565b5b604051908082528060200260200182016040528015610e0e5781602001602082028036833780820191505090505b50905060005b8451811015610e7557610e4b610e338287611ed590919063ffffffff16565b610e468387611ee990919063ffffffff16565b6105ec565b828281518110610e5e57610e5d614f66565b5b602002602001018181525050806001019050610e14565b508091505092915050565b6000600360009054906101000a900460ff16905090565b600660007f6b20c4541d8ef5ccd269c963bf9b934b8d7a51e501b598f87e9244e55b3eaee87bffffffffffffffffffffffffffffffffffffffffffffffffffffffff19167bffffffffffffffffffffffffffffffffffffffffffffffffffffffff1916815260200190815260200160002060009054906101000a900460ff16610f4c576040517f47a0378200000000000000000000000000000000000000000000000000000000815260040160405180910390fd5b610f57838383611efd565b505050565b60606000610f68611fa9565b90506000815167ffffffffffffffff811115610f8757610f86613ebd565b5b604051908082528060200260200182016040528015610fb55781602001602082028036833780820191505090505b50905060005b825181101561106f5760066000848381518110610fdb57610fda614f66565b5b60200260200101517bffffffffffffffffffffffffffffffffffffffffffffffffffffffff19167bffffffffffffffffffffffffffffffffffffffffffffffffffffffff1916815260200190815260200160002060009054906101000a900460ff168282815181106110505761104f614f66565b5b6020026020010190151590811515815250508080600101915050610fbb565b50809250505090565b600660007f715018a616b5f2044428f6fadb7deef4ce9ca76ef60ea57978964ad137bbe7ae7bffffffffffffffffffffffffffffffffffffffffffffffffffffffff19167bffffffffffffffffffffffffffffffffffffffffffffffffffffffff1916815260200190815260200160002060009054906101000a900460ff1661112d576040517f47a0378200000000000000000000000000000000000000000000000000000000815260040160405180910390fd5b61113561278f565b565b7f9f2df0fed2c77648de5860a4cc508cd0818c85b8b8a1ab4ceeef8d981c8956a661116181611bec565b600660007f731133e96475b3c8ead4dbcbe69f8f39e3a4b4b742dbf99a878117a8d09f84bd7bffffffffffffffffffffffffffffffffffffffffffffffffffffffff19167bffffffffffffffffffffffffffffffffffffffffffffffffffffffff1916815260200190815260200160002060009054906101000a900460ff16611216576040517f47a0378200000000000000000000000000000000000000000000000000000000815260040160405180910390fd5b611222858585856127a3565b5050505050565b7f7804d923f43a17d325d77e781528e0793b2edd9890ab45fc64efd7b4b427744c81565b7f65d7a28e3265b37a6474929f336521b332c1681b933f6cb9f3376673440d862a61127781611bec565b600660007f8456cb591a934d53f6ccc6332123a165a1f3562907bf11330d847a29ca49eb897bffffffffffffffffffffffffffffffffffffffffffffffffffffffff19167bffffffffffffffffffffffffffffffffffffffffffffffffffffffff1916815260200190815260200160002060009054906101000a900460ff1661132c576040517f47a0378200000000000000000000000000000000000000000000000000000000815260040160405180910390fd5b61133461283c565b50565b6000600360019054906101000a900473ffffffffffffffffffffffffffffffffffffffff16905090565b60006004600084815260200190815260200160002060000160008373ffffffffffffffffffffffffffffffffffffffff1673ffffffffffffffffffffffffffffffffffffffff16815260200190815260200160002060009054906101000a900460ff16905092915050565b6000801b81565b600660007fa22cb4651ab9570f89bb516380c40ce76762284fb1f21337ceaf6adab99e7d4a7bffffffffffffffffffffffffffffffffffffffffffffffffffffffff19167bffffffffffffffffffffffffffffffffffffffffffffffffffffffff1916815260200190815260200160002060009054906101000a900460ff16611488576040517f47a0378200000000000000000000000000000000000000000000000000000000815260040160405180910390fd5b611492828261289f565b5050565b7f9f2df0fed2c77648de5860a4cc508cd0818c85b8b8a1ab4ceeef8d981c8956a681565b600660007fd547741fd8d55981251e167708119763c372f2b41e85a1468b0a759b055a009f7bffffffffffffffffffffffffffffffffffffffffffffffffffffffff19167bffffffffffffffffffffffffffffffffffffffffffffffffffffffff1916815260200190815260200160002060009054906101000a900460ff1661156f576040517f47a0378200000000000000000000000000000000000000000000000000000000815260040160405180910390fd5b61157982826128b5565b5050565b7f65d7a28e3265b37a6474929f336521b332c1681b933f6cb9f3376673440d862a81565b6000600160008473ffffffffffffffffffffffffffffffffffffffff1673ffffffffffffffffffffffffffffffffffffffff16815260200190815260200160002060008373ffffffffffffffffffffffffffffffffffffffff1673ffffffffffffffffffffffffffffffffffffffff16815260200190815260200160002060009054906101000a900460ff16905092915050565b600660007ff242432a01954b0e0efb67e72c9b3b8ed77690657780385b256ac9aba0e35f0b7bffffffffffffffffffffffffffffffffffffffffffffffffffffffff19167bffffffffffffffffffffffffffffffffffffffffffffffffffffffff1916815260200190815260200160002060009054906101000a900460ff166116ea576040517f47a0378200000000000000000000000000000000000000000000000000000000815260040160405180910390fd5b6116f785858585856128d7565b5050505050565b600660007ff2fde38b092330466c661fc723d5289b90272a3e580e3187d1d7ef788506c5577bffffffffffffffffffffffffffffffffffffffffffffffffffffffff19167bffffffffffffffffffffffffffffffffffffffffffffffffffffffff1916815260200190815260200160002060009054906101000a900460ff166117b3576040517f47a0378200000000000000000000000000000000000000000000000000000000815260040160405180910390fd5b6117bc8161297f565b50565b600560009054906101000a900460ff1615611806576040517f0dc149f000000000000000000000000000000000000000000000000000000000815260040160405180910390fd5b6001600560006101000a81548160ff02191690831515021790555061182a83611c00565b61183382612a05565b6118406000801b83612acb565b5061186b7f9f2df0fed2c77648de5860a4cc508cd0818c85b8b8a1ab4ceeef8d981c8956a683612acb565b506118967f65d7a28e3265b37a6474929f336521b332c1681b933f6cb9f3376673440d862a83612acb565b506118c17f7804d923f43a17d325d77e781528e0793b2edd9890ab45fc64efd7b4b427744c83612acb565b5060006118cc611fa9565b905060005b8151811015611a17578251811015611985578281815181106118f6576118f5614f66565b5b60200260200101516006600084848151811061191557611914614f66565b5b60200260200101517bffffffffffffffffffffffffffffffffffffffffffffffffffffffff19167bffffffffffffffffffffffffffffffffffffffffffffffffffffffff1916815260200190815260200160002060006101000a81548160ff021916908315150217905550611a0a565b60006006600084848151811061199e5761199d614f66565b5b60200260200101517bffffffffffffffffffffffffffffffffffffffffffffffffffffffff19167bffffffffffffffffffffffffffffffffffffffffffffffffffffffff1916815260200190815260200160002060006101000a81548160ff0219169083151502179055505b80806001019150506118d1565b506000825103611aa75760016006600083600281518110611a3b57611a3a614f66565b5b60200260200101517bffffffffffffffffffffffffffffffffffffffffffffffffffffffff19167bffffffffffffffffffffffffffffffffffffffffffffffffffffffff1916815260200190815260200160002060006101000a81548160ff0219169083151502179055505b50505050565b600660007ff5298acae4baa3384bddc4e6891b4a982b854db8c0ad0ae8b971379a90a3ef877bffffffffffffffffffffffffffffffffffffffffffffffffffffffff19167bffffffffffffffffffffffffffffffffffffffffffffffffffffffff1916815260200190815260200160002060009054906101000a900460ff16611b62576040517f47a0378200000000000000000000000000000000000000000000000000000000815260040160405180910390fd5b611b6d838383612bbd565b505050565b60007f7965db0b000000000000000000000000000000000000000000000000000000007bffffffffffffffffffffffffffffffffffffffffffffffffffffffff1916827bffffffffffffffffffffffffffffffffffffffffffffffffffffffff19161480611be55750611be482612c69565b5b9050919050565b611bfd81611bf8612d4b565b612d53565b50565b8060029081611c0f9190614e6b565b5050565b606060028054611c2290614c8e565b80601f0160208091040260200160405190810160405280929190818152602001828054611c4e90614c8e565b8015611c9b5780601f10611c7057610100808354040283529160200191611c9b565b820191906000526020600020905b815481529060010190602001808311611c7e57829003601f168201915b50505050509050919050565b600073ffffffffffffffffffffffffffffffffffffffff168473ffffffffffffffffffffffffffffffffffffffff1603611d195760006040517f57f447ce000000000000000000000000000000000000000000000000000000008152600401611d109190614933565b60405180910390fd5b611d27600085858585612da4565b50505050565b6000611d37612d4b565b90508073ffffffffffffffffffffffffffffffffffffffff168673ffffffffffffffffffffffffffffffffffffffff1614158015611d7c5750611d7a86826115a1565b155b15611dc05780866040517fe237d922000000000000000000000000000000000000000000000000000000008152600401611db7929190614f95565b60405180910390fd5b611dcd8686868686612e56565b505050505050565b611dde82610a1e565b611de781611bec565b611df18383612acb565b50505050565b611dff612d4b565b73ffffffffffffffffffffffffffffffffffffffff168173ffffffffffffffffffffffffffffffffffffffff1614611e63576040517f6697b23200000000000000000000000000000000000000000000000000000000815260040160405180910390fd5b611e6d8282612f4e565b505050565b611e7a613041565b6000600360006101000a81548160ff0219169083151502179055507f5db9ee0a495bf2e6ff9c91a7834c1ba4fdd244a5e8aa4e537bd38aeae4b073aa611ebe612d4b565b604051611ecb9190614933565b60405180910390a1565b600060208202602084010151905092915050565b600060208202602084010151905092915050565b611f05612d4b565b73ffffffffffffffffffffffffffffffffffffffff168373ffffffffffffffffffffffffffffffffffffffff1614158015611f4e5750611f4c83611f47612d4b565b6115a1565b155b15611f9957611f5b612d4b565b836040517fe237d922000000000000000000000000000000000000000000000000000000008152600401611f90929190614f95565b60405180910390fd5b611fa4838383613081565b505050565b60606000600f67ffffffffffffffff811115611fc857611fc7613ebd565b5b604051908082528060200260200182016040528015611ff65781602001602082028036833780820191505090505b5090507f731133e96475b3c8ead4dbcbe69f8f39e3a4b4b742dbf99a878117a8d09f84bd8160008151811061202e5761202d614f66565b5b60200260200101907bffffffffffffffffffffffffffffffffffffffffffffffffffffffff191690817bffffffffffffffffffffffffffffffffffffffffffffffffffffffff1916815250507ff5298acae4baa3384bddc4e6891b4a982b854db8c0ad0ae8b971379a90a3ef87816001815181106120af576120ae614f66565b5b60200260200101907bffffffffffffffffffffffffffffffffffffffffffffffffffffffff191690817bffffffffffffffffffffffffffffffffffffffffffffffffffffffff1916815250507f8456cb591a934d53f6ccc6332123a165a1f3562907bf11330d847a29ca49eb89816002815181106121305761212f614f66565b5b60200260200101907bffffffffffffffffffffffffffffffffffffffffffffffffffffffff191690817bffffffffffffffffffffffffffffffffffffffffffffffffffffffff1916815250507f02fe530522caf7ff19479c008a8a16d85ea00d3367563fdcbf0308ca860c1695816003815181106121b1576121b0614f66565b5b60200260200101907bffffffffffffffffffffffffffffffffffffffffffffffffffffffff191690817bffffffffffffffffffffffffffffffffffffffffffffffffffffffff1916815250507f162094c41f9e614fbfeee6783490985e82953e56e0c70ba6d6e2c64564e7749b8160048151811061223257612231614f66565b5b60200260200101907bffffffffffffffffffffffffffffffffffffffffffffffffffffffff191690817bffffffffffffffffffffffffffffffffffffffffffffffffffffffff1916815250507ff242432a01954b0e0efb67e72c9b3b8ed77690657780385b256ac9aba0e35f0b816005815181106122b3576122b2614f66565b5b60200260200101907bffffffffffffffffffffffffffffffffffffffffffffffffffffffff191690817bffffffffffffffffffffffffffffffffffffffffffffffffffffffff1916815250507fa22cb4651ab9570f89bb516380c40ce76762284fb1f21337ceaf6adab99e7d4a8160068151811061233457612333614f66565b5b60200260200101907bffffffffffffffffffffffffffffffffffffffffffffffffffffffff191690817bffffffffffffffffffffffffffffffffffffffffffffffffffffffff1916815250507f1f7fdffac90d0eeeaeba7dfcf8f4c11cdec35c0b7fa7397211242a7a35445649816007815181106123b5576123b4614f66565b5b60200260200101907bffffffffffffffffffffffffffffffffffffffffffffffffffffffff191690817bffffffffffffffffffffffffffffffffffffffffffffffffffffffff1916815250507f6b20c4541d8ef5ccd269c963bf9b934b8d7a51e501b598f87e9244e55b3eaee88160088151811061243657612435614f66565b5b60200260200101907bffffffffffffffffffffffffffffffffffffffffffffffffffffffff191690817bffffffffffffffffffffffffffffffffffffffffffffffffffffffff1916815250507f2eb2c2d667cf048e1ec82a4537b123e459951729e09ec737ac88a8e82fb2d1db816009815181106124b7576124b6614f66565b5b60200260200101907bffffffffffffffffffffffffffffffffffffffffffffffffffffffff191690817bffffffffffffffffffffffffffffffffffffffffffffffffffffffff1916815250507f2f2ff15deca029b64bbc0874ae59c8f39be024a95aa718b4c13ca407db350be881600a8151811061253857612537614f66565b5b60200260200101907bffffffffffffffffffffffffffffffffffffffffffffffffffffffff191690817bffffffffffffffffffffffffffffffffffffffffffffffffffffffff1916815250507fd547741fd8d55981251e167708119763c372f2b41e85a1468b0a759b055a009f81600b815181106125b9576125b8614f66565b5b60200260200101907bffffffffffffffffffffffffffffffffffffffffffffffffffffffff191690817bffffffffffffffffffffffffffffffffffffffffffffffffffffffff1916815250507f36568abe2c7e6c1d662bad0fe1760ac72cf2f9478a86be824d68ec83895c49e981600c8151811061263a57612639614f66565b5b60200260200101907bffffffffffffffffffffffffffffffffffffffffffffffffffffffff191690817bffffffffffffffffffffffffffffffffffffffffffffffffffffffff1916815250507ff2fde38b092330466c661fc723d5289b90272a3e580e3187d1d7ef788506c55781600d815181106126bb576126ba614f66565b5b60200260200101907bffffffffffffffffffffffffffffffffffffffffffffffffffffffff191690817bffffffffffffffffffffffffffffffffffffffffffffffffffffffff1916815250507f715018a616b5f2044428f6fadb7deef4ce9ca76ef60ea57978964ad137bbe7ae81600e8151811061273c5761273b614f66565b5b60200260200101907bffffffffffffffffffffffffffffffffffffffffffffffffffffffff191690817bffffffffffffffffffffffffffffffffffffffffffffffffffffffff1916815250508091505090565b612797613115565b6127a16000612a05565b565b600073ffffffffffffffffffffffffffffffffffffffff168473ffffffffffffffffffffffffffffffffffffffff16036128155760006040517f57f447ce00000000000000000000000000000000000000000000000000000000815260040161280c9190614933565b60405180910390fd5b600080612822858561319c565b91509150612834600087848487612da4565b505050505050565b6128446131cc565b6001600360006101000a81548160ff0219169083151502179055507f62e78cea01bee320cd4e420270b5ea74000d11b0c9f74754ebdbfc544b05a258612888612d4b565b6040516128959190614933565b60405180910390a1565b6128b16128aa612d4b565b838361320d565b5050565b6128be82610a1e565b6128c781611bec565b6128d18383612f4e565b50505050565b60006128e1612d4b565b90508073ffffffffffffffffffffffffffffffffffffffff168673ffffffffffffffffffffffffffffffffffffffff1614158015612926575061292486826115a1565b155b1561296a5780866040517fe237d922000000000000000000000000000000000000000000000000000000008152600401612961929190614f95565b60405180910390fd5b612977868686868661337d565b505050505050565b612987613115565b600073ffffffffffffffffffffffffffffffffffffffff168173ffffffffffffffffffffffffffffffffffffffff16036129f95760006040517f1e4fbdf70000000000000000000000000000000000000000000000000000000081526004016129f09190614933565b60405180910390fd5b612a0281612a05565b50565b6000600360019054906101000a900473ffffffffffffffffffffffffffffffffffffffff16905081600360016101000a81548173ffffffffffffffffffffffffffffffffffffffff021916908373ffffffffffffffffffffffffffffffffffffffff1602179055508173ffffffffffffffffffffffffffffffffffffffff168173ffffffffffffffffffffffffffffffffffffffff167f8be0079c531659141344cd1fd0a4f28419497f9722a3daafe3b4186f6b6457e060405160405180910390a35050565b6000612ad78383611361565b612bb25760016004600085815260200190815260200160002060000160008473ffffffffffffffffffffffffffffffffffffffff1673ffffffffffffffffffffffffffffffffffffffff16815260200190815260200160002060006101000a81548160ff021916908315150217905550612b4f612d4b565b73ffffffffffffffffffffffffffffffffffffffff168273ffffffffffffffffffffffffffffffffffffffff16847f2f8788117e7eff1d82e926ec794901d17c78024a50270940304540a733656f0d60405160405180910390a460019050612bb7565b600090505b92915050565b612bc5612d4b565b73ffffffffffffffffffffffffffffffffffffffff168373ffffffffffffffffffffffffffffffffffffffff1614158015612c0e5750612c0c83612c07612d4b565b6115a1565b155b15612c5957612c1b612d4b565b836040517fe237d922000000000000000000000000000000000000000000000000000000008152600401612c50929190614f95565b60405180910390fd5b612c64838383613488565b505050565b60007fd9b67a26000000000000000000000000000000000000000000000000000000007bffffffffffffffffffffffffffffffffffffffffffffffffffffffff1916827bffffffffffffffffffffffffffffffffffffffffffffffffffffffff19161480612d3457507f0e89341c000000000000000000000000000000000000000000000000000000007bffffffffffffffffffffffffffffffffffffffffffffffffffffffff1916827bffffffffffffffffffffffffffffffffffffffffffffffffffffffff1916145b80612d445750612d438261352f565b5b9050919050565b600033905090565b612d5d8282611361565b612da05780826040517fe2517d3f000000000000000000000000000000000000000000000000000000008152600401612d97929190614fbe565b60405180910390fd5b5050565b612db085858585613599565b600073ffffffffffffffffffffffffffffffffffffffff168473ffffffffffffffffffffffffffffffffffffffff1614612e4f576000612dee612d4b565b90506001845103612e3e576000612e0f600086611ee990919063ffffffff16565b90506000612e27600086611ee990919063ffffffff16565b9050612e378389898585896135ab565b5050612e4d565b612e4c81878787878761375f565b5b505b5050505050565b600073ffffffffffffffffffffffffffffffffffffffff168473ffffffffffffffffffffffffffffffffffffffff1603612ec85760006040517f57f447ce000000000000000000000000000000000000000000000000000000008152600401612ebf9190614933565b60405180910390fd5b600073ffffffffffffffffffffffffffffffffffffffff168573ffffffffffffffffffffffffffffffffffffffff1603612f3a5760006040517f01a83514000000000000000000000000000000000000000000000000000000008152600401612f319190614933565b60405180910390fd5b612f478585858585612da4565b5050505050565b6000612f5a8383611361565b156130365760006004600085815260200190815260200160002060000160008473ffffffffffffffffffffffffffffffffffffffff1673ffffffffffffffffffffffffffffffffffffffff16815260200190815260200160002060006101000a81548160ff021916908315150217905550612fd3612d4b565b73ffffffffffffffffffffffffffffffffffffffff168273ffffffffffffffffffffffffffffffffffffffff16847ff6391f5c32d9c69d2a47ea670b442974b53935d1edc7fd64eb21e047a839171b60405160405180910390a46001905061303b565b600090505b92915050565b613049610e80565b61307f576040517f8dfc202b00000000000000000000000000000000000000000000000000000000815260040160405180910390fd5b565b600073ffffffffffffffffffffffffffffffffffffffff168373ffffffffffffffffffffffffffffffffffffffff16036130f35760006040517f01a835140000000000000000000000000000000000000000000000000000000081526004016130ea9190614933565b60405180910390fd5b613110836000848460405180602001604052806000815250612da4565b505050565b61311d612d4b565b73ffffffffffffffffffffffffffffffffffffffff1661313b611337565b73ffffffffffffffffffffffffffffffffffffffff161461319a5761315e612d4b565b6040517f118cdaa70000000000000000000000000000000000000000000000000000000081526004016131919190614933565b60405180910390fd5b565b60608060405191506001825283602083015260408201905060018152826020820152604081016040529250929050565b6131d4610e80565b1561320b576040517fd93c066500000000000000000000000000000000000000000000000000000000815260040160405180910390fd5b565b600073ffffffffffffffffffffffffffffffffffffffff168273ffffffffffffffffffffffffffffffffffffffff160361327f5760006040517fced3e1000000000000000000000000000000000000000000000000000000000081526004016132769190614933565b60405180910390fd5b80600160008573ffffffffffffffffffffffffffffffffffffffff1673ffffffffffffffffffffffffffffffffffffffff16815260200190815260200160002060008473ffffffffffffffffffffffffffffffffffffffff1673ffffffffffffffffffffffffffffffffffffffff16815260200190815260200160002060006101000a81548160ff0219169083151502179055508173ffffffffffffffffffffffffffffffffffffffff168373ffffffffffffffffffffffffffffffffffffffff167f17307eab39ab6107e8899845ad3d59bd9653f200f220920489ca2b5937696c31836040516133709190613e87565b60405180910390a3505050565b600073ffffffffffffffffffffffffffffffffffffffff168473ffffffffffffffffffffffffffffffffffffffff16036133ef5760006040517f57f447ce0000000000000000000000000000000000000000000000000000000081526004016133e69190614933565b60405180910390fd5b600073ffffffffffffffffffffffffffffffffffffffff168573ffffffffffffffffffffffffffffffffffffffff16036134615760006040517f01a835140000000000000000000000000000000000000000000000000000000081526004016134589190614933565b60405180910390fd5b60008061346e858561319c565b9150915061347f8787848487612da4565b50505050505050565b600073ffffffffffffffffffffffffffffffffffffffff168373ffffffffffffffffffffffffffffffffffffffff16036134fa5760006040517f01a835140000000000000000000000000000000000000000000000000000000081526004016134f19190614933565b60405180910390fd5b600080613507848461319c565b91509150613528856000848460405180602001604052806000815250612da4565b5050505050565b60007f01ffc9a7000000000000000000000000000000000000000000000000000000007bffffffffffffffffffffffffffffffffffffffffffffffffffffffff1916827bffffffffffffffffffffffffffffffffffffffffffffffffffffffff1916149050919050565b6135a584848484613913565b50505050565b60008473ffffffffffffffffffffffffffffffffffffffff163b1115613757578373ffffffffffffffffffffffffffffffffffffffff1663f23a6e6187878686866040518663ffffffff1660e01b815260040161360c95949392919061503c565b6020604051808303816000875af192505050801561364857506040513d601f19601f8201168201806040525081019061364591906150ab565b60015b6136cc573d8060008114613678576040519150601f19603f3d011682016040523d82523d6000602084013e61367d565b606091505b5060008151036136c457846040517f57f447ce0000000000000000000000000000000000000000000000000000000081526004016136bb9190614933565b60405180910390fd5b805160208201fd5b63f23a6e6160e01b7bffffffffffffffffffffffffffffffffffffffffffffffffffffffff1916817bffffffffffffffffffffffffffffffffffffffffffffffffffffffff19161461375557846040517f57f447ce00000000000000000000000000000000000000000000000000000000815260040161374c9190614933565b60405180910390fd5b505b505050505050565b60008473ffffffffffffffffffffffffffffffffffffffff163b111561390b578373ffffffffffffffffffffffffffffffffffffffff1663bc197c8187878686866040518663ffffffff1660e01b81526004016137c09594939291906150d8565b6020604051808303816000875af19250505080156137fc57506040513d601f19601f820116820180604052508101906137f991906150ab565b60015b613880573d806000811461382c576040519150601f19603f3d011682016040523d82523d6000602084013e613831565b606091505b50600081510361387857846040517f57f447ce00000000000000000000000000000000000000000000000000000000815260040161386f9190614933565b60405180910390fd5b805160208201fd5b63bc197c8160e01b7bffffffffffffffffffffffffffffffffffffffffffffffffffffffff1916817bffffffffffffffffffffffffffffffffffffffffffffffffffffffff19161461390957846040517f57f447ce0000000000000000000000000000000000000000000000000000000081526004016139009190614933565b60405180910390fd5b505b505050505050565b61391b6131cc565b6139278484848461392d565b50505050565b805182511461397757815181516040517f5b05999100000000000000000000000000000000000000000000000000000000815260040161396e929190614f3d565b60405180910390fd5b6000613981612d4b565b905060005b8351811015613b905760006139a48286611ee990919063ffffffff16565b905060006139bb8386611ee990919063ffffffff16565b9050600073ffffffffffffffffffffffffffffffffffffffff168873ffffffffffffffffffffffffffffffffffffffff1614613ae857600080600084815260200190815260200160002060008a73ffffffffffffffffffffffffffffffffffffffff1673ffffffffffffffffffffffffffffffffffffffff16815260200190815260200160002054905081811015613a9057888183856040517f03dee4c5000000000000000000000000000000000000000000000000000000008152600401613a879493929190615140565b60405180910390fd5b81810360008085815260200190815260200160002060008b73ffffffffffffffffffffffffffffffffffffffff1673ffffffffffffffffffffffffffffffffffffffff16815260200190815260200160002081905550505b600073ffffffffffffffffffffffffffffffffffffffff168773ffffffffffffffffffffffffffffffffffffffff1614613b83578060008084815260200190815260200160002060008973ffffffffffffffffffffffffffffffffffffffff1673ffffffffffffffffffffffffffffffffffffffff1681526020019081526020016000206000828254613b7b91906151b4565b925050819055505b5050806001019050613986565b506001835103613c4f576000613bb0600085611ee990919063ffffffff16565b90506000613bc8600085611ee990919063ffffffff16565b90508573ffffffffffffffffffffffffffffffffffffffff168773ffffffffffffffffffffffffffffffffffffffff168473ffffffffffffffffffffffffffffffffffffffff167fc3d58168c5ae7397731d063d5bbf3d657854427343f4c083240f7aacaa2d0f628585604051613c40929190614f3d565b60405180910390a45050613cce565b8373ffffffffffffffffffffffffffffffffffffffff168573ffffffffffffffffffffffffffffffffffffffff168273ffffffffffffffffffffffffffffffffffffffff167f4a39dc06d4c0dbc64b70af90fd698a233a518aa5d07e595d983b8c0526c8f7fb8686604051613cc59291906151e8565b60405180910390a45b5050505050565b6000604051905090565b600080fd5b600080fd5b600073ffffffffffffffffffffffffffffffffffffffff82169050919050565b6000613d1482613ce9565b9050919050565b613d2481613d09565b8114613d2f57600080fd5b50565b600081359050613d4181613d1b565b92915050565b6000819050919050565b613d5a81613d47565b8114613d6557600080fd5b50565b600081359050613d7781613d51565b92915050565b60008060408385031215613d9457613d93613cdf565b5b6000613da285828601613d32565b9250506020613db385828601613d68565b9150509250929050565b613dc681613d47565b82525050565b6000602082019050613de16000830184613dbd565b92915050565b60007fffffffff0000000000000000000000000000000000000000000000000000000082169050919050565b613e1c81613de7565b8114613e2757600080fd5b50565b600081359050613e3981613e13565b92915050565b600060208284031215613e5557613e54613cdf565b5b6000613e6384828501613e2a565b91505092915050565b60008115159050919050565b613e8181613e6c565b82525050565b6000602082019050613e9c6000830184613e78565b92915050565b600080fd5b600080fd5b6000601f19601f8301169050919050565b7f4e487b7100000000000000000000000000000000000000000000000000000000600052604160045260246000fd5b613ef582613eac565b810181811067ffffffffffffffff82111715613f1457613f13613ebd565b5b80604052505050565b6000613f27613cd5565b9050613f338282613eec565b919050565b600067ffffffffffffffff821115613f5357613f52613ebd565b5b613f5c82613eac565b9050602081019050919050565b82818337600083830152505050565b6000613f8b613f8684613f38565b613f1d565b905082815260208101848484011115613fa757613fa6613ea7565b5b613fb2848285613f69565b509392505050565b600082601f830112613fcf57613fce613ea2565b5b8135613fdf848260208601613f78565b91505092915050565b600060208284031215613ffe57613ffd613cdf565b5b600082013567ffffffffffffffff81111561401c5761401b613ce4565b5b61402884828501613fba565b91505092915050565b60006020828403121561404757614046613cdf565b5b600061405584828501613d68565b91505092915050565b600081519050919050565b600082825260208201905092915050565b60005b8381101561409857808201518184015260208101905061407d565b60008484015250505050565b60006140af8261405e565b6140b98185614069565b93506140c981856020860161407a565b6140d281613eac565b840191505092915050565b600060208201905081810360008301526140f781846140a4565b905092915050565b6000806040838503121561411657614115613cdf565b5b600061412485828601613d68565b925050602083013567ffffffffffffffff81111561414557614144613ce4565b5b61415185828601613fba565b9150509250929050565b600067ffffffffffffffff82111561417657614175613ebd565b5b602082029050602081019050919050565b600080fd5b600061419f61419a8461415b565b613f1d565b905080838252602082019050602084028301858111156141c2576141c1614187565b5b835b818110156141eb57806141d78882613d68565b8452602084019350506020810190506141c4565b5050509392505050565b600082601f83011261420a57614209613ea2565b5b813561421a84826020860161418c565b91505092915050565b600067ffffffffffffffff82111561423e5761423d613ebd565b5b61424782613eac565b9050602081019050919050565b600061426761426284614223565b613f1d565b90508281526020810184848401111561428357614282613ea7565b5b61428e848285613f69565b509392505050565b600082601f8301126142ab576142aa613ea2565b5b81356142bb848260208601614254565b91505092915050565b600080600080608085870312156142de576142dd613cdf565b5b60006142ec87828801613d32565b945050602085013567ffffffffffffffff81111561430d5761430c613ce4565b5b614319878288016141f5565b935050604085013567ffffffffffffffff81111561433a57614339613ce4565b5b614346878288016141f5565b925050606085013567ffffffffffffffff81111561436757614366613ce4565b5b61437387828801614296565b91505092959194509250565b6000819050919050565b6143928161437f565b811461439d57600080fd5b50565b6000813590506143af81614389565b92915050565b6000602082840312156143cb576143ca613cdf565b5b60006143d9848285016143a0565b91505092915050565b6143eb8161437f565b82525050565b600060208201905061440660008301846143e2565b92915050565b600080600080600060a0868803121561442857614427613cdf565b5b600061443688828901613d32565b955050602061444788828901613d32565b945050604086013567ffffffffffffffff81111561446857614467613ce4565b5b614474888289016141f5565b935050606086013567ffffffffffffffff81111561449557614494613ce4565b5b6144a1888289016141f5565b925050608086013567ffffffffffffffff8111156144c2576144c1613ce4565b5b6144ce88828901614296565b9150509295509295909350565b600080604083850312156144f2576144f1613cdf565b5b6000614500858286016143a0565b925050602061451185828601613d32565b9150509250929050565b600067ffffffffffffffff82111561453657614535613ebd565b5b602082029050602081019050919050565b600061455a6145558461451b565b613f1d565b9050808382526020820190506020840283018581111561457d5761457c614187565b5b835b818110156145a657806145928882613d32565b84526020840193505060208101905061457f565b5050509392505050565b600082601f8301126145c5576145c4613ea2565b5b81356145d5848260208601614547565b91505092915050565b600080604083850312156145f5576145f4613cdf565b5b600083013567ffffffffffffffff81111561461357614612613ce4565b5b61461f858286016145b0565b925050602083013567ffffffffffffffff8111156146405761463f613ce4565b5b61464c858286016141f5565b9150509250929050565b600081519050919050565b600082825260208201905092915050565b6000819050602082019050919050565b61468b81613d47565b82525050565b600061469d8383614682565b60208301905092915050565b6000602082019050919050565b60006146c182614656565b6146cb8185614661565b93506146d683614672565b8060005b838110156147075781516146ee8882614691565b97506146f9836146a9565b9250506001810190506146da565b5085935050505092915050565b6000602082019050818103600083015261472e81846146b6565b905092915050565b60008060006060848603121561474f5761474e613cdf565b5b600061475d86828701613d32565b935050602084013567ffffffffffffffff81111561477e5761477d613ce4565b5b61478a868287016141f5565b925050604084013567ffffffffffffffff8111156147ab576147aa613ce4565b5b6147b7868287016141f5565b9150509250925092565b600081519050919050565b600082825260208201905092915050565b6000819050602082019050919050565b6147f681613e6c565b82525050565b600061480883836147ed565b60208301905092915050565b6000602082019050919050565b600061482c826147c1565b61483681856147cc565b9350614841836147dd565b8060005b8381101561487257815161485988826147fc565b975061486483614814565b925050600181019050614845565b5085935050505092915050565b600060208201905081810360008301526148998184614821565b905092915050565b600080600080608085870312156148bb576148ba613cdf565b5b60006148c987828801613d32565b94505060206148da87828801613d68565b93505060406148eb87828801613d68565b925050606085013567ffffffffffffffff81111561490c5761490b613ce4565b5b61491887828801614296565b91505092959194509250565b61492d81613d09565b82525050565b60006020820190506149486000830184614924565b92915050565b61495781613e6c565b811461496257600080fd5b50565b6000813590506149748161494e565b92915050565b6000806040838503121561499157614990613cdf565b5b600061499f85828601613d32565b92505060206149b085828601614965565b9150509250929050565b600080604083850312156149d1576149d0613cdf565b5b60006149df85828601613d32565b92505060206149f085828601613d32565b9150509250929050565b600080600080600060a08688031215614a1657614a15613cdf565b5b6000614a2488828901613d32565b9550506020614a3588828901613d32565b9450506040614a4688828901613d68565b9350506060614a5788828901613d68565b925050608086013567ffffffffffffffff811115614a7857614a77613ce4565b5b614a8488828901614296565b9150509295509295909350565b600060208284031215614aa757614aa6613cdf565b5b6000614ab584828501613d32565b91505092915050565b600067ffffffffffffffff821115614ad957614ad8613ebd565b5b602082029050602081019050919050565b6000614afd614af884614abe565b613f1d565b90508083825260208201905060208402830185811115614b2057614b1f614187565b5b835b81811015614b495780614b358882614965565b845260208401935050602081019050614b22565b5050509392505050565b600082601f830112614b6857614b67613ea2565b5b8135614b78848260208601614aea565b91505092915050565b600080600060608486031215614b9a57614b99613cdf565b5b600084013567ffffffffffffffff811115614bb857614bb7613ce4565b5b614bc486828701613fba565b9350506020614bd586828701613d32565b925050604084013567ffffffffffffffff811115614bf657614bf5613ce4565b5b614c0286828701614b53565b9150509250925092565b600080600060608486031215614c2557614c24613cdf565b5b6000614c3386828701613d32565b9350506020614c4486828701613d68565b9250506040614c5586828701613d68565b9150509250925092565b7f4e487b7100000000000000000000000000000000000000000000000000000000600052602260045260246000fd5b60006002820490506001821680614ca657607f821691505b602082108103614cb957614cb8614c5f565b5b50919050565b60008190508160005260206000209050919050565b60006020601f8301049050919050565b600082821b905092915050565b600060088302614d217fffffffffffffffffffffffffffffffffffffffffffffffffffffffffffffffff82614ce4565b614d2b8683614ce4565b95508019841693508086168417925050509392505050565b6000819050919050565b6000614d68614d63614d5e84613d47565b614d43565b613d47565b9050919050565b6000819050919050565b614d8283614d4d565b614d96614d8e82614d6f565b848454614cf1565b825550505050565b600090565b614dab614d9e565b614db6818484614d79565b505050565b5b81811015614dda57614dcf600082614da3565b600181019050614dbc565b5050565b601f821115614e1f57614df081614cbf565b614df984614cd4565b81016020851015614e08578190505b614e1c614e1485614cd4565b830182614dbb565b50505b505050565b600082821c905092915050565b6000614e4260001984600802614e24565b1980831691505092915050565b6000614e5b8383614e31565b9150826002028217905092915050565b614e748261405e565b67ffffffffffffffff811115614e8d57614e8c613ebd565b5b614e978254614c8e565b614ea2828285614dde565b600060209050601f831160018114614ed55760008415614ec3578287015190505b614ecd8582614e4f565b865550614f35565b601f198416614ee386614cbf565b60005b82811015614f0b57848901518255600182019150602085019450602081019050614ee6565b86831015614f285784890151614f24601f891682614e31565b8355505b6001600288020188555050505b505050505050565b6000604082019050614f526000830185613dbd565b614f5f6020830184613dbd565b9392505050565b7f4e487b7100000000000000000000000000000000000000000000000000000000600052603260045260246000fd5b6000604082019050614faa6000830185614924565b614fb76020830184614924565b9392505050565b6000604082019050614fd36000830185614924565b614fe060208301846143e2565b9392505050565b600081519050919050565b600082825260208201905092915050565b600061500e82614fe7565b6150188185614ff2565b935061502881856020860161407a565b61503181613eac565b840191505092915050565b600060a0820190506150516000830188614924565b61505e6020830187614924565b61506b6040830186613dbd565b6150786060830185613dbd565b818103608083015261508a8184615003565b90509695505050505050565b6000815190506150a581613e13565b92915050565b6000602082840312156150c1576150c0613cdf565b5b60006150cf84828501615096565b91505092915050565b600060a0820190506150ed6000830188614924565b6150fa6020830187614924565b818103604083015261510c81866146b6565b9050818103606083015261512081856146b6565b905081810360808301526151348184615003565b90509695505050505050565b60006080820190506151556000830187614924565b6151626020830186613dbd565b61516f6040830185613dbd565b61517c6060830184613dbd565b95945050505050565b7f4e487b7100000000000000000000000000000000000000000000000000000000600052601160045260246000fd5b60006151bf82613d47565b91506151ca83613d47565b92508282019050808211156151e2576151e1615185565b5b92915050565b6000604082019050818103600083015261520281856146b6565b9050818103602083015261521681846146b6565b9050939250505056fea26469706673582212208f2bbdecbd946f07d0e238fcfba04a855e9b40680d2ea30e63e08b4775fcfe1564736f6c634300081e0033",
  "linkReferences": {},
  "deployedLinkReferences": {}
}