{
  "_format": "hh-sol-artifact-1",
  "contractName": "StrataForgeProxyFactory",
  "sourceName": "contracts/StrataForgeProxyFactory.sol",
  "abi": [
    {
      "inputs": [
        {
          "internalType": "address",
          "name": "_erc20Implementation",
          "type": "address"
        },
        {
          "internalType": "address",
          "name": "_erc721Implementation",
          "type": "address"
        },
        {
          "internalType": "address",
          "name": "_erc1155Implementation",
          "type": "address"
        },
        {
          "internalType": "address",
          "name": "_memecoinImplementation",
          "type": "address"
        },
        {
          "internalType": "address",
          "name": "_stablecoinImplementation",
          "type": "address"
        }
      ],
      "stateMutability": "nonpayable",
      "type": "constructor"
    },
    {
      "inputs": [],
      "name": "FailedDeployment",
      "type": "error"
    },
    {
      "inputs": [
        {
          "internalType": "uint256",
          "name": "balance",
          "type": "uint256"
        },
        {
          "internalType": "uint256",
          "name": "needed",
          "type": "uint256"
        }
      ],
      "name": "InsufficientBalance",
      "type": "error"
    },
    {
      "inputs": [],
      "name": "InvalidImplementation",
      "type": "error"
    },
    {
      "inputs": [
        {
          "internalType": "string",
          "name": "uri",
          "type": "string"
        },
        {
          "internalType": "address",
          "name": "tokenOwner",
          "type": "address"
        },
        {
          "internalType": "bool[]",
          "name": "features",
          "type": "bool[]"
        }
      ],
      "name": "createERC1155",
      "outputs": [
        {
          "internalType": "address",
          "name": "",
          "type": "address"
        }
      ],
      "stateMutability": "nonpayable",
      "type": "function"
    },
    {
      "inputs": [
        {
          "internalType": "string",
          "name": "name",
          "type": "string"
        },
        {
          "internalType": "string",
          "name": "symbol",
          "type": "string"
        },
        {
          "internalType": "uint256",
          "name": "initialSupply",
          "type": "uint256"
        },
        {
          "internalType": "uint8",
          "name": "decimals",
          "type": "uint8"
        },
        {
          "internalType": "address",
          "name": "tokenOwner",
          "type": "address"
        },
        {
          "internalType": "bool[]",
          "name": "features",
          "type": "bool[]"
        }
      ],
      "name": "createERC20",
      "outputs": [
        {
          "internalType": "address",
          "name": "",
          "type": "address"
        }
      ],
      "stateMutability": "nonpayable",
      "type": "function"
    },
    {
      "inputs": [
        {
          "internalType": "string",
          "name": "name",
          "type": "string"
        },
        {
          "internalType": "string",
          "name": "symbol",
          "type": "string"
        },
        {
          "internalType": "address",
          "name": "tokenOwner",
          "type": "address"
        },
        {
          "internalType": "bool[]",
          "name": "features",
          "type": "bool[]"
        }
      ],
      "name": "createERC721",
      "outputs": [
        {
          "internalType": "address",
          "name": "",
          "type": "address"
        }
      ],
      "stateMutability": "nonpayable",
      "type": "function"
    },
    {
      "inputs": [
        {
          "internalType": "string",
          "name": "name",
          "type": "string"
        },
        {
          "internalType": "string",
          "name": "symbol",
          "type": "string"
        },
        {
          "internalType": "uint256",
          "name": "initialSupply",
          "type": "uint256"
        },
        {
          "internalType": "uint8",
          "name": "decimals",
          "type": "uint8"
        },
        {
          "internalType": "address",
          "name": "tokenOwner",
          "type": "address"
        },
        {
          "internalType": "uint256",
          "name": "maxWalletSize",
          "type": "uint256"
        },
        {
          "internalType": "uint256",
          "name": "maxTransactionAmount",
          "type": "uint256"
        },
        {
          "internalType": "bool[]",
          "name": "features",
          "type": "bool[]"
        }
      ],
      "name": "createMemecoin",
      "outputs": [
        {
          "internalType": "address",
          "name": "",
          "type": "address"
        }
      ],
      "stateMutability": "nonpayable",
      "type": "function"
    },
    {
      "inputs": [
        {
          "internalType": "string",
          "name": "name",
          "type": "string"
        },
        {
          "internalType": "string",
          "name": "symbol",
          "type": "string"
        },
        {
          "internalType": "address",
          "name": "collateralToken",
          "type": "address"
        },
        {
          "internalType": "uint256",
          "name": "collateralRatio",
          "type": "uint256"
        },
        {
          "internalType": "address",
          "name": "treasury",
          "type": "address"
        },
        {
          "internalType": "address",
          "name": "tokenOwner",
          "type": "address"
        },
        {
          "internalType": "bool[]",
          "name": "features",
          "type": "bool[]"
        }
      ],
      "name": "createStablecoin",
      "outputs": [
        {
          "internalType": "address",
          "name": "",
          "type": "address"
        }
      ],
      "stateMutability": "nonpayable",
      "type": "function"
    },
    {
      "inputs": [],
      "name": "erc1155Implementation",
      "outputs": [
        {
          "internalType": "address",
          "name": "",
          "type": "address"
        }
      ],
      "stateMutability": "view",
      "type": "function"
    },
    {
      "inputs": [],
      "name": "erc20Implementation",
      "outputs": [
        {
          "internalType": "address",
          "name": "",
          "type": "address"
        }
      ],
      "stateMutability": "view",
      "type": "function"
    },
    {
      "inputs": [],
      "name": "erc721Implementation",
      "outputs": [
        {
          "internalType": "address",
          "name": "",
          "type": "address"
        }
      ],
      "stateMutability": "view",
      "type": "function"
    },
    {
      "inputs": [],
      "name": "memecoinImplementation",
      "outputs": [
        {
          "internalType": "address",
          "name": "",
          "type": "address"
        }
      ],
      "stateMutability": "view",
      "type": "function"
    },
    {
      "inputs": [],
      "name": "stablecoinImplementation",
      "outputs": [
        {
          "internalType": "address",
          "name": "",
          "type": "address"
        }
      ],
      "stateMutability": "view",
      "type": "function"
    }
  ],
  "bytecode": "0x61012060405234801561001157600080fd5b50604051611b9f380380611b9f833981810160405281019061003391906102e8565b600073ffffffffffffffffffffffffffffffffffffffff168573ffffffffffffffffffffffffffffffffffffffff16148061009a5750600073ffffffffffffffffffffffffffffffffffffffff168473ffffffffffffffffffffffffffffffffffffffff16145b806100d15750600073ffffffffffffffffffffffffffffffffffffffff168373ffffffffffffffffffffffffffffffffffffffff16145b806101085750600073ffffffffffffffffffffffffffffffffffffffff168273ffffffffffffffffffffffffffffffffffffffff16145b8061013f5750600073ffffffffffffffffffffffffffffffffffffffff168173ffffffffffffffffffffffffffffffffffffffff16145b15610176576040517f68155f9a00000000000000000000000000000000000000000000000000000000815260040160405180910390fd5b8473ffffffffffffffffffffffffffffffffffffffff1660808173ffffffffffffffffffffffffffffffffffffffff16815250508373ffffffffffffffffffffffffffffffffffffffff1660a08173ffffffffffffffffffffffffffffffffffffffff16815250508273ffffffffffffffffffffffffffffffffffffffff1660c08173ffffffffffffffffffffffffffffffffffffffff16815250508173ffffffffffffffffffffffffffffffffffffffff1660e08173ffffffffffffffffffffffffffffffffffffffff16815250508073ffffffffffffffffffffffffffffffffffffffff166101008173ffffffffffffffffffffffffffffffffffffffff16815250505050505050610363565b600080fd5b600073ffffffffffffffffffffffffffffffffffffffff82169050919050565b60006102b58261028a565b9050919050565b6102c5816102aa565b81146102d057600080fd5b50565b6000815190506102e2816102bc565b92915050565b600080600080600060a0868803121561030457610303610285565b5b6000610312888289016102d3565b9550506020610323888289016102d3565b9450506040610334888289016102d3565b9350506060610345888289016102d3565b9250506080610356888289016102d3565b9150509295509295909350565b60805160a05160c05160e051610100516117d56103ca600039600081816103dc015261074a015260008181610726015261077401526000818161056001526105ae01526000818161022b0152610901015260008181610255015261058401526117d56000f3fe608060405234801561001057600080fd5b506004361061009e5760003560e01c8063b27ea3fa11610066578063b27ea3fa1461015d578063bf989c781461018d578063d41b462f146101ab578063e5564f2a146101c9578063f912470a146101f95761009e565b80634a80a319146100a3578063595a2c36146100c157806360405eea146100f15780636e204c4114610121578063901be0411461013f575b600080fd5b6100ab610229565b6040516100b89190610bc7565b60405180910390f35b6100db60048036038101906100d69190610ed7565b61024d565b6040516100e89190610bc7565b60405180910390f35b61010b60048036038101906101069190610fb8565b6103d4565b6040516101189190610bc7565b60405180910390f35b61012961055e565b6040516101369190610bc7565b60405180910390f35b610147610582565b6040516101549190610bc7565b60405180910390f35b610177600480360381019061017291906110ae565b6105a6565b6040516101849190610bc7565b60405180910390f35b610195610724565b6040516101a29190610bc7565b60405180910390f35b6101b3610748565b6040516101c09190610bc7565b60405180910390f35b6101e360048036038101906101de9190611139565b61076c565b6040516101f09190610bc7565b60405180910390f35b610213600480360381019061020e9190611243565b6108f9565b6040516102209190610bc7565b60405180910390f35b7f000000000000000000000000000000000000000000000000000000000000000081565b6000806102797f0000000000000000000000000000000000000000000000000000000000000000610a7a565b9050600088888888888860405160240161029896959493929190611471565b6040516020818303038152906040527fb25d16c6000000000000000000000000000000000000000000000000000000007bffffffffffffffffffffffffffffffffffffffffffffffffffffffff19166020820180517bffffffffffffffffffffffffffffffffffffffffffffffffffffffff8381831617835250505050905060008273ffffffffffffffffffffffffffffffffffffffff168260405161033e919061152e565b6000604051808303816000865af19150503d806000811461037b576040519150601f19603f3d011682016040523d82523d6000602084013e610380565b606091505b50509050806103c4576040517f08c379a00000000000000000000000000000000000000000000000000000000081526004016103bb90611591565b60405180910390fd5b8293505050509695505050505050565b6000806104007f0000000000000000000000000000000000000000000000000000000000000000610a7a565b905060008989898989898960405160240161042197969594939291906115b1565b6040516020818303038152906040527f03a0c810000000000000000000000000000000000000000000000000000000007bffffffffffffffffffffffffffffffffffffffffffffffffffffffff19166020820180517bffffffffffffffffffffffffffffffffffffffffffffffffffffffff8381831617835250505050905060008273ffffffffffffffffffffffffffffffffffffffff16826040516104c7919061152e565b6000604051808303816000865af19150503d8060008114610504576040519150601f19603f3d011682016040523d82523d6000602084013e610509565b606091505b505090508061054d576040517f08c379a000000000000000000000000000000000000000000000000000000000815260040161054490611591565b60405180910390fd5b829350505050979650505050505050565b7f000000000000000000000000000000000000000000000000000000000000000081565b7f000000000000000000000000000000000000000000000000000000000000000081565b6000806105d27f0000000000000000000000000000000000000000000000000000000000000000610a7a565b905060008585856040516024016105eb93929190611635565b6040516020818303038152906040527ff4aad1ce000000000000000000000000000000000000000000000000000000007bffffffffffffffffffffffffffffffffffffffffffffffffffffffff19166020820180517bffffffffffffffffffffffffffffffffffffffffffffffffffffffff8381831617835250505050905060008273ffffffffffffffffffffffffffffffffffffffff1682604051610691919061152e565b6000604051808303816000865af19150503d80600081146106ce576040519150601f19603f3d011682016040523d82523d6000602084013e6106d3565b606091505b5050905080610717576040517f08c379a000000000000000000000000000000000000000000000000000000000815260040161070e90611591565b60405180910390fd5b8293505050509392505050565b7f000000000000000000000000000000000000000000000000000000000000000081565b7f000000000000000000000000000000000000000000000000000000000000000081565b6000806107987f0000000000000000000000000000000000000000000000000000000000000000610a7a565b905060008a8a8a8a8a8a8a8a6040516024016107bb98979695949392919061167a565b6040516020818303038152906040527fd8d86d2f000000000000000000000000000000000000000000000000000000007bffffffffffffffffffffffffffffffffffffffffffffffffffffffff19166020820180517bffffffffffffffffffffffffffffffffffffffffffffffffffffffff8381831617835250505050905060008273ffffffffffffffffffffffffffffffffffffffff1682604051610861919061152e565b6000604051808303816000865af19150503d806000811461089e576040519150601f19603f3d011682016040523d82523d6000602084013e6108a3565b606091505b50509050806108e7576040517f08c379a00000000000000000000000000000000000000000000000000000000081526004016108de90611591565b60405180910390fd5b82935050505098975050505050505050565b6000806109257f0000000000000000000000000000000000000000000000000000000000000000610a7a565b9050600086868686604051602401610940949392919061170d565b6040516020818303038152906040527f54e10b48000000000000000000000000000000000000000000000000000000007bffffffffffffffffffffffffffffffffffffffffffffffffffffffff19166020820180517bffffffffffffffffffffffffffffffffffffffffffffffffffffffff8381831617835250505050905060008273ffffffffffffffffffffffffffffffffffffffff16826040516109e6919061152e565b6000604051808303816000865af19150503d8060008114610a23576040519150601f19603f3d011682016040523d82523d6000602084013e610a28565b606091505b5050905080610a6c576040517f08c379a0000000000000000000000000000000000000000000000000000000008152600401610a6390611591565b60405180910390fd5b829350505050949350505050565b6000610a87826000610a8e565b9050919050565b600081471015610ad75747826040517fcf479181000000000000000000000000000000000000000000000000000000008152600401610ace929190611776565b60405180910390fd5b763d602d80600a3d3981f3363d3d373d3d3d363d730000008360601b60e81c176000526e5af43d82803e903d91602b57fd5bf38360781b176020526037600983f09050600073ffffffffffffffffffffffffffffffffffffffff168173ffffffffffffffffffffffffffffffffffffffff1603610b80576040517fb06ebf3d00000000000000000000000000000000000000000000000000000000815260040160405180910390fd5b92915050565b600073ffffffffffffffffffffffffffffffffffffffff82169050919050565b6000610bb182610b86565b9050919050565b610bc181610ba6565b82525050565b6000602082019050610bdc6000830184610bb8565b92915050565b6000604051905090565b600080fd5b600080fd5b600080fd5b600080fd5b6000601f19601f8301169050919050565b7f4e487b7100000000000000000000000000000000000000000000000000000000600052604160045260246000fd5b610c4982610c00565b810181811067ffffffffffffffff82111715610c6857610c67610c11565b5b80604052505050565b6000610c7b610be2565b9050610c878282610c40565b919050565b600067ffffffffffffffff821115610ca757610ca6610c11565b5b610cb082610c00565b9050602081019050919050565b82818337600083830152505050565b6000610cdf610cda84610c8c565b610c71565b905082815260208101848484011115610cfb57610cfa610bfb565b5b610d06848285610cbd565b509392505050565b600082601f830112610d2357610d22610bf6565b5b8135610d33848260208601610ccc565b91505092915050565b6000819050919050565b610d4f81610d3c565b8114610d5a57600080fd5b50565b600081359050610d6c81610d46565b92915050565b600060ff82169050919050565b610d8881610d72565b8114610d9357600080fd5b50565b600081359050610da581610d7f565b92915050565b610db481610ba6565b8114610dbf57600080fd5b50565b600081359050610dd181610dab565b92915050565b600067ffffffffffffffff821115610df257610df1610c11565b5b602082029050602081019050919050565b600080fd5b60008115159050919050565b610e1d81610e08565b8114610e2857600080fd5b50565b600081359050610e3a81610e14565b92915050565b6000610e53610e4e84610dd7565b610c71565b90508083825260208201905060208402830185811115610e7657610e75610e03565b5b835b81811015610e9f5780610e8b8882610e2b565b845260208401935050602081019050610e78565b5050509392505050565b600082601f830112610ebe57610ebd610bf6565b5b8135610ece848260208601610e40565b91505092915050565b60008060008060008060c08789031215610ef457610ef3610bec565b5b600087013567ffffffffffffffff811115610f1257610f11610bf1565b5b610f1e89828a01610d0e565b965050602087013567ffffffffffffffff811115610f3f57610f3e610bf1565b5b610f4b89828a01610d0e565b9550506040610f5c89828a01610d5d565b9450506060610f6d89828a01610d96565b9350506080610f7e89828a01610dc2565b92505060a087013567ffffffffffffffff811115610f9f57610f9e610bf1565b5b610fab89828a01610ea9565b9150509295509295509295565b600080600080600080600060e0888a031215610fd757610fd6610bec565b5b600088013567ffffffffffffffff811115610ff557610ff4610bf1565b5b6110018a828b01610d0e565b975050602088013567ffffffffffffffff81111561102257611021610bf1565b5b61102e8a828b01610d0e565b965050604061103f8a828b01610dc2565b95505060606110508a828b01610d5d565b94505060806110618a828b01610dc2565b93505060a06110728a828b01610dc2565b92505060c088013567ffffffffffffffff81111561109357611092610bf1565b5b61109f8a828b01610ea9565b91505092959891949750929550565b6000806000606084860312156110c7576110c6610bec565b5b600084013567ffffffffffffffff8111156110e5576110e4610bf1565b5b6110f186828701610d0e565b935050602061110286828701610dc2565b925050604084013567ffffffffffffffff81111561112357611122610bf1565b5b61112f86828701610ea9565b9150509250925092565b600080600080600080600080610100898b03121561115a57611159610bec565b5b600089013567ffffffffffffffff81111561117857611177610bf1565b5b6111848b828c01610d0e565b985050602089013567ffffffffffffffff8111156111a5576111a4610bf1565b5b6111b18b828c01610d0e565b97505060406111c28b828c01610d5d565b96505060606111d38b828c01610d96565b95505060806111e48b828c01610dc2565b94505060a06111f58b828c01610d5d565b93505060c06112068b828c01610d5d565b92505060e089013567ffffffffffffffff81111561122757611226610bf1565b5b6112338b828c01610ea9565b9150509295985092959890939650565b6000806000806080858703121561125d5761125c610bec565b5b600085013567ffffffffffffffff81111561127b5761127a610bf1565b5b61128787828801610d0e565b945050602085013567ffffffffffffffff8111156112a8576112a7610bf1565b5b6112b487828801610d0e565b93505060406112c587828801610dc2565b925050606085013567ffffffffffffffff8111156112e6576112e5610bf1565b5b6112f287828801610ea9565b91505092959194509250565b600081519050919050565b600082825260208201905092915050565b60005b8381101561133857808201518184015260208101905061131d565b60008484015250505050565b600061134f826112fe565b6113598185611309565b935061136981856020860161131a565b61137281610c00565b840191505092915050565b60006bffffffffffffffffffffffff82169050919050565b61139e8161137d565b82525050565b6113ad81610d72565b82525050565b600081519050919050565b600082825260208201905092915050565b6000819050602082019050919050565b6113e881610e08565b82525050565b60006113fa83836113df565b60208301905092915050565b6000602082019050919050565b600061141e826113b3565b61142881856113be565b9350611433836113cf565b8060005b8381101561146457815161144b88826113ee565b975061145683611406565b925050600181019050611437565b5085935050505092915050565b600060c082019050818103600083015261148b8189611344565b9050818103602083015261149f8188611344565b90506114ae6040830187611395565b6114bb60608301866113a4565b6114c86080830185610bb8565b81810360a08301526114da8184611413565b9050979650505050505050565b600081519050919050565b600081905092915050565b6000611508826114e7565b61151281856114f2565b935061152281856020860161131a565b80840191505092915050565b600061153a82846114fd565b915081905092915050565b7f496e697469616c697a6174696f6e206661696c65640000000000000000000000600082015250565b600061157b601583611309565b915061158682611545565b602082019050919050565b600060208201905081810360008301526115aa8161156e565b9050919050565b600060e08201905081810360008301526115cb818a611344565b905081810360208301526115df8189611344565b90506115ee6040830188610bb8565b6115fb6060830187611395565b6116086080830186610bb8565b61161560a0830185610bb8565b81810360c08301526116278184611413565b905098975050505050505050565b6000606082019050818103600083015261164f8186611344565b905061165e6020830185610bb8565b81810360408301526116708184611413565b9050949350505050565b6000610100820190508181036000830152611695818b611344565b905081810360208301526116a9818a611344565b90506116b86040830189611395565b6116c560608301886113a4565b6116d26080830187610bb8565b6116df60a0830186611395565b6116ec60c0830185611395565b81810360e08301526116fe8184611413565b90509998505050505050505050565b600060808201905081810360008301526117278187611344565b9050818103602083015261173b8186611344565b905061174a6040830185610bb8565b818103606083015261175c8184611413565b905095945050505050565b61177081610d3c565b82525050565b600060408201905061178b6000830185611767565b6117986020830184611767565b939250505056fea2646970667358221220d1107718b5b30a6fd104063bc396d61530b6997af1098077f2bac3e637a6a9fd64736f6c634300081e0033",
  "linkReferences": {},
  "deployedLinkReferences": {}
}