{
  "_format": "hh-sol-artifact-1",
  "contractName": "StrataForgeFactory",
  "sourceName": "contracts/StrataForgeFactory.sol",
  "abi": [
    {
      "inputs": [
        {
          "internalType": "address",
          "name": "_adminContract",
          "type": "address"
        },
        {
          "internalType": "address",
          "name": "_tokenFactory",
          "type": "address"
        }
      ],
      "stateMutability": "nonpayable",
      "type": "constructor"
    },
    {
      "inputs": [],
      "name": "EnforcedPause",
      "type": "error"
    },
    {
      "inputs": [],
      "name": "ExpectedPause",
      "type": "error"
    },
    {
      "inputs": [],
      "name": "InsufficientPayment",
      "type": "error"
    },
    {
      "inputs": [],
      "name": "InvalidAddress",
      "type": "error"
    },
    {
      "inputs": [],
      "name": "InvalidCollateralToken",
      "type": "error"
    },
    {
      "inputs": [],
      "name": "InvalidName",
      "type": "error"
    },
    {
      "inputs": [],
      "name": "InvalidSupply",
      "type": "error"
    },
    {
      "inputs": [],
      "name": "InvalidSymbol",
      "type": "error"
    },
    {
      "inputs": [],
      "name": "InvalidTokenId",
      "type": "error"
    },
    {
      "inputs": [],
      "name": "InvalidTreasury",
      "type": "error"
    },
    {
      "inputs": [],
      "name": "InvalidURI",
      "type": "error"
    },
    {
      "inputs": [],
      "name": "NotAdmin",
      "type": "error"
    },
    {
      "inputs": [],
      "name": "ReentrancyGuardReentrantCall",
      "type": "error"
    },
    {
      "anonymous": false,
      "inputs": [
        {
          "indexed": false,
          "internalType": "address",
          "name": "account",
          "type": "address"
        }
      ],
      "name": "Paused",
      "type": "event"
    },
    {
      "anonymous": false,
      "inputs": [
        {
          "indexed": true,
          "internalType": "address",
          "name": "creator",
          "type": "address"
        },
        {
          "indexed": true,
          "internalType": "address",
          "name": "tokenAddress",
          "type": "address"
        },
        {
          "indexed": false,
          "internalType": "string",
          "name": "name",
          "type": "string"
        },
        {
          "indexed": false,
          "internalType": "string",
          "name": "symbol",
          "type": "string"
        },
        {
          "indexed": false,
          "internalType": "uint96",
          "name": "initialSupply",
          "type": "uint96"
        },
        {
          "indexed": false,
          "internalType": "uint40",
          "name": "timestamp",
          "type": "uint40"
        },
        {
          "indexed": false,
          "internalType": "enum StrataForgeFactory.TokenType",
          "name": "tokenType",
          "type": "uint8"
        },
        {
          "indexed": false,
          "internalType": "uint64",
          "name": "tokenId",
          "type": "uint64"
        }
      ],
      "name": "TokenCreated",
      "type": "event"
    },
    {
      "anonymous": false,
      "inputs": [
        {
          "indexed": false,
          "internalType": "address",
          "name": "account",
          "type": "address"
        }
      ],
      "name": "Unpaused",
      "type": "event"
    },
    {
      "inputs": [],
      "name": "adminContract",
      "outputs": [
        {
          "internalType": "contract IStrataForgeAdmin",
          "name": "",
          "type": "address"
        }
      ],
      "stateMutability": "view",
      "type": "function"
    },
    {
      "inputs": [
        {
          "internalType": "string",
          "name": "uri",
          "type": "string"
        },
        {
          "internalType": "bool[]",
          "name": "features",
          "type": "bool[]"
        }
      ],
      "name": "createERC1155",
      "outputs": [
        {
          "internalType": "address",
          "name": "",
          "type": "address"
        }
      ],
      "stateMutability": "payable",
      "type": "function"
    },
    {
      "inputs": [
        {
          "internalType": "string",
          "name": "name",
          "type": "string"
        },
        {
          "internalType": "string",
          "name": "symbol",
          "type": "string"
        },
        {
          "internalType": "uint96",
          "name": "initialSupply",
          "type": "uint96"
        },
        {
          "internalType": "uint8",
          "name": "decimals",
          "type": "uint8"
        },
        {
          "internalType": "bool[]",
          "name": "features",
          "type": "bool[]"
        }
      ],
      "name": "createERC20",
      "outputs": [
        {
          "internalType": "address",
          "name": "",
          "type": "address"
        }
      ],
      "stateMutability": "payable",
      "type": "function"
    },
    {
      "inputs": [
        {
          "internalType": "string",
          "name": "name",
          "type": "string"
        },
        {
          "internalType": "string",
          "name": "symbol",
          "type": "string"
        },
        {
          "internalType": "bool[]",
          "name": "features",
          "type": "bool[]"
        }
      ],
      "name": "createERC721",
      "outputs": [
        {
          "internalType": "address",
          "name": "",
          "type": "address"
        }
      ],
      "stateMutability": "payable",
      "type": "function"
    },
    {
      "inputs": [
        {
          "internalType": "string",
          "name": "name",
          "type": "string"
        },
        {
          "internalType": "string",
          "name": "symbol",
          "type": "string"
        },
        {
          "internalType": "uint96",
          "name": "initialSupply",
          "type": "uint96"
        },
        {
          "internalType": "uint8",
          "name": "decimals",
          "type": "uint8"
        },
        {
          "internalType": "uint96",
          "name": "maxWalletSize",
          "type": "uint96"
        },
        {
          "internalType": "uint96",
          "name": "maxTransactionAmount",
          "type": "uint96"
        },
        {
          "internalType": "bool[]",
          "name": "features",
          "type": "bool[]"
        }
      ],
      "name": "createMemecoin",
      "outputs": [
        {
          "internalType": "address",
          "name": "",
          "type": "address"
        }
      ],
      "stateMutability": "payable",
      "type": "function"
    },
    {
      "inputs": [
        {
          "internalType": "string",
          "name": "name",
          "type": "string"
        },
        {
          "internalType": "string",
          "name": "symbol",
          "type": "string"
        },
        {
          "internalType": "address",
          "name": "collateralToken",
          "type": "address"
        },
        {
          "internalType": "uint96",
          "name": "collateralRatio",
          "type": "uint96"
        },
        {
          "internalType": "address",
          "name": "treasury",
          "type": "address"
        },
        {
          "internalType": "bool[]",
          "name": "features",
          "type": "bool[]"
        }
      ],
      "name": "createStablecoin",
      "outputs": [
        {
          "internalType": "address",
          "name": "",
          "type": "address"
        }
      ],
      "stateMutability": "payable",
      "type": "function"
    },
    {
      "inputs": [
        {
          "internalType": "address",
          "name": "",
          "type": "address"
        }
      ],
      "name": "creatorTokenCount",
      "outputs": [
        {
          "internalType": "uint64",
          "name": "",
          "type": "uint64"
        }
      ],
      "stateMutability": "view",
      "type": "function"
    },
    {
      "inputs": [
        {
          "internalType": "uint64",
          "name": "tokenId",
          "type": "uint64"
        }
      ],
      "name": "getTokenById",
      "outputs": [
        {
          "components": [
            {
              "internalType": "address",
              "name": "tokenAddress",
              "type": "address"
            },
            {
              "internalType": "string",
              "name": "name",
              "type": "string"
            },
            {
              "internalType": "string",
              "name": "symbol",
              "type": "string"
            },
            {
              "internalType": "uint96",
              "name": "initialSupply",
              "type": "uint96"
            },
            {
              "internalType": "uint40",
              "name": "timestamp",
              "type": "uint40"
            },
            {
              "internalType": "enum StrataForgeFactory.TokenType",
              "name": "tokenType",
              "type": "uint8"
            },
            {
              "internalType": "address",
              "name": "creator",
              "type": "address"
            }
          ],
          "internalType": "struct StrataForgeFactory.TokenInfo",
          "name": "",
          "type": "tuple"
        }
      ],
      "stateMutability": "view",
      "type": "function"
    },
    {
      "inputs": [
        {
          "internalType": "address",
          "name": "creator",
          "type": "address"
        }
      ],
      "name": "getTokenCount",
      "outputs": [
        {
          "internalType": "uint64",
          "name": "",
          "type": "uint64"
        }
      ],
      "stateMutability": "view",
      "type": "function"
    },
    {
      "inputs": [],
      "name": "getTotalTokenCount",
      "outputs": [
        {
          "internalType": "uint64",
          "name": "",
          "type": "uint64"
        }
      ],
      "stateMutability": "view",
      "type": "function"
    },
    {
      "inputs": [],
      "name": "pause",
      "outputs": [],
      "stateMutability": "nonpayable",
      "type": "function"
    },
    {
      "inputs": [],
      "name": "paused",
      "outputs": [
        {
          "internalType": "bool",
          "name": "",
          "type": "bool"
        }
      ],
      "stateMutability": "view",
      "type": "function"
    },
    {
      "inputs": [],
      "name": "tokenFactory",
      "outputs": [
        {
          "internalType": "contract IStrataForgeTokens",
          "name": "",
          "type": "address"
        }
      ],
      "stateMutability": "view",
      "type": "function"
    },
    {
      "inputs": [],
      "name": "tokenIdCounter",
      "outputs": [
        {
          "internalType": "uint64",
          "name": "",
          "type": "uint64"
        }
      ],
      "stateMutability": "view",
      "type": "function"
    },
    {
      "inputs": [
        {
          "internalType": "uint64",
          "name": "",
          "type": "uint64"
        }
      ],
      "name": "tokenRegistry",
      "outputs": [
        {
          "internalType": "address",
          "name": "tokenAddress",
          "type": "address"
        },
        {
          "internalType": "string",
          "name": "name",
          "type": "string"
        },
        {
          "internalType": "string",
          "name": "symbol",
          "type": "string"
        },
        {
          "internalType": "uint96",
          "name": "initialSupply",
          "type": "uint96"
        },
        {
          "internalType": "uint40",
          "name": "timestamp",
          "type": "uint40"
        },
        {
          "internalType": "enum StrataForgeFactory.TokenType",
          "name": "tokenType",
          "type": "uint8"
        },
        {
          "internalType": "address",
          "name": "creator",
          "type": "address"
        }
      ],
      "stateMutability": "view",
      "type": "function"
    },
    {
      "inputs": [],
      "name": "unpause",
      "outputs": [],
      "stateMutability": "nonpayable",
      "type": "function"
    },
    {
      "inputs": [
        {
          "internalType": "address",
          "name": "_adminContract",
          "type": "address"
        }
      ],
      "name": "updateAdminContract",
      "outputs": [],
      "stateMutability": "nonpayable",
      "type": "function"
    }
  ],
  "bytecode": "0x608060405234801561001057600080fd5b5060405161383b38038061383b83398181016040528101906100329190610125565b6001600081905550816001806101000a81548173ffffffffffffffffffffffffffffffffffffffff021916908373ffffffffffffffffffffffffffffffffffffffff16021790555080600260006101000a81548173ffffffffffffffffffffffffffffffffffffffff021916908373ffffffffffffffffffffffffffffffffffffffff1602179055505050610165565b600080fd5b600073ffffffffffffffffffffffffffffffffffffffff82169050919050565b60006100f2826100c7565b9050919050565b610102816100e7565b811461010d57600080fd5b50565b60008151905061011f816100f9565b92915050565b6000806040838503121561013c5761013b6100c2565b5b600061014a85828601610110565b925050602061015b85828601610110565b9150509250929050565b6136c7806101746000396000f3fe6080604052600436106100fe5760003560e01c8063993e09f711610095578063c563ca8b11610064578063c563ca8b14610315578063c904021414610345578063d8b71fbf14610388578063e5362667146103c5578063e77772fe146103f0576100fe565b8063993e09f71461024d5780639a57bcdb1461027d578063bb969d57146102ba578063c05c5e94146102ea576100fe565b806371795eb7116100d157806371795eb71461019e57806376727fa3146101ce5780638456cb591461020b57806398bdf6f514610222576100fe565b806303e06df714610103578063388d2c24146101335780633f4ba83a1461015c5780635c975abb14610173575b600080fd5b61011d6004803603810190610118919061257b565b61041b565b60405161012a91906126b2565b60405180910390f35b34801561013f57600080fd5b5061015a600480360381019061015591906126f9565b6106a2565b005b34801561016857600080fd5b5061017161090a565b005b34801561017f57600080fd5b50610188610ad3565b6040516101959190612735565b60405180910390f35b6101b860048036038101906101b39190612750565b610aea565b6040516101c591906126b2565b60405180910390f35b3480156101da57600080fd5b506101f560048036038101906101f091906126f9565b610df3565b6040516102029190612854565b60405180910390f35b34801561021757600080fd5b50610220610e50565b005b34801561022e57600080fd5b50610237611019565b6040516102449190612854565b60405180910390f35b6102676004803603810190610262919061286f565b611033565b60405161027491906126b2565b60405180910390f35b34801561028957600080fd5b506102a4600480360381019061029f91906126f9565b6112b4565b6040516102b19190612854565b60405180910390f35b6102d460048036038101906102cf919061293e565b6112db565b6040516102e191906126b2565b60405180910390f35b3480156102f657600080fd5b506102ff61153b565b60405161030c9190612a15565b60405180910390f35b61032f600480360381019061032a9190612a30565b61155f565b60405161033c91906126b2565b60405180910390f35b34801561035157600080fd5b5061036c60048036038101906103679190612b03565b611793565b60405161037f9796959493929190612c55565b60405180910390f35b34801561039457600080fd5b506103af60048036038101906103aa9190612b03565b61195b565b6040516103bc9190612dfb565b60405180910390f35b3480156103d157600080fd5b506103da611c87565b6040516103e79190612854565b60405180910390f35b3480156103fc57600080fd5b50610405611ca5565b6040516104129190612e3e565b60405180910390f35b6000610425611ccb565b61042d611d11565b6000885103610468576040517f430f13b300000000000000000000000000000000000000000000000000000000815260040160405180910390fd5b60008751036104a3576040517f04119bc400000000000000000000000000000000000000000000000000000000815260040160405180910390fd5b6000866bffffffffffffffffffffffff16036104eb576040517f15ae672700000000000000000000000000000000000000000000000000000000815260040160405180910390fd5b60006104f683611d52565b905060018054906101000a900473ffffffffffffffffffffffffffffffffffffffff1673ffffffffffffffffffffffffffffffffffffffff1663a4f901223433846040518463ffffffff1660e01b8152600401610554929190612e68565b60206040518083038185885af1158015610572573d6000803e3d6000fd5b50505050506040513d601f19601f820116820180604052508101906105979190612ea6565b6105cd576040517fcd1c886700000000000000000000000000000000000000000000000000000000815260040160405180910390fd5b6000600260009054906101000a900473ffffffffffffffffffffffffffffffffffffffff1673ffffffffffffffffffffffffffffffffffffffff1663e5564f2a8b8b8b8b338c8c8c6040518963ffffffff1660e01b8152600401610638989796959493929190612fcc565b6020604051808303816000875af1158015610657573d6000803e3d6000fd5b505050506040513d601f19601f8201168201806040525081019061067b9190613074565b905061068b8a8a8a846003611dab565b925050506106976120fd565b979650505050505050565b600080600090505b60018054906101000a900473ffffffffffffffffffffffffffffffffffffffff1673ffffffffffffffffffffffffffffffffffffffff16632b7832b36040518163ffffffff1660e01b8152600401602060405180830381865afa158015610715573d6000803e3d6000fd5b505050506040513d601f19601f8201168201806040525081019061073991906130b6565b60ff168160ff161015610828573373ffffffffffffffffffffffffffffffffffffffff1660018054906101000a900473ffffffffffffffffffffffffffffffffffffffff1673ffffffffffffffffffffffffffffffffffffffff16638a252240836040518263ffffffff1660e01b81526004016107b691906130e3565b602060405180830381865afa1580156107d3573d6000803e3d6000fd5b505050506040513d601f19601f820116820180604052508101906107f79190613074565b73ffffffffffffffffffffffffffffffffffffffff160361081b5760019150610828565b80806001019150506106aa565b5080610860576040517f7bfa4b9f00000000000000000000000000000000000000000000000000000000815260040160405180910390fd5b600073ffffffffffffffffffffffffffffffffffffffff168273ffffffffffffffffffffffffffffffffffffffff16036108c6576040517fe6c4247b00000000000000000000000000000000000000000000000000000000815260040160405180910390fd5b816001806101000a81548173ffffffffffffffffffffffffffffffffffffffff021916908373ffffffffffffffffffffffffffffffffffffffff1602179055505050565b600080600090505b60018054906101000a900473ffffffffffffffffffffffffffffffffffffffff1673ffffffffffffffffffffffffffffffffffffffff16632b7832b36040518163ffffffff1660e01b8152600401602060405180830381865afa15801561097d573d6000803e3d6000fd5b505050506040513d601f19601f820116820180604052508101906109a191906130b6565b60ff168160ff161015610a90573373ffffffffffffffffffffffffffffffffffffffff1660018054906101000a900473ffffffffffffffffffffffffffffffffffffffff1673ffffffffffffffffffffffffffffffffffffffff16638a252240836040518263ffffffff1660e01b8152600401610a1e91906130e3565b602060405180830381865afa158015610a3b573d6000803e3d6000fd5b505050506040513d601f19601f82011682018060405250810190610a5f9190613074565b73ffffffffffffffffffffffffffffffffffffffff1603610a835760019150610a90565b8080600101915050610912565b5080610ac8576040517f7bfa4b9f00000000000000000000000000000000000000000000000000000000815260040160405180910390fd5b610ad0612107565b50565b6000600160009054906101000a900460ff16905090565b6000610af4611ccb565b610afc611d11565b6000875103610b37576040517f430f13b300000000000000000000000000000000000000000000000000000000815260040160405180910390fd5b6000865103610b72576040517f04119bc400000000000000000000000000000000000000000000000000000000815260040160405180910390fd5b600073ffffffffffffffffffffffffffffffffffffffff168573ffffffffffffffffffffffffffffffffffffffff1603610bd8576040517f74003c0a00000000000000000000000000000000000000000000000000000000815260040160405180910390fd5b600073ffffffffffffffffffffffffffffffffffffffff168373ffffffffffffffffffffffffffffffffffffffff1603610c3e576040517f14bcf5c800000000000000000000000000000000000000000000000000000000815260040160405180910390fd5b6000610c4983611d52565b905060018054906101000a900473ffffffffffffffffffffffffffffffffffffffff1673ffffffffffffffffffffffffffffffffffffffff1663a4f901223433846040518463ffffffff1660e01b8152600401610ca7929190612e68565b60206040518083038185885af1158015610cc5573d6000803e3d6000fd5b50505050506040513d601f19601f82011682018060405250810190610cea9190612ea6565b610d20576040517fcd1c886700000000000000000000000000000000000000000000000000000000815260040160405180910390fd5b6000600260009054906101000a900473ffffffffffffffffffffffffffffffffffffffff1673ffffffffffffffffffffffffffffffffffffffff166360405eea8a8a8a8a8a338b6040518863ffffffff1660e01b8152600401610d8997969594939291906130fe565b6020604051808303816000875af1158015610da8573d6000803e3d6000fd5b505050506040513d601f19601f82011682018060405250810190610dcc9190613074565b9050610ddd89896000846004611dab565b92505050610de96120fd565b9695505050505050565b6000600460008373ffffffffffffffffffffffffffffffffffffffff1673ffffffffffffffffffffffffffffffffffffffff16815260200190815260200160002060009054906101000a900467ffffffffffffffff169050919050565b600080600090505b60018054906101000a900473ffffffffffffffffffffffffffffffffffffffff1673ffffffffffffffffffffffffffffffffffffffff16632b7832b36040518163ffffffff1660e01b8152600401602060405180830381865afa158015610ec3573d6000803e3d6000fd5b505050506040513d601f19601f82011682018060405250810190610ee791906130b6565b60ff168160ff161015610fd6573373ffffffffffffffffffffffffffffffffffffffff1660018054906101000a900473ffffffffffffffffffffffffffffffffffffffff1673ffffffffffffffffffffffffffffffffffffffff16638a252240836040518263ffffffff1660e01b8152600401610f6491906130e3565b602060405180830381865afa158015610f81573d6000803e3d6000fd5b505050506040513d601f19601f82011682018060405250810190610fa59190613074565b73ffffffffffffffffffffffffffffffffffffffff1603610fc95760019150610fd6565b8080600101915050610e58565b508061100e576040517f7bfa4b9f00000000000000000000000000000000000000000000000000000000815260040160405180910390fd5b61101661216a565b50565b600560009054906101000a900467ffffffffffffffff1681565b600061103d611ccb565b611045611d11565b6000865103611080576040517f430f13b300000000000000000000000000000000000000000000000000000000815260040160405180910390fd5b60008551036110bb576040517f04119bc400000000000000000000000000000000000000000000000000000000815260040160405180910390fd5b6000846bffffffffffffffffffffffff1603611103576040517f15ae672700000000000000000000000000000000000000000000000000000000815260040160405180910390fd5b600061110e83611d52565b905060018054906101000a900473ffffffffffffffffffffffffffffffffffffffff1673ffffffffffffffffffffffffffffffffffffffff1663a4f901223433846040518463ffffffff1660e01b815260040161116c929190612e68565b60206040518083038185885af115801561118a573d6000803e3d6000fd5b50505050506040513d601f19601f820116820180604052508101906111af9190612ea6565b6111e5576040517fcd1c886700000000000000000000000000000000000000000000000000000000815260040160405180910390fd5b6000600260009054906101000a900473ffffffffffffffffffffffffffffffffffffffff1673ffffffffffffffffffffffffffffffffffffffff1663595a2c3689898989338a6040518763ffffffff1660e01b815260040161124c96959493929190613182565b6020604051808303816000875af115801561126b573d6000803e3d6000fd5b505050506040513d601f19601f8201168201806040525081019061128f9190613074565b905061129f888888846000611dab565b925050506112ab6120fd565b95945050505050565b60046020528060005260406000206000915054906101000a900467ffffffffffffffff1681565b60006112e5611ccb565b6112ed611d11565b6000835103611328576040517f3ba0191100000000000000000000000000000000000000000000000000000000815260040160405180910390fd5b600061133383611d52565b905060018054906101000a900473ffffffffffffffffffffffffffffffffffffffff1673ffffffffffffffffffffffffffffffffffffffff1663a4f901223433846040518463ffffffff1660e01b8152600401611391929190612e68565b60206040518083038185885af11580156113af573d6000803e3d6000fd5b50505050506040513d601f19601f820116820180604052508101906113d49190612ea6565b61140a576040517fcd1c886700000000000000000000000000000000000000000000000000000000815260040160405180910390fd5b6000600260009054906101000a900473ffffffffffffffffffffffffffffffffffffffff1673ffffffffffffffffffffffffffffffffffffffff1663b27ea3fa8633876040518463ffffffff1660e01b815260040161146b939291906131f8565b6020604051808303816000875af115801561148a573d6000803e3d6000fd5b505050506040513d601f19601f820116820180604052508101906114ae9190613074565b90506115296040518060400160405280600781526020017f45524331313535000000000000000000000000000000000000000000000000008152506040518060400160405280600581526020017f4d554c54490000000000000000000000000000000000000000000000000000008152506000846002611dab565b925050506115356120fd565b92915050565b60018054906101000a900473ffffffffffffffffffffffffffffffffffffffff1681565b6000611569611ccb565b611571611d11565b60008451036115ac576040517f430f13b300000000000000000000000000000000000000000000000000000000815260040160405180910390fd5b60008351036115e7576040517f04119bc400000000000000000000000000000000000000000000000000000000815260040160405180910390fd5b60006115f283611d52565b905060018054906101000a900473ffffffffffffffffffffffffffffffffffffffff1673ffffffffffffffffffffffffffffffffffffffff1663a4f901223433846040518463ffffffff1660e01b8152600401611650929190612e68565b60206040518083038185885af115801561166e573d6000803e3d6000fd5b50505050506040513d601f19601f820116820180604052508101906116939190612ea6565b6116c9576040517fcd1c886700000000000000000000000000000000000000000000000000000000815260040160405180910390fd5b6000600260009054906101000a900473ffffffffffffffffffffffffffffffffffffffff1673ffffffffffffffffffffffffffffffffffffffff1663f912470a878733886040518563ffffffff1660e01b815260040161172c949392919061323d565b6020604051808303816000875af115801561174b573d6000803e3d6000fd5b505050506040513d601f19601f8201168201806040525081019061176f9190613074565b905061178086866000846001611dab565b9250505061178c6120fd565b9392505050565b60036020528060005260406000206000915090508060000160009054906101000a900473ffffffffffffffffffffffffffffffffffffffff16908060010180546117dc906132c6565b80601f0160208091040260200160405190810160405280929190818152602001828054611808906132c6565b80156118555780601f1061182a57610100808354040283529160200191611855565b820191906000526020600020905b81548152906001019060200180831161183857829003601f168201915b50505050509080600201805461186a906132c6565b80601f0160208091040260200160405190810160405280929190818152602001828054611896906132c6565b80156118e35780601f106118b8576101008083540402835291602001916118e3565b820191906000526020600020905b8154815290600101906020018083116118c657829003601f168201915b5050505050908060030160009054906101000a90046bffffffffffffffffffffffff169080600301600c9054906101000a900464ffffffffff16908060030160119054906101000a900460ff16908060040160009054906101000a900473ffffffffffffffffffffffffffffffffffffffff16905087565b611963612214565b60008267ffffffffffffffff1614806119a55750600560009054906101000a900467ffffffffffffffff1667ffffffffffffffff168267ffffffffffffffff16115b156119dc576040517f3f6cc76800000000000000000000000000000000000000000000000000000000815260040160405180910390fd5b600360008367ffffffffffffffff1667ffffffffffffffff1681526020019081526020016000206040518060e00160405290816000820160009054906101000a900473ffffffffffffffffffffffffffffffffffffffff1673ffffffffffffffffffffffffffffffffffffffff1673ffffffffffffffffffffffffffffffffffffffff168152602001600182018054611a74906132c6565b80601f0160208091040260200160405190810160405280929190818152602001828054611aa0906132c6565b8015611aed5780601f10611ac257610100808354040283529160200191611aed565b820191906000526020600020905b815481529060010190602001808311611ad057829003601f168201915b50505050508152602001600282018054611b06906132c6565b80601f0160208091040260200160405190810160405280929190818152602001828054611b32906132c6565b8015611b7f5780601f10611b5457610100808354040283529160200191611b7f565b820191906000526020600020905b815481529060010190602001808311611b6257829003601f168201915b505050505081526020016003820160009054906101000a90046bffffffffffffffffffffffff166bffffffffffffffffffffffff166bffffffffffffffffffffffff16815260200160038201600c9054906101000a900464ffffffffff1664ffffffffff1664ffffffffff1681526020016003820160119054906101000a900460ff166004811115611c1457611c13612bde565b5b6004811115611c2657611c25612bde565b5b81526020016004820160009054906101000a900473ffffffffffffffffffffffffffffffffffffffff1673ffffffffffffffffffffffffffffffffffffffff1673ffffffffffffffffffffffffffffffffffffffff16815250509050919050565b6000600560009054906101000a900467ffffffffffffffff16905090565b600260009054906101000a900473ffffffffffffffffffffffffffffffffffffffff1681565b600260005403611d07576040517f3ee5aeb500000000000000000000000000000000000000000000000000000000815260040160405180910390fd5b6002600081905550565b611d19610ad3565b15611d50576040517fd93c066500000000000000000000000000000000000000000000000000000000815260040160405180910390fd5b565b6000806000905060005b8351811015611da157838181518110611d7857611d776132f7565b5b602002602001015115611d94578180611d9090613355565b9250505b8080600101915050611d5c565b5080915050919050565b6000806005600081819054906101000a900467ffffffffffffffff16611dd09061337e565b91906101000a81548167ffffffffffffffff021916908367ffffffffffffffff1602179055905060004290506040518060e001604052808673ffffffffffffffffffffffffffffffffffffffff168152602001898152602001888152602001876bffffffffffffffffffffffff1681526020018264ffffffffff168152602001856004811115611e6357611e62612bde565b5b81526020013373ffffffffffffffffffffffffffffffffffffffff16815250600360008467ffffffffffffffff1667ffffffffffffffff16815260200190815260200160002060008201518160000160006101000a81548173ffffffffffffffffffffffffffffffffffffffff021916908373ffffffffffffffffffffffffffffffffffffffff1602179055506020820151816001019081611f059190613550565b506040820151816002019081611f1b9190613550565b5060608201518160030160006101000a8154816bffffffffffffffffffffffff02191690836bffffffffffffffffffffffff160217905550608082015181600301600c6101000a81548164ffffffffff021916908364ffffffffff16021790555060a08201518160030160116101000a81548160ff02191690836004811115611fa757611fa6612bde565b5b021790555060c08201518160040160006101000a81548173ffffffffffffffffffffffffffffffffffffffff021916908373ffffffffffffffffffffffffffffffffffffffff160217905550905050600460003373ffffffffffffffffffffffffffffffffffffffff1673ffffffffffffffffffffffffffffffffffffffff168152602001908152602001600020600081819054906101000a900467ffffffffffffffff16809291906120599061337e565b91906101000a81548167ffffffffffffffff021916908367ffffffffffffffff160217905550508473ffffffffffffffffffffffffffffffffffffffff163373ffffffffffffffffffffffffffffffffffffffff167f35810a3041f9a9994950a465e85e50c06520b30164ae47bbff90b4ca98208f4c8a8a8a868a896040516120e796959493929190613622565b60405180910390a3849250505095945050505050565b6001600081905550565b61210f6121cc565b6000600160006101000a81548160ff0219169083151502179055507f5db9ee0a495bf2e6ff9c91a7834c1ba4fdd244a5e8aa4e537bd38aeae4b073aa61215361220c565b60405161216091906126b2565b60405180910390a1565b612172611d11565b60018060006101000a81548160ff0219169083151502179055507f62e78cea01bee320cd4e420270b5ea74000d11b0c9f74754ebdbfc544b05a2586121b561220c565b6040516121c291906126b2565b60405180910390a1565b6121d4610ad3565b61220a576040517f8dfc202b00000000000000000000000000000000000000000000000000000000815260040160405180910390fd5b565b600033905090565b6040518060e00160405280600073ffffffffffffffffffffffffffffffffffffffff168152602001606081526020016060815260200160006bffffffffffffffffffffffff168152602001600064ffffffffff1681526020016000600481111561228157612280612bde565b5b8152602001600073ffffffffffffffffffffffffffffffffffffffff1681525090565b6000604051905090565b600080fd5b600080fd5b600080fd5b600080fd5b6000601f19601f8301169050919050565b7f4e487b7100000000000000000000000000000000000000000000000000000000600052604160045260246000fd5b61230b826122c2565b810181811067ffffffffffffffff8211171561232a576123296122d3565b5b80604052505050565b600061233d6122a4565b90506123498282612302565b919050565b600067ffffffffffffffff821115612369576123686122d3565b5b612372826122c2565b9050602081019050919050565b82818337600083830152505050565b60006123a161239c8461234e565b612333565b9050828152602081018484840111156123bd576123bc6122bd565b5b6123c884828561237f565b509392505050565b600082601f8301126123e5576123e46122b8565b5b81356123f584826020860161238e565b91505092915050565b60006bffffffffffffffffffffffff82169050919050565b61241f816123fe565b811461242a57600080fd5b50565b60008135905061243c81612416565b92915050565b600060ff82169050919050565b61245881612442565b811461246357600080fd5b50565b6000813590506124758161244f565b92915050565b600067ffffffffffffffff821115612496576124956122d3565b5b602082029050602081019050919050565b600080fd5b60008115159050919050565b6124c1816124ac565b81146124cc57600080fd5b50565b6000813590506124de816124b8565b92915050565b60006124f76124f28461247b565b612333565b9050808382526020820190506020840283018581111561251a576125196124a7565b5b835b81811015612543578061252f88826124cf565b84526020840193505060208101905061251c565b5050509392505050565b600082601f830112612562576125616122b8565b5b81356125728482602086016124e4565b91505092915050565b600080600080600080600060e0888a03121561259a576125996122ae565b5b600088013567ffffffffffffffff8111156125b8576125b76122b3565b5b6125c48a828b016123d0565b975050602088013567ffffffffffffffff8111156125e5576125e46122b3565b5b6125f18a828b016123d0565b96505060406126028a828b0161242d565b95505060606126138a828b01612466565b94505060806126248a828b0161242d565b93505060a06126358a828b0161242d565b92505060c088013567ffffffffffffffff811115612656576126556122b3565b5b6126628a828b0161254d565b91505092959891949750929550565b600073ffffffffffffffffffffffffffffffffffffffff82169050919050565b600061269c82612671565b9050919050565b6126ac81612691565b82525050565b60006020820190506126c760008301846126a3565b92915050565b6126d681612691565b81146126e157600080fd5b50565b6000813590506126f3816126cd565b92915050565b60006020828403121561270f5761270e6122ae565b5b600061271d848285016126e4565b91505092915050565b61272f816124ac565b82525050565b600060208201905061274a6000830184612726565b92915050565b60008060008060008060c0878903121561276d5761276c6122ae565b5b600087013567ffffffffffffffff81111561278b5761278a6122b3565b5b61279789828a016123d0565b965050602087013567ffffffffffffffff8111156127b8576127b76122b3565b5b6127c489828a016123d0565b95505060406127d589828a016126e4565b94505060606127e689828a0161242d565b93505060806127f789828a016126e4565b92505060a087013567ffffffffffffffff811115612818576128176122b3565b5b61282489828a0161254d565b9150509295509295509295565b600067ffffffffffffffff82169050919050565b61284e81612831565b82525050565b60006020820190506128696000830184612845565b92915050565b600080600080600060a0868803121561288b5761288a6122ae565b5b600086013567ffffffffffffffff8111156128a9576128a86122b3565b5b6128b5888289016123d0565b955050602086013567ffffffffffffffff8111156128d6576128d56122b3565b5b6128e2888289016123d0565b94505060406128f38882890161242d565b935050606061290488828901612466565b925050608086013567ffffffffffffffff811115612925576129246122b3565b5b6129318882890161254d565b9150509295509295909350565b60008060408385031215612955576129546122ae565b5b600083013567ffffffffffffffff811115612973576129726122b3565b5b61297f858286016123d0565b925050602083013567ffffffffffffffff8111156129a05761299f6122b3565b5b6129ac8582860161254d565b9150509250929050565b6000819050919050565b60006129db6129d66129d184612671565b6129b6565b612671565b9050919050565b60006129ed826129c0565b9050919050565b60006129ff826129e2565b9050919050565b612a0f816129f4565b82525050565b6000602082019050612a2a6000830184612a06565b92915050565b600080600060608486031215612a4957612a486122ae565b5b600084013567ffffffffffffffff811115612a6757612a666122b3565b5b612a73868287016123d0565b935050602084013567ffffffffffffffff811115612a9457612a936122b3565b5b612aa0868287016123d0565b925050604084013567ffffffffffffffff811115612ac157612ac06122b3565b5b612acd8682870161254d565b9150509250925092565b612ae081612831565b8114612aeb57600080fd5b50565b600081359050612afd81612ad7565b92915050565b600060208284031215612b1957612b186122ae565b5b6000612b2784828501612aee565b91505092915050565b600081519050919050565b600082825260208201905092915050565b60005b83811015612b6a578082015181840152602081019050612b4f565b60008484015250505050565b6000612b8182612b30565b612b8b8185612b3b565b9350612b9b818560208601612b4c565b612ba4816122c2565b840191505092915050565b612bb8816123fe565b82525050565b600064ffffffffff82169050919050565b612bd881612bbe565b82525050565b7f4e487b7100000000000000000000000000000000000000000000000000000000600052602160045260246000fd5b60058110612c1e57612c1d612bde565b5b50565b6000819050612c2f82612c0d565b919050565b6000612c3f82612c21565b9050919050565b612c4f81612c34565b82525050565b600060e082019050612c6a600083018a6126a3565b8181036020830152612c7c8189612b76565b90508181036040830152612c908188612b76565b9050612c9f6060830187612baf565b612cac6080830186612bcf565b612cb960a0830185612c46565b612cc660c08301846126a3565b98975050505050505050565b612cdb81612691565b82525050565b600082825260208201905092915050565b6000612cfd82612b30565b612d078185612ce1565b9350612d17818560208601612b4c565b612d20816122c2565b840191505092915050565b612d34816123fe565b82525050565b612d4381612bbe565b82525050565b612d5281612c34565b82525050565b600060e083016000830151612d706000860182612cd2565b5060208301518482036020860152612d888282612cf2565b91505060408301518482036040860152612da28282612cf2565b9150506060830151612db76060860182612d2b565b506080830151612dca6080860182612d3a565b5060a0830151612ddd60a0860182612d49565b5060c0830151612df060c0860182612cd2565b508091505092915050565b60006020820190508181036000830152612e158184612d58565b905092915050565b6000612e28826129e2565b9050919050565b612e3881612e1d565b82525050565b6000602082019050612e536000830184612e2f565b92915050565b612e6281612442565b82525050565b6000604082019050612e7d60008301856126a3565b612e8a6020830184612e59565b9392505050565b600081519050612ea0816124b8565b92915050565b600060208284031215612ebc57612ebb6122ae565b5b6000612eca84828501612e91565b91505092915050565b6000819050919050565b6000612ef8612ef3612eee846123fe565b6129b6565b612ed3565b9050919050565b612f0881612edd565b82525050565b600081519050919050565b600082825260208201905092915050565b6000819050602082019050919050565b612f43816124ac565b82525050565b6000612f558383612f3a565b60208301905092915050565b6000602082019050919050565b6000612f7982612f0e565b612f838185612f19565b9350612f8e83612f2a565b8060005b83811015612fbf578151612fa68882612f49565b9750612fb183612f61565b925050600181019050612f92565b5085935050505092915050565b6000610100820190508181036000830152612fe7818b612b76565b90508181036020830152612ffb818a612b76565b905061300a6040830189612eff565b6130176060830188612e59565b61302460808301876126a3565b61303160a0830186612eff565b61303e60c0830185612eff565b81810360e08301526130508184612f6e565b90509998505050505050505050565b60008151905061306e816126cd565b92915050565b60006020828403121561308a576130896122ae565b5b60006130988482850161305f565b91505092915050565b6000815190506130b08161244f565b92915050565b6000602082840312156130cc576130cb6122ae565b5b60006130da848285016130a1565b91505092915050565b60006020820190506130f86000830184612e59565b92915050565b600060e0820190508181036000830152613118818a612b76565b9050818103602083015261312c8189612b76565b905061313b60408301886126a3565b6131486060830187612eff565b61315560808301866126a3565b61316260a08301856126a3565b81810360c08301526131748184612f6e565b905098975050505050505050565b600060c082019050818103600083015261319c8189612b76565b905081810360208301526131b08188612b76565b90506131bf6040830187612eff565b6131cc6060830186612e59565b6131d960808301856126a3565b81810360a08301526131eb8184612f6e565b9050979650505050505050565b600060608201905081810360008301526132128186612b76565b905061322160208301856126a3565b81810360408301526132338184612f6e565b9050949350505050565b600060808201905081810360008301526132578187612b76565b9050818103602083015261326b8186612b76565b905061327a60408301856126a3565b818103606083015261328c8184612f6e565b905095945050505050565b7f4e487b7100000000000000000000000000000000000000000000000000000000600052602260045260246000fd5b600060028204905060018216806132de57607f821691505b6020821081036132f1576132f0613297565b5b50919050565b7f4e487b7100000000000000000000000000000000000000000000000000000000600052603260045260246000fd5b7f4e487b7100000000000000000000000000000000000000000000000000000000600052601160045260246000fd5b600061336082612442565b915060ff820361337357613372613326565b5b600182019050919050565b600061338982612831565b915067ffffffffffffffff82036133a3576133a2613326565b5b600182019050919050565b60008190508160005260206000209050919050565b60006020601f8301049050919050565b600082821b905092915050565b6000600883026134107fffffffffffffffffffffffffffffffffffffffffffffffffffffffffffffffff826133d3565b61341a86836133d3565b95508019841693508086168417925050509392505050565b600061344d61344861344384612ed3565b6129b6565b612ed3565b9050919050565b6000819050919050565b61346783613432565b61347b61347382613454565b8484546133e0565b825550505050565b600090565b613490613483565b61349b81848461345e565b505050565b5b818110156134bf576134b4600082613488565b6001810190506134a1565b5050565b601f821115613504576134d5816133ae565b6134de846133c3565b810160208510156134ed578190505b6135016134f9856133c3565b8301826134a0565b50505b505050565b600082821c905092915050565b600061352760001984600802613509565b1980831691505092915050565b60006135408383613516565b9150826002028217905092915050565b61355982612b30565b67ffffffffffffffff811115613572576135716122d3565b5b61357c82546132c6565b6135878282856134c3565b600060209050601f8311600181146135ba57600084156135a8578287015190505b6135b28582613534565b86555061361a565b601f1984166135c8866133ae565b60005b828110156135f0578489015182556001820191506020850194506020810190506135cb565b8683101561360d5784890151613609601f891682613516565b8355505b6001600288020188555050505b505050505050565b600060c082019050818103600083015261363c8189612b76565b905081810360208301526136508188612b76565b905061365f6040830187612baf565b61366c6060830186612bcf565b6136796080830185612c46565b61368660a0830184612845565b97965050505050505056fea264697066735822122071a52df72493b7bfa37660cdace63264d99ede8dbedf8f53a17bf66294af2bd164736f6c634300081e0033",
  "linkReferences": {},
  "deployedLinkReferences": {}
}