{
  "_format": "hh-sol-artifact-1",
  "contractName": "StrataForgeStablecoinImplementation",
  "sourceName": "contracts/StrataForgeTokenImplementation.sol",
  "abi": [
    {
      "inputs": [],
      "stateMutability": "nonpayable",
      "type": "constructor"
    },
    {
      "inputs": [],
      "name": "AccessControlBadConfirmation",
      "type": "error"
    },
    {
      "inputs": [
        {
          "internalType": "address",
          "name": "account",
          "type": "address"
        },
        {
          "internalType": "bytes32",
          "name": "neededRole",
          "type": "bytes32"
        }
      ],
      "name": "AccessControlUnauthorizedAccount",
      "type": "error"
    },
    {
      "inputs": [],
      "name": "AlreadyInitialized",
      "type": "error"
    },
    {
      "inputs": [
        {
          "internalType": "address",
          "name": "spender",
          "type": "address"
        },
        {
          "internalType": "uint256",
          "name": "allowance",
          "type": "uint256"
        },
        {
          "internalType": "uint256",
          "name": "needed",
          "type": "uint256"
        }
      ],
      "name": "ERC20InsufficientAllowance",
      "type": "error"
    },
    {
      "inputs": [
        {
          "internalType": "address",
          "name": "sender",
          "type": "address"
        },
        {
          "internalType": "uint256",
          "name": "balance",
          "type": "uint256"
        },
        {
          "internalType": "uint256",
          "name": "needed",
          "type": "uint256"
        }
      ],
      "name": "ERC20InsufficientBalance",
      "type": "error"
    },
    {
      "inputs": [
        {
          "internalType": "address",
          "name": "approver",
          "type": "address"
        }
      ],
      "name": "ERC20InvalidApprover",
      "type": "error"
    },
    {
      "inputs": [
        {
          "internalType": "address",
          "name": "receiver",
          "type": "address"
        }
      ],
      "name": "ERC20InvalidReceiver",
      "type": "error"
    },
    {
      "inputs": [
        {
          "internalType": "address",
          "name": "sender",
          "type": "address"
        }
      ],
      "name": "ERC20InvalidSender",
      "type": "error"
    },
    {
      "inputs": [
        {
          "internalType": "address",
          "name": "spender",
          "type": "address"
        }
      ],
      "name": "ERC20InvalidSpender",
      "type": "error"
    },
    {
      "inputs": [],
      "name": "EnforcedPause",
      "type": "error"
    },
    {
      "inputs": [],
      "name": "ExpectedPause",
      "type": "error"
    },
    {
      "inputs": [],
      "name": "FeatureNotEnabled",
      "type": "error"
    },
    {
      "inputs": [],
      "name": "InsufficientBalance",
      "type": "error"
    },
    {
      "inputs": [],
      "name": "InsufficientCollateral",
      "type": "error"
    },
    {
      "inputs": [],
      "name": "InvalidAmount",
      "type": "error"
    },
    {
      "inputs": [],
      "name": "InvalidCollateralAmount",
      "type": "error"
    },
    {
      "inputs": [],
      "name": "InvalidFees",
      "type": "error"
    },
    {
      "inputs": [],
      "name": "InvalidRatio",
      "type": "error"
    },
    {
      "inputs": [],
      "name": "InvalidTreasury",
      "type": "error"
    },
    {
      "inputs": [
        {
          "internalType": "address",
          "name": "owner",
          "type": "address"
        }
      ],
      "name": "OwnableInvalidOwner",
      "type": "error"
    },
    {
      "inputs": [
        {
          "internalType": "address",
          "name": "account",
          "type": "address"
        }
      ],
      "name": "OwnableUnauthorizedAccount",
      "type": "error"
    },
    {
      "inputs": [],
      "name": "TransferFailed",
      "type": "error"
    },
    {
      "anonymous": false,
      "inputs": [
        {
          "indexed": true,
          "internalType": "address",
          "name": "owner",
          "type": "address"
        },
        {
          "indexed": true,
          "internalType": "address",
          "name": "spender",
          "type": "address"
        },
        {
          "indexed": false,
          "internalType": "uint256",
          "name": "value",
          "type": "uint256"
        }
      ],
      "name": "Approval",
      "type": "event"
    },
    {
      "anonymous": false,
      "inputs": [
        {
          "indexed": true,
          "internalType": "address",
          "name": "previousOwner",
          "type": "address"
        },
        {
          "indexed": true,
          "internalType": "address",
          "name": "newOwner",
          "type": "address"
        }
      ],
      "name": "OwnershipTransferred",
      "type": "event"
    },
    {
      "anonymous": false,
      "inputs": [
        {
          "indexed": false,
          "internalType": "address",
          "name": "account",
          "type": "address"
        }
      ],
      "name": "Paused",
      "type": "event"
    },
    {
      "anonymous": false,
      "inputs": [
        {
          "indexed": true,
          "internalType": "bytes32",
          "name": "role",
          "type": "bytes32"
        },
        {
          "indexed": true,
          "internalType": "bytes32",
          "name": "previousAdminRole",
          "type": "bytes32"
        },
        {
          "indexed": true,
          "internalType": "bytes32",
          "name": "newAdminRole",
          "type": "bytes32"
        }
      ],
      "name": "RoleAdminChanged",
      "type": "event"
    },
    {
      "anonymous": false,
      "inputs": [
        {
          "indexed": true,
          "internalType": "bytes32",
          "name": "role",
          "type": "bytes32"
        },
        {
          "indexed": true,
          "internalType": "address",
          "name": "account",
          "type": "address"
        },
        {
          "indexed": true,
          "internalType": "address",
          "name": "sender",
          "type": "address"
        }
      ],
      "name": "RoleGranted",
      "type": "event"
    },
    {
      "anonymous": false,
      "inputs": [
        {
          "indexed": true,
          "internalType": "bytes32",
          "name": "role",
          "type": "bytes32"
        },
        {
          "indexed": true,
          "internalType": "address",
          "name": "account",
          "type": "address"
        },
        {
          "indexed": true,
          "internalType": "address",
          "name": "sender",
          "type": "address"
        }
      ],
      "name": "RoleRevoked",
      "type": "event"
    },
    {
      "anonymous": false,
      "inputs": [
        {
          "indexed": true,
          "internalType": "address",
          "name": "from",
          "type": "address"
        },
        {
          "indexed": true,
          "internalType": "address",
          "name": "to",
          "type": "address"
        },
        {
          "indexed": false,
          "internalType": "uint256",
          "name": "value",
          "type": "uint256"
        }
      ],
      "name": "Transfer",
      "type": "event"
    },
    {
      "anonymous": false,
      "inputs": [
        {
          "indexed": false,
          "internalType": "address",
          "name": "account",
          "type": "address"
        }
      ],
      "name": "Unpaused",
      "type": "event"
    },
    {
      "inputs": [],
      "name": "DEFAULT_ADMIN_ROLE",
      "outputs": [
        {
          "internalType": "bytes32",
          "name": "",
          "type": "bytes32"
        }
      ],
      "stateMutability": "view",
      "type": "function"
    },
    {
      "inputs": [],
      "name": "MINTER_ROLE",
      "outputs": [
        {
          "internalType": "bytes32",
          "name": "",
          "type": "bytes32"
        }
      ],
      "stateMutability": "view",
      "type": "function"
    },
    {
      "inputs": [],
      "name": "PAUSER_ROLE",
      "outputs": [
        {
          "internalType": "bytes32",
          "name": "",
          "type": "bytes32"
        }
      ],
      "stateMutability": "view",
      "type": "function"
    },
    {
      "inputs": [
        {
          "internalType": "address",
          "name": "owner",
          "type": "address"
        },
        {
          "internalType": "address",
          "name": "spender",
          "type": "address"
        }
      ],
      "name": "allowance",
      "outputs": [
        {
          "internalType": "uint256",
          "name": "",
          "type": "uint256"
        }
      ],
      "stateMutability": "view",
      "type": "function"
    },
    {
      "inputs": [
        {
          "internalType": "address",
          "name": "spender",
          "type": "address"
        },
        {
          "internalType": "uint256",
          "name": "value",
          "type": "uint256"
        }
      ],
      "name": "approve",
      "outputs": [
        {
          "internalType": "bool",
          "name": "",
          "type": "bool"
        }
      ],
      "stateMutability": "nonpayable",
      "type": "function"
    },
    {
      "inputs": [
        {
          "internalType": "address",
          "name": "account",
          "type": "address"
        }
      ],
      "name": "balanceOf",
      "outputs": [
        {
          "internalType": "uint256",
          "name": "",
          "type": "uint256"
        }
      ],
      "stateMutability": "view",
      "type": "function"
    },
    {
      "inputs": [
        {
          "internalType": "uint256",
          "name": "amount",
          "type": "uint256"
        }
      ],
      "name": "burn",
      "outputs": [],
      "stateMutability": "nonpayable",
      "type": "function"
    },
    {
      "inputs": [
        {
          "internalType": "address",
          "name": "account",
          "type": "address"
        },
        {
          "internalType": "uint256",
          "name": "amount",
          "type": "uint256"
        }
      ],
      "name": "burnFrom",
      "outputs": [],
      "stateMutability": "nonpayable",
      "type": "function"
    },
    {
      "inputs": [
        {
          "internalType": "address",
          "name": "",
          "type": "address"
        }
      ],
      "name": "collateralDeposited",
      "outputs": [
        {
          "internalType": "uint256",
          "name": "",
          "type": "uint256"
        }
      ],
      "stateMutability": "view",
      "type": "function"
    },
    {
      "inputs": [],
      "name": "collateralRatio",
      "outputs": [
        {
          "internalType": "uint96",
          "name": "",
          "type": "uint96"
        }
      ],
      "stateMutability": "view",
      "type": "function"
    },
    {
      "inputs": [],
      "name": "collateralToken",
      "outputs": [
        {
          "internalType": "address",
          "name": "",
          "type": "address"
        }
      ],
      "stateMutability": "view",
      "type": "function"
    },
    {
      "inputs": [],
      "name": "decimals",
      "outputs": [
        {
          "internalType": "uint8",
          "name": "",
          "type": "uint8"
        }
      ],
      "stateMutability": "view",
      "type": "function"
    },
    {
      "inputs": [
        {
          "internalType": "address",
          "name": "spender",
          "type": "address"
        },
        {
          "internalType": "uint256",
          "name": "subtractedValue",
          "type": "uint256"
        }
      ],
      "name": "decreaseAllowance",
      "outputs": [
        {
          "internalType": "bool",
          "name": "",
          "type": "bool"
        }
      ],
      "stateMutability": "nonpayable",
      "type": "function"
    },
    {
      "inputs": [
        {
          "internalType": "bytes4",
          "name": "",
          "type": "bytes4"
        }
      ],
      "name": "enabledFeatures",
      "outputs": [
        {
          "internalType": "bool",
          "name": "",
          "type": "bool"
        }
      ],
      "stateMutability": "view",
      "type": "function"
    },
    {
      "inputs": [],
      "name": "getEnabledFeatures",
      "outputs": [
        {
          "internalType": "bool[]",
          "name": "",
          "type": "bool[]"
        }
      ],
      "stateMutability": "view",
      "type": "function"
    },
    {
      "inputs": [
        {
          "internalType": "bytes32",
          "name": "role",
          "type": "bytes32"
        }
      ],
      "name": "getRoleAdmin",
      "outputs": [
        {
          "internalType": "bytes32",
          "name": "",
          "type": "bytes32"
        }
      ],
      "stateMutability": "view",
      "type": "function"
    },
    {
      "inputs": [
        {
          "internalType": "bytes32",
          "name": "role",
          "type": "bytes32"
        },
        {
          "internalType": "address",
          "name": "account",
          "type": "address"
        }
      ],
      "name": "grantRole",
      "outputs": [],
      "stateMutability": "nonpayable",
      "type": "function"
    },
    {
      "inputs": [
        {
          "internalType": "bytes32",
          "name": "role",
          "type": "bytes32"
        },
        {
          "internalType": "address",
          "name": "account",
          "type": "address"
        }
      ],
      "name": "hasRole",
      "outputs": [
        {
          "internalType": "bool",
          "name": "",
          "type": "bool"
        }
      ],
      "stateMutability": "view",
      "type": "function"
    },
    {
      "inputs": [
        {
          "internalType": "address",
          "name": "spender",
          "type": "address"
        },
        {
          "internalType": "uint256",
          "name": "addedValue",
          "type": "uint256"
        }
      ],
      "name": "increaseAllowance",
      "outputs": [
        {
          "internalType": "bool",
          "name": "",
          "type": "bool"
        }
      ],
      "stateMutability": "nonpayable",
      "type": "function"
    },
    {
      "inputs": [
        {
          "internalType": "string",
          "name": "name_",
          "type": "string"
        },
        {
          "internalType": "string",
          "name": "symbol_",
          "type": "string"
        },
        {
          "internalType": "address",
          "name": "_collateralToken",
          "type": "address"
        },
        {
          "internalType": "uint96",
          "name": "_collateralRatio",
          "type": "uint96"
        },
        {
          "internalType": "address",
          "name": "_treasury",
          "type": "address"
        },
        {
          "internalType": "address",
          "name": "tokenOwner",
          "type": "address"
        },
        {
          "internalType": "bool[]",
          "name": "features",
          "type": "bool[]"
        }
      ],
      "name": "initialize",
      "outputs": [],
      "stateMutability": "nonpayable",
      "type": "function"
    },
    {
      "inputs": [
        {
          "internalType": "uint256",
          "name": "collateralAmount",
          "type": "uint256"
        }
      ],
      "name": "mint",
      "outputs": [],
      "stateMutability": "nonpayable",
      "type": "function"
    },
    {
      "inputs": [],
      "name": "mintFee",
      "outputs": [
        {
          "internalType": "uint32",
          "name": "",
          "type": "uint32"
        }
      ],
      "stateMutability": "view",
      "type": "function"
    },
    {
      "inputs": [],
      "name": "name",
      "outputs": [
        {
          "internalType": "string",
          "name": "",
          "type": "string"
        }
      ],
      "stateMutability": "view",
      "type": "function"
    },
    {
      "inputs": [],
      "name": "owner",
      "outputs": [
        {
          "internalType": "address",
          "name": "",
          "type": "address"
        }
      ],
      "stateMutability": "view",
      "type": "function"
    },
    {
      "inputs": [],
      "name": "pause",
      "outputs": [],
      "stateMutability": "nonpayable",
      "type": "function"
    },
    {
      "inputs": [],
      "name": "paused",
      "outputs": [
        {
          "internalType": "bool",
          "name": "",
          "type": "bool"
        }
      ],
      "stateMutability": "view",
      "type": "function"
    },
    {
      "inputs": [
        {
          "internalType": "uint256",
          "name": "tokenAmount",
          "type": "uint256"
        }
      ],
      "name": "redeem",
      "outputs": [],
      "stateMutability": "nonpayable",
      "type": "function"
    },
    {
      "inputs": [],
      "name": "redeemFee",
      "outputs": [
        {
          "internalType": "uint32",
          "name": "",
          "type": "uint32"
        }
      ],
      "stateMutability": "view",
      "type": "function"
    },
    {
      "inputs": [],
      "name": "renounceOwnership",
      "outputs": [],
      "stateMutability": "nonpayable",
      "type": "function"
    },
    {
      "inputs": [
        {
          "internalType": "bytes32",
          "name": "role",
          "type": "bytes32"
        },
        {
          "internalType": "address",
          "name": "callerConfirmation",
          "type": "address"
        }
      ],
      "name": "renounceRole",
      "outputs": [],
      "stateMutability": "nonpayable",
      "type": "function"
    },
    {
      "inputs": [
        {
          "internalType": "bytes32",
          "name": "role",
          "type": "bytes32"
        },
        {
          "internalType": "address",
          "name": "account",
          "type": "address"
        }
      ],
      "name": "revokeRole",
      "outputs": [],
      "stateMutability": "nonpayable",
      "type": "function"
    },
    {
      "inputs": [
        {
          "internalType": "uint96",
          "name": "_collateralRatio",
          "type": "uint96"
        }
      ],
      "name": "setCollateralRatio",
      "outputs": [],
      "stateMutability": "nonpayable",
      "type": "function"
    },
    {
      "inputs": [
        {
          "internalType": "uint32",
          "name": "_mintFee",
          "type": "uint32"
        },
        {
          "internalType": "uint32",
          "name": "_redeemFee",
          "type": "uint32"
        }
      ],
      "name": "setFees",
      "outputs": [],
      "stateMutability": "nonpayable",
      "type": "function"
    },
    {
      "inputs": [
        {
          "internalType": "address",
          "name": "_treasury",
          "type": "address"
        }
      ],
      "name": "setTreasury",
      "outputs": [],
      "stateMutability": "nonpayable",
      "type": "function"
    },
    {
      "inputs": [
        {
          "internalType": "bytes4",
          "name": "interfaceId",
          "type": "bytes4"
        }
      ],
      "name": "supportsInterface",
      "outputs": [
        {
          "internalType": "bool",
          "name": "",
          "type": "bool"
        }
      ],
      "stateMutability": "view",
      "type": "function"
    },
    {
      "inputs": [],
      "name": "symbol",
      "outputs": [
        {
          "internalType": "string",
          "name": "",
          "type": "string"
        }
      ],
      "stateMutability": "view",
      "type": "function"
    },
    {
      "inputs": [],
      "name": "totalSupply",
      "outputs": [
        {
          "internalType": "uint256",
          "name": "",
          "type": "uint256"
        }
      ],
      "stateMutability": "view",
      "type": "function"
    },
    {
      "inputs": [
        {
          "internalType": "address",
          "name": "to",
          "type": "address"
        },
        {
          "internalType": "uint256",
          "name": "value",
          "type": "uint256"
        }
      ],
      "name": "transfer",
      "outputs": [
        {
          "internalType": "bool",
          "name": "",
          "type": "bool"
        }
      ],
      "stateMutability": "nonpayable",
      "type": "function"
    },
    {
      "inputs": [
        {
          "internalType": "address",
          "name": "from",
          "type": "address"
        },
        {
          "internalType": "address",
          "name": "to",
          "type": "address"
        },
        {
          "internalType": "uint256",
          "name": "value",
          "type": "uint256"
        }
      ],
      "name": "transferFrom",
      "outputs": [
        {
          "internalType": "bool",
          "name": "",
          "type": "bool"
        }
      ],
      "stateMutability": "nonpayable",
      "type": "function"
    },
    {
      "inputs": [
        {
          "internalType": "address",
          "name": "newOwner",
          "type": "address"
        }
      ],
      "name": "transferOwnership",
      "outputs": [],
      "stateMutability": "nonpayable",
      "type": "function"
    },
    {
      "inputs": [],
      "name": "treasury",
      "outputs": [
        {
          "internalType": "address",
          "name": "",
          "type": "address"
        }
      ],
      "stateMutability": "view",
      "type": "function"
    },
    {
      "inputs": [],
      "name": "unpause",
      "outputs": [],
      "stateMutability": "nonpayable",
      "type": "function"
    }
  ],
  "bytecode": "0x60806040526032600c60146101000a81548163ffffffff021916908363ffffffff1602179055506032600c60186101000a81548163ffffffff021916908363ffffffff16021790555034801561005457600080fd5b50336040518060400160405280601681526020017f537472617461466f72676520537461626c65636f696e000000000000000000008152506040518060400160405280600481526020017f534653430000000000000000000000000000000000000000000000000000000081525081600390816100d19190610481565b5080600490816100e19190610481565b505050600073ffffffffffffffffffffffffffffffffffffffff168173ffffffffffffffffffffffffffffffffffffffff16036101565760006040517f1e4fbdf700000000000000000000000000000000000000000000000000000000815260040161014d9190610594565b60405180910390fd5b6101658161016b60201b60201c565b506105af565b6000600560019054906101000a900473ffffffffffffffffffffffffffffffffffffffff16905081600560016101000a81548173ffffffffffffffffffffffffffffffffffffffff021916908373ffffffffffffffffffffffffffffffffffffffff1602179055508173ffffffffffffffffffffffffffffffffffffffff168173ffffffffffffffffffffffffffffffffffffffff167f8be0079c531659141344cd1fd0a4f28419497f9722a3daafe3b4186f6b6457e060405160405180910390a35050565b600081519050919050565b7f4e487b7100000000000000000000000000000000000000000000000000000000600052604160045260246000fd5b7f4e487b7100000000000000000000000000000000000000000000000000000000600052602260045260246000fd5b600060028204905060018216806102b257607f821691505b6020821081036102c5576102c461026b565b5b50919050565b60008190508160005260206000209050919050565b60006020601f8301049050919050565b600082821b905092915050565b60006008830261032d7fffffffffffffffffffffffffffffffffffffffffffffffffffffffffffffffff826102f0565b61033786836102f0565b95508019841693508086168417925050509392505050565b6000819050919050565b6000819050919050565b600061037e6103796103748461034f565b610359565b61034f565b9050919050565b6000819050919050565b61039883610363565b6103ac6103a482610385565b8484546102fd565b825550505050565b600090565b6103c16103b4565b6103cc81848461038f565b505050565b5b818110156103f0576103e56000826103b9565b6001810190506103d2565b5050565b601f82111561043557610406816102cb565b61040f846102e0565b8101602085101561041e578190505b61043261042a856102e0565b8301826103d1565b50505b505050565b600082821c905092915050565b60006104586000198460080261043a565b1980831691505092915050565b60006104718383610447565b9150826002028217905092915050565b61048a82610231565b67ffffffffffffffff8111156104a3576104a261023c565b5b6104ad825461029a565b6104b88282856103f4565b600060209050601f8311600181146104eb57600084156104d9578287015190505b6104e38582610465565b86555061054b565b601f1984166104f9866102cb565b60005b82811015610521578489015182556001820191506020850194506020810190506104fc565b8683101561053e578489015161053a601f891682610447565b8355505b6001600288020188555050505b505050505050565b600073ffffffffffffffffffffffffffffffffffffffff82169050919050565b600061057e82610553565b9050919050565b61058e81610573565b82525050565b60006020820190506105a96000830184610585565b92915050565b614c1a806105be6000396000f3fe608060405234801561001057600080fd5b506004361061025e5760003560e01c8063715018a611610146578063a9059cbb116100c3578063db006a7511610087578063db006a7514610715578063dd62ed3e14610731578063e63ab1e914610761578063f0f442601461077f578063f2fde38b1461079b578063fe69f588146107b75761025e565b8063a9059cbb1461066f578063b2016bd41461069f578063b4eae1cb146106bd578063d5391393146106db578063d547741f146106f95761025e565b806395d89b411161010a57806395d89b41146105c9578063965fa21e146105e7578063a0712d6814610605578063a217fddf14610621578063a457c2d71461063f5761025e565b8063715018a61461054b57806379cc6790146105555780638456cb59146105715780638da5cb5b1461057b57806391d14854146105995761025e565b8063259fc998116101df5780633f4ba83a116101a35780633f4ba83a1461049b57806342966c68146104a55780635c975abb146104c157806361d027b3146104df5780636d8f4b55146104fd57806370a082311461051b5761025e565b8063259fc998146103f95780632f2ff15d14610415578063313ce5671461043157806336568abe1461044f578063395093511461046b5761025e565b80630a4b9ec2116102265780630a4b9ec21461032d57806313966db51461035d57806318160ddd1461037b57806323b872dd14610399578063248a9ca3146103c95761025e565b806301ffc9a71461026357806303a0c8101461029357806306fdde03146102af57806308842480146102cd578063095ea7b3146102fd575b600080fd5b61027d60048036038101906102789190613c9c565b6107d3565b60405161028a9190613ce4565b60405180910390f35b6102ad60048036038101906102a89190613fdb565b6107e5565b005b6102b7610b76565b6040516102c49190614150565b60405180910390f35b6102e760048036038101906102e29190613c9c565b610c08565b6040516102f49190613ce4565b60405180910390f35b610317600480360381019061031291906141a8565b610c28565b6040516103249190613ce4565b60405180910390f35b610347600480360381019061034291906141e8565b610cf1565b6040516103549190614224565b60405180910390f35b610365610d09565b604051610372919061425e565b60405180910390f35b610383610d1f565b6040516103909190614224565b60405180910390f35b6103b360048036038101906103ae9190614279565b610d29565b6040516103c09190613ce4565b60405180910390f35b6103e360048036038101906103de9190614302565b610df4565b6040516103f0919061433e565b60405180910390f35b610413600480360381019061040e9190614385565b610e14565b005b61042f600480360381019061042a91906143c5565b610f6b565b005b61043961102e565b6040516104469190614421565b60405180910390f35b610469600480360381019061046491906143c5565b611037565b005b610485600480360381019061048091906141a8565b6110b2565b6040516104929190613ce4565b60405180910390f35b6104a3611192565b005b6104bf60048036038101906104ba919061443c565b61127c565b005b6104c961133d565b6040516104d69190613ce4565b60405180910390f35b6104e7611354565b6040516104f49190614478565b60405180910390f35b61050561137a565b6040516105129190614551565b60405180910390f35b610535600480360381019061053091906141e8565b611496565b6040516105429190614224565b60405180910390f35b6105536114de565b005b61056f600480360381019061056a91906141a8565b6114f2565b005b6105796115b5565b005b61058361169f565b6040516105909190614478565b60405180910390f35b6105b360048036038101906105ae91906143c5565b6116c9565b6040516105c09190613ce4565b60405180910390f35b6105d1611734565b6040516105de9190614150565b60405180910390f35b6105ef6117c6565b6040516105fc919061425e565b60405180910390f35b61061f600480360381019061061a919061443c565b6117dc565b005b610629611b2a565b604051610636919061433e565b60405180910390f35b610659600480360381019061065491906141a8565b611b31565b6040516106669190613ce4565b60405180910390f35b610689600480360381019061068491906141a8565b611c5a565b6040516106969190613ce4565b60405180910390f35b6106a7611d23565b6040516106b49190614478565b60405180910390f35b6106c5611d49565b6040516106d29190614582565b60405180910390f35b6106e3611d67565b6040516106f0919061433e565b60405180910390f35b610713600480360381019061070e91906143c5565b611d8b565b005b61072f600480360381019061072a919061443c565b611dad565b005b61074b6004803603810190610746919061459d565b61225e565b6040516107589190614224565b60405180910390f35b6107696122e5565b604051610776919061433e565b60405180910390f35b610799600480360381019061079491906141e8565b612309565b005b6107b560048036038101906107b091906141e8565b612470565b005b6107d160048036038101906107cc91906145dd565b612531565b005b60006107de8261266c565b9050919050565b600760009054906101000a900460ff161561082c576040517f0dc149f000000000000000000000000000000000000000000000000000000000815260040160405180910390fd5b6001600760006101000a81548160ff02191690831515021790555086600990816108569190614816565b5085600a90816108669190614816565b50610870826126e6565b84600b60006101000a81548173ffffffffffffffffffffffffffffffffffffffff021916908373ffffffffffffffffffffffffffffffffffffffff16021790555083600b60146101000a8154816bffffffffffffffffffffffff02191690836bffffffffffffffffffffffff16021790555082600c60006101000a81548173ffffffffffffffffffffffffffffffffffffffff021916908373ffffffffffffffffffffffffffffffffffffffff1602179055506109306000801b836127ac565b5061095b7f9f2df0fed2c77648de5860a4cc508cd0818c85b8b8a1ab4ceeef8d981c8956a6836127ac565b506109867f65d7a28e3265b37a6474929f336521b332c1681b933f6cb9f3376673440d862a836127ac565b50600061099161289e565b905060005b8151811015610adc578251811015610a4a578281815181106109bb576109ba6148e8565b5b6020026020010151600860008484815181106109da576109d96148e8565b5b60200260200101517bffffffffffffffffffffffffffffffffffffffffffffffffffffffff19167bffffffffffffffffffffffffffffffffffffffffffffffffffffffff1916815260200190815260200160002060006101000a81548160ff021916908315150217905550610acf565b600060086000848481518110610a6357610a626148e8565b5b60200260200101517bffffffffffffffffffffffffffffffffffffffffffffffffffffffff19167bffffffffffffffffffffffffffffffffffffffffffffffffffffffff1916815260200190815260200160002060006101000a81548160ff0219169083151502179055505b8080600101915050610996565b506000825103610b6c5760016008600083600381518110610b0057610aff6148e8565b5b60200260200101517bffffffffffffffffffffffffffffffffffffffffffffffffffffffff19167bffffffffffffffffffffffffffffffffffffffffffffffffffffffff1916815260200190815260200160002060006101000a81548160ff0219169083151502179055505b5050505050505050565b606060098054610b8590614639565b80601f0160208091040260200160405190810160405280929190818152602001828054610bb190614639565b8015610bfe5780601f10610bd357610100808354040283529160200191610bfe565b820191906000526020600020905b815481529060010190602001808311610be157829003601f168201915b5050505050905090565b60086020528060005260406000206000915054906101000a900460ff1681565b6000600860007f095ea7b334ae44009aa867bfb386f5c3b4b443ac6f0ee573fa91c4608fbadfba7bffffffffffffffffffffffffffffffffffffffffffffffffffffffff19167bffffffffffffffffffffffffffffffffffffffffffffffffffffffff1916815260200190815260200160002060009054906101000a900460ff16610cdf576040517f47a0378200000000000000000000000000000000000000000000000000000000815260040160405180910390fd5b610ce98383613084565b905092915050565b600d6020528060005260406000206000915090505481565b600c60149054906101000a900463ffffffff1681565b6000600254905090565b6000600860007f23b872dd7302113369cda2901243429419bec145408fa8b352b3dd92b66c680b7bffffffffffffffffffffffffffffffffffffffffffffffffffffffff19167bffffffffffffffffffffffffffffffffffffffffffffffffffffffff1916815260200190815260200160002060009054906101000a900460ff16610de0576040517f47a0378200000000000000000000000000000000000000000000000000000000815260040160405180910390fd5b610deb8484846130a7565b90509392505050565b600060066000838152602001908152602001600020600101549050919050565b610e1c6130d6565b600860007f259fc998c25c78a9c429b1e5de9eabaad511cd059de4e87d2e39e9973c979a417bffffffffffffffffffffffffffffffffffffffffffffffffffffffff19167bffffffffffffffffffffffffffffffffffffffffffffffffffffffff1916815260200190815260200160002060009054906101000a900460ff16610ed1576040517f47a0378200000000000000000000000000000000000000000000000000000000815260040160405180910390fd5b6101f48263ffffffff161180610eee57506101f48163ffffffff16115b15610f25576040517f2d8768f900000000000000000000000000000000000000000000000000000000815260040160405180910390fd5b81600c60146101000a81548163ffffffff021916908363ffffffff16021790555080600c60186101000a81548163ffffffff021916908363ffffffff1602179055505050565b600860007f2f2ff15deca029b64bbc0874ae59c8f39be024a95aa718b4c13ca407db350be87bffffffffffffffffffffffffffffffffffffffffffffffffffffffff19167bffffffffffffffffffffffffffffffffffffffffffffffffffffffff1916815260200190815260200160002060009054906101000a900460ff16611020576040517f47a0378200000000000000000000000000000000000000000000000000000000815260040160405180910390fd5b61102a828261315d565b5050565b60006006905090565b61103f61317f565b73ffffffffffffffffffffffffffffffffffffffff168173ffffffffffffffffffffffffffffffffffffffff16146110a3576040517f6697b23200000000000000000000000000000000000000000000000000000000815260040160405180910390fd5b6110ad8282613187565b505050565b6000600860007f39509351d3325647dde3fdd3c8b249adfe89ef4f16d76d83768e6df7a5cd81d67bffffffffffffffffffffffffffffffffffffffffffffffffffffffff19167bffffffffffffffffffffffffffffffffffffffffffffffffffffffff1916815260200190815260200160002060009054906101000a900460ff16611169576040517f47a0378200000000000000000000000000000000000000000000000000000000815260040160405180910390fd5b611188338484611179338861225e565b6111839190614946565b61327a565b6001905092915050565b7f65d7a28e3265b37a6474929f336521b332c1681b933f6cb9f3376673440d862a6111bc8161328c565b600860007f8456cb591a934d53f6ccc6332123a165a1f3562907bf11330d847a29ca49eb897bffffffffffffffffffffffffffffffffffffffffffffffffffffffff19167bffffffffffffffffffffffffffffffffffffffffffffffffffffffff1916815260200190815260200160002060009054906101000a900460ff16611271576040517f47a0378200000000000000000000000000000000000000000000000000000000815260040160405180910390fd5b6112796132a0565b50565b600860007f42966c689b5afe9b9b3f8a7103b2a19980d59629bfd6a20a60972312ed41d8367bffffffffffffffffffffffffffffffffffffffffffffffffffffffff19167bffffffffffffffffffffffffffffffffffffffffffffffffffffffff1916815260200190815260200160002060009054906101000a900460ff16611331576040517f47a0378200000000000000000000000000000000000000000000000000000000815260040160405180910390fd5b61133a81613303565b50565b6000600560009054906101000a900460ff16905090565b600c60009054906101000a900473ffffffffffffffffffffffffffffffffffffffff1681565b6060600061138661289e565b90506000815167ffffffffffffffff8111156113a5576113a4613d1a565b5b6040519080825280602002602001820160405280156113d35781602001602082028036833780820191505090505b50905060005b825181101561148d57600860008483815181106113f9576113f86148e8565b5b60200260200101517bffffffffffffffffffffffffffffffffffffffffffffffffffffffff19167bffffffffffffffffffffffffffffffffffffffffffffffffffffffff1916815260200190815260200160002060009054906101000a900460ff1682828151811061146e5761146d6148e8565b5b60200260200101901515908115158152505080806001019150506113d9565b50809250505090565b60008060008373ffffffffffffffffffffffffffffffffffffffff1673ffffffffffffffffffffffffffffffffffffffff168152602001908152602001600020549050919050565b6114e66130d6565b6114f060006126e6565b565b600860007f79cc679044ee9a2021f0a26c0fdec02ac39179cd005bb971a471b7f9f17c576c7bffffffffffffffffffffffffffffffffffffffffffffffffffffffff19167bffffffffffffffffffffffffffffffffffffffffffffffffffffffff1916815260200190815260200160002060009054906101000a900460ff166115a7576040517f47a0378200000000000000000000000000000000000000000000000000000000815260040160405180910390fd5b6115b18282613317565b5050565b7f65d7a28e3265b37a6474929f336521b332c1681b933f6cb9f3376673440d862a6115df8161328c565b600860007f8456cb591a934d53f6ccc6332123a165a1f3562907bf11330d847a29ca49eb897bffffffffffffffffffffffffffffffffffffffffffffffffffffffff19167bffffffffffffffffffffffffffffffffffffffffffffffffffffffff1916815260200190815260200160002060009054906101000a900460ff16611694576040517f47a0378200000000000000000000000000000000000000000000000000000000815260040160405180910390fd5b61169c613337565b50565b6000600560019054906101000a900473ffffffffffffffffffffffffffffffffffffffff16905090565b60006006600084815260200190815260200160002060000160008373ffffffffffffffffffffffffffffffffffffffff1673ffffffffffffffffffffffffffffffffffffffff16815260200190815260200160002060009054906101000a900460ff16905092915050565b6060600a805461174390614639565b80601f016020809104026020016040519081016040528092919081815260200182805461176f90614639565b80156117bc5780601f10611791576101008083540402835291602001916117bc565b820191906000526020600020905b81548152906001019060200180831161179f57829003601f168201915b5050505050905090565b600c60189054906101000a900463ffffffff1681565b600860007fa0712d680358d64f694230b7cc0b277c73686bdf768385d55cd7c547d0ffd30e7bffffffffffffffffffffffffffffffffffffffffffffffffffffffff19167bffffffffffffffffffffffffffffffffffffffffffffffffffffffff1916815260200190815260200160002060009054906101000a900460ff16611891576040517f47a0378200000000000000000000000000000000000000000000000000000000815260040160405180910390fd5b600081036118cb576040517ffbd85bc300000000000000000000000000000000000000000000000000000000815260040160405180910390fd5b6000600b60009054906101000a900473ffffffffffffffffffffffffffffffffffffffff1690508073ffffffffffffffffffffffffffffffffffffffff166323b872dd3330856040518463ffffffff1660e01b815260040161192f9392919061497a565b6020604051808303816000875af115801561194e573d6000803e3d6000fd5b505050506040513d601f19601f8201168201806040525081019061197291906149c6565b6119a8576040517f90b8ec1800000000000000000000000000000000000000000000000000000000815260040160405180910390fd5b6000600b60149054906101000a90046bffffffffffffffffffffffff166bffffffffffffffffffffffff16612710846119e191906149f3565b6119eb9190614a64565b90506000612710600c60149054906101000a900463ffffffff1663ffffffff1683611a1691906149f3565b611a209190614a64565b905060008183611a309190614a95565b905084600d60003373ffffffffffffffffffffffffffffffffffffffff1673ffffffffffffffffffffffffffffffffffffffff1681526020019081526020016000206000828254611a819190614946565b92505081905550611a92338261339a565b600082118015611af15750600073ffffffffffffffffffffffffffffffffffffffff16600c60009054906101000a900473ffffffffffffffffffffffffffffffffffffffff1673ffffffffffffffffffffffffffffffffffffffff1614155b15611b2357611b22600c60009054906101000a900473ffffffffffffffffffffffffffffffffffffffff168361339a565b5b5050505050565b6000801b81565b6000600860007fa457c2d77307f80ff2f3ac810ec99eb18ae2cffee13b29c90c9324546e374be57bffffffffffffffffffffffffffffffffffffffffffffffffffffffff19167bffffffffffffffffffffffffffffffffffffffffffffffffffffffff1916815260200190815260200160002060009054906101000a900460ff16611be8576040517f47a0378200000000000000000000000000000000000000000000000000000000815260040160405180910390fd5b6000611bf4338561225e565b905082811015611c39576040517f08c379a0000000000000000000000000000000000000000000000000000000008152600401611c3090614b3b565b60405180910390fd5b611c4f33858584611c4a9190614a95565b61327a565b600191505092915050565b6000600860007fa9059cbb2ab09eb219583f4a59a5d0623ade346d962bcd4e46b11da047c9049b7bffffffffffffffffffffffffffffffffffffffffffffffffffffffff19167bffffffffffffffffffffffffffffffffffffffffffffffffffffffff1916815260200190815260200160002060009054906101000a900460ff16611d11576040517f47a0378200000000000000000000000000000000000000000000000000000000815260040160405180910390fd5b611d1b838361341c565b905092915050565b600b60009054906101000a900473ffffffffffffffffffffffffffffffffffffffff1681565b600b60149054906101000a90046bffffffffffffffffffffffff1681565b7f9f2df0fed2c77648de5860a4cc508cd0818c85b8b8a1ab4ceeef8d981c8956a681565b611d9482610df4565b611d9d8161328c565b611da78383613187565b50505050565b600860007fdb006a751bed9eb2097bb87aa93452cb31329759b3b6c5518170a3d50e6e985d7bffffffffffffffffffffffffffffffffffffffffffffffffffffffff19167bffffffffffffffffffffffffffffffffffffffffffffffffffffffff1916815260200190815260200160002060009054906101000a900460ff16611e62576040517f47a0378200000000000000000000000000000000000000000000000000000000815260040160405180910390fd5b60008103611e9c576040517f2c5211c600000000000000000000000000000000000000000000000000000000815260040160405180910390fd5b80611ea633611496565b1015611ede576040517ff4d678b800000000000000000000000000000000000000000000000000000000815260040160405180910390fd5b6000612710600b60149054906101000a90046bffffffffffffffffffffffff166bffffffffffffffffffffffff1683611f1791906149f3565b611f219190614a64565b905080600d60003373ffffffffffffffffffffffffffffffffffffffff1673ffffffffffffffffffffffffffffffffffffffff168152602001908152602001600020541015611f9c576040517f3a23d82500000000000000000000000000000000000000000000000000000000815260040160405180910390fd5b6000612710600c60189054906101000a900463ffffffff1663ffffffff1683611fc591906149f3565b611fcf9190614a64565b905060008183611fdf9190614a95565b905082600d60003373ffffffffffffffffffffffffffffffffffffffff1673ffffffffffffffffffffffffffffffffffffffff16815260200190815260200160002060008282546120309190614a95565b92505081905550612041338561343f565b6000600b60009054906101000a900473ffffffffffffffffffffffffffffffffffffffff1690508073ffffffffffffffffffffffffffffffffffffffff1663a9059cbb33846040518363ffffffff1660e01b81526004016120a3929190614b5b565b6020604051808303816000875af11580156120c2573d6000803e3d6000fd5b505050506040513d601f19601f820116820180604052508101906120e691906149c6565b61211c576040517f90b8ec1800000000000000000000000000000000000000000000000000000000815260040160405180910390fd5b60008311801561217b5750600073ffffffffffffffffffffffffffffffffffffffff16600c60009054906101000a900473ffffffffffffffffffffffffffffffffffffffff1673ffffffffffffffffffffffffffffffffffffffff1614155b15612257578073ffffffffffffffffffffffffffffffffffffffff1663a9059cbb600c60009054906101000a900473ffffffffffffffffffffffffffffffffffffffff16856040518363ffffffff1660e01b81526004016121dd929190614b5b565b6020604051808303816000875af11580156121fc573d6000803e3d6000fd5b505050506040513d601f19601f8201168201806040525081019061222091906149c6565b612256576040517f90b8ec1800000000000000000000000000000000000000000000000000000000815260040160405180910390fd5b5b5050505050565b6000600160008473ffffffffffffffffffffffffffffffffffffffff1673ffffffffffffffffffffffffffffffffffffffff16815260200190815260200160002060008373ffffffffffffffffffffffffffffffffffffffff1673ffffffffffffffffffffffffffffffffffffffff16815260200190815260200160002054905092915050565b7f65d7a28e3265b37a6474929f336521b332c1681b933f6cb9f3376673440d862a81565b6123116130d6565b600860007ff0f4426075d06070e00c492ce11cc5503708cfe69b370161832de9802e5dec8c7bffffffffffffffffffffffffffffffffffffffffffffffffffffffff19167bffffffffffffffffffffffffffffffffffffffffffffffffffffffff1916815260200190815260200160002060009054906101000a900460ff166123c6576040517f47a0378200000000000000000000000000000000000000000000000000000000815260040160405180910390fd5b600073ffffffffffffffffffffffffffffffffffffffff168173ffffffffffffffffffffffffffffffffffffffff160361242c576040517f14bcf5c800000000000000000000000000000000000000000000000000000000815260040160405180910390fd5b80600c60006101000a81548173ffffffffffffffffffffffffffffffffffffffff021916908373ffffffffffffffffffffffffffffffffffffffff16021790555050565b600860007ff2fde38b092330466c661fc723d5289b90272a3e580e3187d1d7ef788506c5577bffffffffffffffffffffffffffffffffffffffffffffffffffffffff19167bffffffffffffffffffffffffffffffffffffffffffffffffffffffff1916815260200190815260200160002060009054906101000a900460ff16612525576040517f47a0378200000000000000000000000000000000000000000000000000000000815260040160405180910390fd5b61252e816134c1565b50565b6125396130d6565b600860007ffe69f588c55fc0674117989e134b5c438fa8faa7d2ef17ce82677eaa81bd66a17bffffffffffffffffffffffffffffffffffffffffffffffffffffffff19167bffffffffffffffffffffffffffffffffffffffffffffffffffffffff1916815260200190815260200160002060009054906101000a900460ff166125ee576040517f47a0378200000000000000000000000000000000000000000000000000000000815260040160405180910390fd5b612710816bffffffffffffffffffffffff161015612638576040517f648564d300000000000000000000000000000000000000000000000000000000815260040160405180910390fd5b80600b60146101000a8154816bffffffffffffffffffffffff02191690836bffffffffffffffffffffffff16021790555050565b60007f7965db0b000000000000000000000000000000000000000000000000000000007bffffffffffffffffffffffffffffffffffffffffffffffffffffffff1916827bffffffffffffffffffffffffffffffffffffffffffffffffffffffff191614806126df57506126de82613547565b5b9050919050565b6000600560019054906101000a900473ffffffffffffffffffffffffffffffffffffffff16905081600560016101000a81548173ffffffffffffffffffffffffffffffffffffffff021916908373ffffffffffffffffffffffffffffffffffffffff1602179055508173ffffffffffffffffffffffffffffffffffffffff168173ffffffffffffffffffffffffffffffffffffffff167f8be0079c531659141344cd1fd0a4f28419497f9722a3daafe3b4186f6b6457e060405160405180910390a35050565b60006127b883836116c9565b6128935760016006600085815260200190815260200160002060000160008473ffffffffffffffffffffffffffffffffffffffff1673ffffffffffffffffffffffffffffffffffffffff16815260200190815260200160002060006101000a81548160ff02191690831515021790555061283061317f565b73ffffffffffffffffffffffffffffffffffffffff168273ffffffffffffffffffffffffffffffffffffffff16847f2f8788117e7eff1d82e926ec794901d17c78024a50270940304540a733656f0d60405160405180910390a460019050612898565b600090505b92915050565b60606000600f67ffffffffffffffff8111156128bd576128bc613d1a565b5b6040519080825280602002602001820160405280156128eb5781602001602082028036833780820191505090505b5090507fa0712d680358d64f694230b7cc0b277c73686bdf768385d55cd7c547d0ffd30e81600081518110612923576129226148e8565b5b60200260200101907bffffffffffffffffffffffffffffffffffffffffffffffffffffffff191690817bffffffffffffffffffffffffffffffffffffffffffffffffffffffff1916815250507fdb006a751bed9eb2097bb87aa93452cb31329759b3b6c5518170a3d50e6e985d816001815181106129a4576129a36148e8565b5b60200260200101907bffffffffffffffffffffffffffffffffffffffffffffffffffffffff191690817bffffffffffffffffffffffffffffffffffffffffffffffffffffffff1916815250507f42966c689b5afe9b9b3f8a7103b2a19980d59629bfd6a20a60972312ed41d83681600281518110612a2557612a246148e8565b5b60200260200101907bffffffffffffffffffffffffffffffffffffffffffffffffffffffff191690817bffffffffffffffffffffffffffffffffffffffffffffffffffffffff1916815250507f8456cb591a934d53f6ccc6332123a165a1f3562907bf11330d847a29ca49eb8981600381518110612aa657612aa56148e8565b5b60200260200101907bffffffffffffffffffffffffffffffffffffffffffffffffffffffff191690817bffffffffffffffffffffffffffffffffffffffffffffffffffffffff1916815250507ffe69f588c55fc0674117989e134b5c438fa8faa7d2ef17ce82677eaa81bd66a181600481518110612b2757612b266148e8565b5b60200260200101907bffffffffffffffffffffffffffffffffffffffffffffffffffffffff191690817bffffffffffffffffffffffffffffffffffffffffffffffffffffffff1916815250507f259fc998c25c78a9c429b1e5de9eabaad511cd059de4e87d2e39e9973c979a4181600581518110612ba857612ba76148e8565b5b60200260200101907bffffffffffffffffffffffffffffffffffffffffffffffffffffffff191690817bffffffffffffffffffffffffffffffffffffffffffffffffffffffff1916815250507ff0f4426075d06070e00c492ce11cc5503708cfe69b370161832de9802e5dec8c81600681518110612c2957612c286148e8565b5b60200260200101907bffffffffffffffffffffffffffffffffffffffffffffffffffffffff191690817bffffffffffffffffffffffffffffffffffffffffffffffffffffffff1916815250507fa9059cbb2ab09eb219583f4a59a5d0623ade346d962bcd4e46b11da047c9049b81600781518110612caa57612ca96148e8565b5b60200260200101907bffffffffffffffffffffffffffffffffffffffffffffffffffffffff191690817bffffffffffffffffffffffffffffffffffffffffffffffffffffffff1916815250507f095ea7b334ae44009aa867bfb386f5c3b4b443ac6f0ee573fa91c4608fbadfba81600881518110612d2b57612d2a6148e8565b5b60200260200101907bffffffffffffffffffffffffffffffffffffffffffffffffffffffff191690817bffffffffffffffffffffffffffffffffffffffffffffffffffffffff1916815250507f23b872dd7302113369cda2901243429419bec145408fa8b352b3dd92b66c680b81600981518110612dac57612dab6148e8565b5b60200260200101907bffffffffffffffffffffffffffffffffffffffffffffffffffffffff191690817bffffffffffffffffffffffffffffffffffffffffffffffffffffffff1916815250507f39509351d3325647dde3fdd3c8b249adfe89ef4f16d76d83768e6df7a5cd81d681600a81518110612e2d57612e2c6148e8565b5b60200260200101907bffffffffffffffffffffffffffffffffffffffffffffffffffffffff191690817bffffffffffffffffffffffffffffffffffffffffffffffffffffffff1916815250507fa457c2d77307f80ff2f3ac810ec99eb18ae2cffee13b29c90c9324546e374be581600b81518110612eae57612ead6148e8565b5b60200260200101907bffffffffffffffffffffffffffffffffffffffffffffffffffffffff191690817bffffffffffffffffffffffffffffffffffffffffffffffffffffffff1916815250507f79cc679044ee9a2021f0a26c0fdec02ac39179cd005bb971a471b7f9f17c576c81600c81518110612f2f57612f2e6148e8565b5b60200260200101907bffffffffffffffffffffffffffffffffffffffffffffffffffffffff191690817bffffffffffffffffffffffffffffffffffffffffffffffffffffffff1916815250507f2f2ff15deca029b64bbc0874ae59c8f39be024a95aa718b4c13ca407db350be881600d81518110612fb057612faf6148e8565b5b60200260200101907bffffffffffffffffffffffffffffffffffffffffffffffffffffffff191690817bffffffffffffffffffffffffffffffffffffffffffffffffffffffff1916815250507ff2fde38b092330466c661fc723d5289b90272a3e580e3187d1d7ef788506c55781600e81518110613031576130306148e8565b5b60200260200101907bffffffffffffffffffffffffffffffffffffffffffffffffffffffff191690817bffffffffffffffffffffffffffffffffffffffffffffffffffffffff1916815250508091505090565b60008061308f61317f565b905061309c81858561327a565b600191505092915050565b6000806130b261317f565b90506130bf8582856135b1565b6130ca858585613646565b60019150509392505050565b6130de61317f565b73ffffffffffffffffffffffffffffffffffffffff166130fc61169f565b73ffffffffffffffffffffffffffffffffffffffff161461315b5761311f61317f565b6040517f118cdaa70000000000000000000000000000000000000000000000000000000081526004016131529190614478565b60405180910390fd5b565b61316682610df4565b61316f8161328c565b61317983836127ac565b50505050565b600033905090565b600061319383836116c9565b1561326f5760006006600085815260200190815260200160002060000160008473ffffffffffffffffffffffffffffffffffffffff1673ffffffffffffffffffffffffffffffffffffffff16815260200190815260200160002060006101000a81548160ff02191690831515021790555061320c61317f565b73ffffffffffffffffffffffffffffffffffffffff168273ffffffffffffffffffffffffffffffffffffffff16847ff6391f5c32d9c69d2a47ea670b442974b53935d1edc7fd64eb21e047a839171b60405160405180910390a460019050613274565b600090505b92915050565b613287838383600161373a565b505050565b61329d8161329861317f565b613911565b50565b6132a8613962565b6000600560006101000a81548160ff0219169083151502179055507f5db9ee0a495bf2e6ff9c91a7834c1ba4fdd244a5e8aa4e537bd38aeae4b073aa6132ec61317f565b6040516132f99190614478565b60405180910390a1565b61331461330e61317f565b8261343f565b50565b6133298261332361317f565b836135b1565b613333828261343f565b5050565b61333f6139a2565b6001600560006101000a81548160ff0219169083151502179055507f62e78cea01bee320cd4e420270b5ea74000d11b0c9f74754ebdbfc544b05a25861338361317f565b6040516133909190614478565b60405180910390a1565b600073ffffffffffffffffffffffffffffffffffffffff168273ffffffffffffffffffffffffffffffffffffffff160361340c5760006040517fec442f050000000000000000000000000000000000000000000000000000000081526004016134039190614478565b60405180910390fd5b613418600083836139e3565b5050565b60008061342761317f565b9050613434818585613646565b600191505092915050565b600073ffffffffffffffffffffffffffffffffffffffff168273ffffffffffffffffffffffffffffffffffffffff16036134b15760006040517f96c6fd1e0000000000000000000000000000000000000000000000000000000081526004016134a89190614478565b60405180910390fd5b6134bd826000836139e3565b5050565b6134c96130d6565b600073ffffffffffffffffffffffffffffffffffffffff168173ffffffffffffffffffffffffffffffffffffffff160361353b5760006040517f1e4fbdf70000000000000000000000000000000000000000000000000000000081526004016135329190614478565b60405180910390fd5b613544816126e6565b50565b60007f01ffc9a7000000000000000000000000000000000000000000000000000000007bffffffffffffffffffffffffffffffffffffffffffffffffffffffff1916827bffffffffffffffffffffffffffffffffffffffffffffffffffffffff1916149050919050565b60006135bd848461225e565b90507fffffffffffffffffffffffffffffffffffffffffffffffffffffffffffffffff8110156136405781811015613630578281836040517ffb8f41b200000000000000000000000000000000000000000000000000000000815260040161362793929190614b84565b60405180910390fd5b61363f8484848403600061373a565b5b50505050565b600073ffffffffffffffffffffffffffffffffffffffff168373ffffffffffffffffffffffffffffffffffffffff16036136b85760006040517f96c6fd1e0000000000000000000000000000000000000000000000000000000081526004016136af9190614478565b60405180910390fd5b600073ffffffffffffffffffffffffffffffffffffffff168273ffffffffffffffffffffffffffffffffffffffff160361372a5760006040517fec442f050000000000000000000000000000000000000000000000000000000081526004016137219190614478565b60405180910390fd5b6137358383836139e3565b505050565b600073ffffffffffffffffffffffffffffffffffffffff168473ffffffffffffffffffffffffffffffffffffffff16036137ac5760006040517fe602df050000000000000000000000000000000000000000000000000000000081526004016137a39190614478565b60405180910390fd5b600073ffffffffffffffffffffffffffffffffffffffff168373ffffffffffffffffffffffffffffffffffffffff160361381e5760006040517f94280d620000000000000000000000000000000000000000000000000000000081526004016138159190614478565b60405180910390fd5b81600160008673ffffffffffffffffffffffffffffffffffffffff1673ffffffffffffffffffffffffffffffffffffffff16815260200190815260200160002060008573ffffffffffffffffffffffffffffffffffffffff1673ffffffffffffffffffffffffffffffffffffffff16815260200190815260200160002081905550801561390b578273ffffffffffffffffffffffffffffffffffffffff168473ffffffffffffffffffffffffffffffffffffffff167f8c5be1e5ebec7d5bd14f71427d1e84f3dd0314c0f7b2291e5b200ac8c7c3b925846040516139029190614224565b60405180910390a35b50505050565b61391b82826116c9565b61395e5780826040517fe2517d3f000000000000000000000000000000000000000000000000000000008152600401613955929190614bbb565b60405180910390fd5b5050565b61396a61133d565b6139a0576040517f8dfc202b00000000000000000000000000000000000000000000000000000000815260040160405180910390fd5b565b6139aa61133d565b156139e1576040517fd93c066500000000000000000000000000000000000000000000000000000000815260040160405180910390fd5b565b6139ee8383836139f3565b505050565b6139fb6139a2565b613a06838383613a0b565b505050565b600073ffffffffffffffffffffffffffffffffffffffff168373ffffffffffffffffffffffffffffffffffffffff1603613a5d578060026000828254613a519190614946565b92505081905550613b30565b60008060008573ffffffffffffffffffffffffffffffffffffffff1673ffffffffffffffffffffffffffffffffffffffff16815260200190815260200160002054905081811015613ae9578381836040517fe450d38c000000000000000000000000000000000000000000000000000000008152600401613ae093929190614b84565b60405180910390fd5b8181036000808673ffffffffffffffffffffffffffffffffffffffff1673ffffffffffffffffffffffffffffffffffffffff16815260200190815260200160002081905550505b600073ffffffffffffffffffffffffffffffffffffffff168273ffffffffffffffffffffffffffffffffffffffff1603613b795780600260008282540392505081905550613bc6565b806000808473ffffffffffffffffffffffffffffffffffffffff1673ffffffffffffffffffffffffffffffffffffffff168152602001908152602001600020600082825401925050819055505b8173ffffffffffffffffffffffffffffffffffffffff168373ffffffffffffffffffffffffffffffffffffffff167fddf252ad1be2c89b69c2b068fc378daa952ba7f163c4a11628f55a4df523b3ef83604051613c239190614224565b60405180910390a3505050565b6000604051905090565b600080fd5b600080fd5b60007fffffffff0000000000000000000000000000000000000000000000000000000082169050919050565b613c7981613c44565b8114613c8457600080fd5b50565b600081359050613c9681613c70565b92915050565b600060208284031215613cb257613cb1613c3a565b5b6000613cc084828501613c87565b91505092915050565b60008115159050919050565b613cde81613cc9565b82525050565b6000602082019050613cf96000830184613cd5565b92915050565b600080fd5b600080fd5b6000601f19601f8301169050919050565b7f4e487b7100000000000000000000000000000000000000000000000000000000600052604160045260246000fd5b613d5282613d09565b810181811067ffffffffffffffff82111715613d7157613d70613d1a565b5b80604052505050565b6000613d84613c30565b9050613d908282613d49565b919050565b600067ffffffffffffffff821115613db057613daf613d1a565b5b613db982613d09565b9050602081019050919050565b82818337600083830152505050565b6000613de8613de384613d95565b613d7a565b905082815260208101848484011115613e0457613e03613d04565b5b613e0f848285613dc6565b509392505050565b600082601f830112613e2c57613e2b613cff565b5b8135613e3c848260208601613dd5565b91505092915050565b600073ffffffffffffffffffffffffffffffffffffffff82169050919050565b6000613e7082613e45565b9050919050565b613e8081613e65565b8114613e8b57600080fd5b50565b600081359050613e9d81613e77565b92915050565b60006bffffffffffffffffffffffff82169050919050565b613ec481613ea3565b8114613ecf57600080fd5b50565b600081359050613ee181613ebb565b92915050565b600067ffffffffffffffff821115613f0257613f01613d1a565b5b602082029050602081019050919050565b600080fd5b613f2181613cc9565b8114613f2c57600080fd5b50565b600081359050613f3e81613f18565b92915050565b6000613f57613f5284613ee7565b613d7a565b90508083825260208201905060208402830185811115613f7a57613f79613f13565b5b835b81811015613fa35780613f8f8882613f2f565b845260208401935050602081019050613f7c565b5050509392505050565b600082601f830112613fc257613fc1613cff565b5b8135613fd2848260208601613f44565b91505092915050565b600080600080600080600060e0888a031215613ffa57613ff9613c3a565b5b600088013567ffffffffffffffff81111561401857614017613c3f565b5b6140248a828b01613e17565b975050602088013567ffffffffffffffff81111561404557614044613c3f565b5b6140518a828b01613e17565b96505060406140628a828b01613e8e565b95505060606140738a828b01613ed2565b94505060806140848a828b01613e8e565b93505060a06140958a828b01613e8e565b92505060c088013567ffffffffffffffff8111156140b6576140b5613c3f565b5b6140c28a828b01613fad565b91505092959891949750929550565b600081519050919050565b600082825260208201905092915050565b60005b8381101561410b5780820151818401526020810190506140f0565b60008484015250505050565b6000614122826140d1565b61412c81856140dc565b935061413c8185602086016140ed565b61414581613d09565b840191505092915050565b6000602082019050818103600083015261416a8184614117565b905092915050565b6000819050919050565b61418581614172565b811461419057600080fd5b50565b6000813590506141a28161417c565b92915050565b600080604083850312156141bf576141be613c3a565b5b60006141cd85828601613e8e565b92505060206141de85828601614193565b9150509250929050565b6000602082840312156141fe576141fd613c3a565b5b600061420c84828501613e8e565b91505092915050565b61421e81614172565b82525050565b60006020820190506142396000830184614215565b92915050565b600063ffffffff82169050919050565b6142588161423f565b82525050565b6000602082019050614273600083018461424f565b92915050565b60008060006060848603121561429257614291613c3a565b5b60006142a086828701613e8e565b93505060206142b186828701613e8e565b92505060406142c286828701614193565b9150509250925092565b6000819050919050565b6142df816142cc565b81146142ea57600080fd5b50565b6000813590506142fc816142d6565b92915050565b60006020828403121561431857614317613c3a565b5b6000614326848285016142ed565b91505092915050565b614338816142cc565b82525050565b6000602082019050614353600083018461432f565b92915050565b6143628161423f565b811461436d57600080fd5b50565b60008135905061437f81614359565b92915050565b6000806040838503121561439c5761439b613c3a565b5b60006143aa85828601614370565b92505060206143bb85828601614370565b9150509250929050565b600080604083850312156143dc576143db613c3a565b5b60006143ea858286016142ed565b92505060206143fb85828601613e8e565b9150509250929050565b600060ff82169050919050565b61441b81614405565b82525050565b60006020820190506144366000830184614412565b92915050565b60006020828403121561445257614451613c3a565b5b600061446084828501614193565b91505092915050565b61447281613e65565b82525050565b600060208201905061448d6000830184614469565b92915050565b600081519050919050565b600082825260208201905092915050565b6000819050602082019050919050565b6144c881613cc9565b82525050565b60006144da83836144bf565b60208301905092915050565b6000602082019050919050565b60006144fe82614493565b614508818561449e565b9350614513836144af565b8060005b8381101561454457815161452b88826144ce565b9750614536836144e6565b925050600181019050614517565b5085935050505092915050565b6000602082019050818103600083015261456b81846144f3565b905092915050565b61457c81613ea3565b82525050565b60006020820190506145976000830184614573565b92915050565b600080604083850312156145b4576145b3613c3a565b5b60006145c285828601613e8e565b92505060206145d385828601613e8e565b9150509250929050565b6000602082840312156145f3576145f2613c3a565b5b600061460184828501613ed2565b91505092915050565b7f4e487b7100000000000000000000000000000000000000000000000000000000600052602260045260246000fd5b6000600282049050600182168061465157607f821691505b6020821081036146645761466361460a565b5b50919050565b60008190508160005260206000209050919050565b60006020601f8301049050919050565b600082821b905092915050565b6000600883026146cc7fffffffffffffffffffffffffffffffffffffffffffffffffffffffffffffffff8261468f565b6146d6868361468f565b95508019841693508086168417925050509392505050565b6000819050919050565b600061471361470e61470984614172565b6146ee565b614172565b9050919050565b6000819050919050565b61472d836146f8565b6147416147398261471a565b84845461469c565b825550505050565b600090565b614756614749565b614761818484614724565b505050565b5b818110156147855761477a60008261474e565b600181019050614767565b5050565b601f8211156147ca5761479b8161466a565b6147a48461467f565b810160208510156147b3578190505b6147c76147bf8561467f565b830182614766565b50505b505050565b600082821c905092915050565b60006147ed600019846008026147cf565b1980831691505092915050565b600061480683836147dc565b9150826002028217905092915050565b61481f826140d1565b67ffffffffffffffff81111561483857614837613d1a565b5b6148428254614639565b61484d828285614789565b600060209050601f831160018114614880576000841561486e578287015190505b61487885826147fa565b8655506148e0565b601f19841661488e8661466a565b60005b828110156148b657848901518255600182019150602085019450602081019050614891565b868310156148d357848901516148cf601f8916826147dc565b8355505b6001600288020188555050505b505050505050565b7f4e487b7100000000000000000000000000000000000000000000000000000000600052603260045260246000fd5b7f4e487b7100000000000000000000000000000000000000000000000000000000600052601160045260246000fd5b600061495182614172565b915061495c83614172565b925082820190508082111561497457614973614917565b5b92915050565b600060608201905061498f6000830186614469565b61499c6020830185614469565b6149a96040830184614215565b949350505050565b6000815190506149c081613f18565b92915050565b6000602082840312156149dc576149db613c3a565b5b60006149ea848285016149b1565b91505092915050565b60006149fe82614172565b9150614a0983614172565b9250828202614a1781614172565b91508282048414831517614a2e57614a2d614917565b5b5092915050565b7f4e487b7100000000000000000000000000000000000000000000000000000000600052601260045260246000fd5b6000614a6f82614172565b9150614a7a83614172565b925082614a8a57614a89614a35565b5b828204905092915050565b6000614aa082614172565b9150614aab83614172565b9250828203905081811115614ac357614ac2614917565b5b92915050565b7f45524332303a2064656372656173656420616c6c6f77616e63652062656c6f7760008201527f207a65726f000000000000000000000000000000000000000000000000000000602082015250565b6000614b256025836140dc565b9150614b3082614ac9565b604082019050919050565b60006020820190508181036000830152614b5481614b18565b9050919050565b6000604082019050614b706000830185614469565b614b7d6020830184614215565b9392505050565b6000606082019050614b996000830186614469565b614ba66020830185614215565b614bb36040830184614215565b949350505050565b6000604082019050614bd06000830185614469565b614bdd602083018461432f565b939250505056fea26469706673582212205f178ac9c2044ff353788d9b2666b0d527ac1ede4948e55f86d335ccae3632c364736f6c634300081e0033",
  "linkReferences": {},
  "deployedLinkReferences": {}
}